:0400000007EF00F016
:0A0008000182B4ED0AF02FEF0AF0B8
:10080000003F065B4F666D7D077F67253032753A86
:0D081000253032753A253032750D0A000092
:10081E00290E406EDDEC0DF0020AD8A419EF04F09B
:10082E001BEF04F073EF04F054EF04F0DB51D96EBC
:10083E00DA6A010ED926010EDF6E73EF04F0DB517A
:10084E00D96EDA6A010ED926020EDF6E73EF04F04E
:10085E00DB51D96EDA6A010ED926DF6ADB51D96E09
:10086E00DA6ADF50D96EDA6A010ED926DF50436E8E
:10087E00DB51D96EDA6ADF50D96EDA6A020ED926EA
:10088E00DF50446EDB51D96EDA6ADF50D96EDA6A08
:10089E00DF50BCEC0DF073EF04F00001DB51D96EAC
:1008AE00DA6A010ED926DF50DC6FDD6BDD51000AEE
:1008BE00D8B464EF04F073EF04F0DC51000AD8B43E
:1008CE001DEF04F0010AD8B426EF04F0030AD8B4E1
:1008DE002FEF04F073EF04F0220E406EDDEC0DF0FE
:1008EE00020AD8A47DEF04F07FEF04F0DBEF04F0F2
:1008FE000001DB51D96EDA6A010ED926DE04D8A4C6
:10090E008BEF04F08DEF04F0AAEF04F0DB51D96EFB
:10091E00DA6ADF50D96EDA6ADF2ADB51D96EDA6A0B
:10092E00DF50D96EDA6A180EDE18D8A4A1EF04F0E3
:10093E00A3EF04F0AAEF04F0DB51D96EDA6ADF50B0
:10094E00D96EDA6ADF6ADB51D96EDA6A010ED92600
:10095E00020EDE18D8A4B6EF04F0B8EF04F0DBEF09
:10096E0004F0DB51D96EDA6ADF50D96EDA6A010E05
:10097E00D926DF2ADB51D96EDA6ADF50D96EDA6AF0
:10098E00010ED9263C0EDE18D8A4D0EF04F0D2EF1B
:10099E0004F0DBEF04F0DB51D96EDA6ADF50D96E6A
:1009AE00DA6A010ED926DF6A1B0E406EDDEC0DF001
:1009BE00020AD8A4E5EF04F0E7EF04F043EF05F0E8
:1009CE000001DB51D96EDA6A010ED926DE04D8A4F5
:1009DE00F3EF04F0F5EF04F012EF05F0DB51D96EF2
:1009EE00DA6ADF50D96EDA6ADF50D8A401EF05F06B
:1009FE0003EF05F00BEF05F0DB51D96EDA6ADF502D
:100A0E00D96EDA6A180EDF6EDB51D96EDA6ADF50F4
:100A1E00D96EDA6ADF06DB51D96EDA6A010ED92693
:100A2E00020EDE18D8A41EEF05F020EF05F043EFFE
:100A3E0005F0DB51D96EDA6ADF50D96EDA6A010E33
:100A4E00D926DF50D8A42EEF05F030EF05F03AEF9F
:100A5E0005F0DB51D96EDA6ADF50D96EDA6A010E13
:100A6E00D9263C0EDF6EDB51D96EDA6ADF50D96EB5
:100A7E00DA6A010ED926DF0612001050070D145047
:100A8E00F3240001E46FE4C0E0F0E16B000EE26FCE
:100A9E00000EE36FF5EC0AF0446A4450070DF3CFF5
:100AAE00E4F0F4CFE5F00001E4510C24E06FE551E1
:100ABE000D20E16F000EE26F010EE36FF5EC0AF010
:100ACE00442A060E44646EEF05F070EF05F054EF05
:100ADE0005F00A4A0B2A46C0E4F047C0E5F0D8906C
:100AEE000001E437E537E4510A5CE5510B58D8A014
:100AFE0083EF05F085EF05F088EF05F00B6A000E29
:100B0E000A6E1704D8A48EEF05F090EF05F0C4EF2F
:100B1E0005F013C0E0F0E16B010EE26F000EE36F23
:100B2E00F5EC0AF012C0E0F00001E16B000EE26F8E
:100B3E00010EE36FF5EC0AF046500A5C47500B5875
:100B4E00D8B0ACEF05F0AEEF05F0BAEF05F012C07D
:100B5E00E0F00001E16B010EE26F010EE36FF5ECC8
:100B6E000AF0C4EF05F012C0E0F00001E16B000ED8
:100B7E00E26F010EE36FF5EC0AF0102A1150105CD3
:100B8E00D8A0CCEF05F0CEEF05F0CFEF05F0106A50
:100B9E00456A4550070DF3CFE4F0F4CFE5F00001C0
:100BAE00E4510C24E06FE5510D20E16F000EE26F71
:100BBE00010EE36FF5EC0AF01050060FD96EDA6AEB
:100BCE00DF500001E46FE451010FE56FE5C0F6FF61
:100BDE00080EF76E0800F5CFE6F045C0E7F0010EFF
:100BEE00E86FE72BFDEF05F0D890E837E72FFBEF26
:100BFE0005F00001E851E6150009D8B409EF06F03A
:100C0E000BEF06F01FEF06F04550070DF3CFE4F0A3
:100C1E00F4CFE5F0E4510C24E06FE5510D20E16FC7
:100C2E00010EE26F010EE36FF5EC0AF031EF06F004
:100C3E004550070DF3CFE4F0F4CFE5F0E4510C246A
:100C4E00E06FE5510D20E16F000EE26F010EE36FD4
:100C5E00F5EC0AF0452A060E456438EF06F03AEF39
:100C6E0006F0D0EF05F01050070D1450F3240001DC
:100C7E00E46FE4C0E0F0E16B010EE26F000EE36F93
:100C8E00F5EC0AF012000001DB51D96EDA6A010EA2
:100C9E00D926DE04D8A456EF06F058EF06F06DEF15
:100CAE0006F0DB51D96EDA6ADF50406EAAEC0CF01A
:100CBE00E806D8B465EF06F068EF06F0010E69EFAE
:100CCE0006F0000E0001DE6F80EF06F0DB51D96EEC
:100CDE00DA6ADF50406EAAEC0CF0E806D8A47AEF80
:100CEE0006F07DEF06F0010E7EEF06F0000E00011D
:100CFE00DE6FDB51D96EDA6A020ED926DE51DE18AE
:100D0E00D8A48CEF06F08EEF06F096EF06F0DB51CE
:100D1E00D96EDA6A040ED926DF6A0CEF07F0DB51C2
:100D2E00D96EDA6A040ED926DF2ADB51D96EDA6A59
:100D3E00050ED926DB51E16EE26A040EE126DE5085
:100D4E00E65CD8A0ADEF06F0AFEF06F00CEF07F0C3
:100D5E00DB51D96EDA6A020ED926DB51E16EE26AF8
:100D6E00030EE126DFCFE7FFDB51D96EDA6A020E02
:100D7E00D926DEC0DFFFDB51D96EDA6A030ED92623
:100D8E00DF50D8A4CDEF06F0CFEF06F0E5EF06F07A
:100D9E00DB51D96EDA6A020ED926DE04D8A4DAEF58
:100DAE0006F0DCEF06F0E5EF06F0DB51D96EDA6AFD
:100DBE00060ED926010EDF6E06EF07F0DB51D96E57
:100DCE00DA6A030ED926DE04D8A4F0EF06F0F2EFAD
:100DDE0006F006EF07F0DB51D96EDA6A020ED9265D
:100DEE00DF50D8A4FDEF06F0FFEF06F006EF07F098
:100DFE00DB51D96EDA6A060ED926020EDF6EDB5192
:100E0E00D96EDA6A040ED926DF6A12000001E451A7
:100E1E00D96EDA6A040ED926DECF0CF0DDCF0DF0D6
:100E2E00E451D96EDA6A060ED926DF50146EE451FB
:100E3E00D96EDA6A080ED926DF50136EE451D96ED8
:100E4E00DA6A070ED926DF50126EE451D96EDA6ACD
:100E5E00DF50176EE451D96EDA6A010ED926DF50D3
:100E6E00166EE451D96EDA6A020ED926DF50156E6F
:100E7E00E451D96EDA6A030ED926DF50116EE66B95
:100E8E00E651070DF3CF44F0F4CF45F044500C2457
:100E9E00406E45500D20416E000E426E08EC09F07A
:100EAE000001E651070DF3CF44F0F4CF45F0445066
:100EBE000C24E06F45500D20E16F000EE26F010E25
:100ECE00E36FF5EC0AF00001E62B060EE66572EF15
:100EDE0007F074EF07F047EF07F0E56B94EF07F0BC
:100EEE00E551070D1450F324446E44C040F0416A9E
:100EFE00000E426E08EC09F00001E551070D14508A
:100F0E00F324446E44C0E0F0E16B000EE26F000E7D
:100F1E00E36FF5EC0AF00001E52B1150E55DD8A06A
:100F2E009BEF07F09DEF07F077EF07F01704D8A4BB
:100F3E00A3EF07F0A5EF07F0C7EF07F012C040F0E0
:100F4E00416A000E426E08EC09F012C0E0F000019A
:100F5E00E16B000EE26F010EE36FF5EC0AF013C0C9
:100F6E0040F0416A000E426E08EC09F013C0E0F04A
:100F7E000001E16B000EE26F000EE36FF5EC0AF07C
:100F8E001200330E0001E46F300EE56FD9EC0CF059
:100F9E004F0E406E6EEC0DF04F0E436E49EC0CF0A2
:100FAE0008EC0EF04AEC0EF07C0E0001E46F0DEC36
:100FBE0007F046EC0EF0300E0001DE6F000EDF6F14
:100FCE00000EE06F000EE16F6DEC0BF02EEC0DF0ED
:100FDE00330E0001DB6F0FEC04F0FAEC0DF000099C
:100FEE00D8B4FCEF07F0FEEF07F002EF08F0CDECFF
:100FFE000DF044EC05F0ECEC0DF00009D8B40AEF5E
:10100E0008F00CEF08F028EF08F03450D8A412EFD7
:10101E0008F014EF08F028EF08F0300E406EA3EC45
:10102E0009F0300E406E8AEC0DF040C0DEF041C08B
:10103E00DFF07AEC0CF0010E416EF40E406E41ECD6
:10104E000EF03404D8A42EEF08F030EF08F03FEF86
:10105E0008F0416A960E406E41EC0EF0300E406E76
:10106E008AEC0DF040C0DEF041C0DFF07AEC0CF0FF
:10107E00020E3418D8A446EF08F048EF08F0EDEF52
:10108E0007F0416A960E406E41EC0EF0300E406E47
:10109E008AEC0DF040C0DEF041C0DFF07AEC0CF0CF
:1010AE00EDEF07F007EF00F0456A41BE63EF08F081
:1010BE0061EF08F069EF08F0406C411ED8B0412A8C
:1010CE00010E456E43BE70EF08F06EEF08F074EF40
:1010DE0008F0426C431ED8B0432A42504310D8B495
:1010EE007BEF08F07DEF08F0A1EF08F0010E446EE3
:1010FE0085EF08F0D89042364336442A43AE8AEF45
:10110E0008F08CEF08F081EF08F04250405C43503D
:10111E004158D8A095EF08F097EF08F09BEF08F034
:10112E004250405E4350415AD89043324232442E90
:10113E008CEF08F04550D8B4A7EF08F0A9EF08F0EF
:10114E00ADEF08F0406C411ED8B0412A40C040F0CF
:10115E0041C041F012004204D8A4B8EF08F0BAEF33
:10116E0008F0E0EF08F020EE06F04050D92641508E
:10117E00DA22DF500001DB6F010EDC6FDB2BCAEFD2
:10118E0008F0D890DC37DB2FC8EF08F020EE02F025
:10119E004050D9264150DA22DECFDDF0DDCFDEF031
:1011AE00DDC0D9FFDEC0DAFF0001DC51DF1207EF30
:1011BE0009F020EE06F04050D9264150DA22DF50D9
:1011CE000001DB6F010EDC6FDB2BF0EF08F0D89027
:1011DE00DC37DB2FEEEF08F00001DC51FF0ADD6F8C
:1011EE0020EE02F04050D9264150DA22DECFDEF05A
:1011FE00DDCFDFF0DEC0D9FFDFC0DAFFDD51DF1655
:10120E0012004250D8A40EEF09F010EF09F037EF9C
:10121E0009F020EE06F04050D9264150DA22DF5078
:10122E000001DB6F010EDC6FDB2B20EF09F0D89095
:10123E00DC37DB2F1EEF09F00001DC51FF0ADD6FFA
:10124E0040C0D9FF41C0DAFFDECFDEF0DDCFDFF0E8
:10125E00DEC0D9FFDFC0DAFFDD51DF1659EF09F02E
:10126E0020EE06F04050D9264150DA22DF50000120
:10127E00DB6F010EDC6FDB2B47EF09F0D890DC370C
:10128E00DB2F45EF09F040C0D9FF41C0DAFFDECFBA
:10129E00DDF0DDCFDEF0DDC0D9FFDEC0DAFF00010C
:1012AE00DC51DF121200000E2CEC0EF0A50AD8B4A1
:1012BE0063EF09F065EF09F08AEF09F00001DB51E9
:1012CE00D96EDA6A0C0EDF6EDC51D96EDA6ADF6A1D
:1012DE00DD51D96EDA6ADF6ADC51D96EDA6ADF5017
:1012EE00436EDD51D96EDA6ADF50446EDB51D96E32
:1012FE00DA6ADF50BCEC0DF0A50E406E000E4EEC1F
:10130E000DF0A2EF09F00001DB51D96EDA6A010E81
:10131E002CEC0EF0DF6E0001DC51D96EDA6A020E93
:10132E002CEC0EF0DF6E0001DD51D96EDA6A030E81
:10133E002CEC0EF0DF6E12004050D96EDA6A020EFF
:10134E00D926DF2A4050D96EDA6A020ED9263B0E14
:10135E00DF64B4EF09F0B6EF09F0E8EF09F04050A2
:10136E00D96EDA6A020ED926DF6A4050D96EDA6A71
:10137E00010ED926DF2A4050D96EDA6A010ED9261F
:10138E003B0EDF64CDEF09F0CFEF09F0E8EF09F087
:10139E004050D96EDA6A010ED926DF6A4050D96EF6
:1013AE00DA6ADF2A4050D96EDA6A170EDF64E2EF8E
:1013BE0009F0E4EF09F0E8EF09F04050D96EDA6A6F
:1013CE00DF6A12009EAAEEEF09F0F0EF09F00DEFC2
:1013DE000AF0ABA2F5EF09F0F7EF09F0FBEF09F019
:1013EE00AB98AB882EEF0AF0ABA400EF0AF002EF39
:1013FE000AF005EF0AF0AE502EEF0AF0AECF39F03C
:10140E00AF0E356E39C036F0DFEC0BF09EA812EF42
:10141E000AF014EF0AF02EEF0AF09DA819EF0AF069
:10142E001BEF0AF02EEF0AF0C50E356E3A0E366E31
:10143E0072EC0AF00009D8B427EF0AF029EF0AF08F
:10144E002DEF0AF03AC0ADFF2EEF0AF09D98120074
:10145E00460EF66E1B0EF76E000EF86E01EE00F0E5
:10146E0010EE31F00900F5CFEEFFE550E150FAE154
:10147E000C0EF66E1A0EF76E000EF86E00EE60F0A1
:10148E0010EE4FF00900F5CFEEFFE550E150FAE116
:10149E00680EF66E1C0EF76E000EF86E00EE46F03D
:1014AE0010EE0FF00900F5CFEEFFE550E150FAE136
:1014BE0000EEAFF02C0EEE6AE806FDE100EE02F053
:1014CE00330EEE6AE806FDE101900192000EF86E11
:1014DE000001C8EF07F03550D96EDA6A150ED9261D
:1014EE003550E16EE26A140EE126DE50E618D8A4FD
:1014FE0083EF0AF085EF0AF088EF0AF0000EB3EFE3
:10150E000AF03550D96EDA6A150ED926DF50376ECD
:10151E0035503724D96EDA6A3650E16EE26ADFCF83
:10152E00E7FF3550D96EDA6A150ED926DF2A355007
:10153E00D96EDA6A150ED926140EDE18D8A4AAEFC3
:10154E000AF0ACEF0AF0B2EF0AF03550D96EDA6A53
:10155E00150ED926DF6A010E12000600E1CF3CF00F
:10156E00E2CF3DF0D9CF3EF0DACF3FF0000E9EBA7B
:10157E00010E9EB8010EE8B0C7EF0AF0CBEF0AF0ED
:10158E003B6A3B2ACCEF0AF03B6A3B50D8B4D2EF11
:10159E000AF0D4EF0AF0D6EF0AF0E9EC09F0F2A463
:1015AE00DBEF0AF0DDEF0AF0EBEF0AF0F2AAE2EF62
:1015BE000AF0E4EF0AF0EBEF0AF0F294FB0ED76EAE
:1015CE001E0ED66E22EC0EF03FC0DAFF3EC0D9FFE3
:1015DE003DC0E2FF3CC0E1FF019211000001E3516A
:1015EE00D8A4FCEF0AF0FEEF0AF020EF0BF0150482
:1015FE00D8A404EF0BF006EF0BF013EF0BF0E2059F
:10160E00D8B40CEF0BF00FEF0BF0010E10EF0BF048
:10161E00000E436E2AEF0BF0E251D8B419EF0BF027
:10162E001CEF0BF0010E1DEF0BF0000E436E2AEFB8
:10163E000BF01604D8A426EF0BF028EF0BF013EFE7
:10164E000BF006EF0BF0E0C040F0E1C041F043C0FC
:10165E0042F0B2EC08F012000001DD6B000EDC6F00
:10166E0042504310D8B43EEF0BF040EF0BF068EF52
:10167E000BF0010EDB6F48EF0BF0D890423643367D
:10168E00DB2B43AE4DEF0BF04FEF0BF044EF0BF0B7
:10169E00D890DC37DD374250405C43504158D8A0DB
:1016AE005BEF0BF05DEF0BF062EF0BF04250405E24
:1016BE004350415ADC81D89043324232DB2F4FEFF8
:1016CE000BF0DCC040F0DDC041F012000001DE5135
:1016DE00D96EDA6ADFC040F0416A436A180E426E74
:1016EE005BEC08F04050DF6E0001DE51D96EDA6A15
:1016FE00010ED926E0C040F0416A436A3C0E426EAC
:10170E005BEC08F04050DF6E0001DE51D96EDA6AF4
:10171E00020ED926E1C040F0416A436A3C0E426E89
:10172E005BEC08F04050DF6EDEC0DBF00001DE291E
:10173E00DC6FDE51020FDD6F5AEC09F01200000172
:10174E00E051D96EDA6AE1C0DFFFE051D96EDA6A94
:10175E00010ED926E2C0DFFFE051D96EDA6A020E21
:10176E00D926DF6AE051D96EDA6A030ED926DF6A0E
:10177E00E051D96EDA6A040ED926DF6AE051D96ECD
:10178E00DA6A050ED926E3C0DFFFE051D96EDA6AB8
:10179E00060ED926DF6AE051D96EDA6ADF50436E43
:1017AE0043C040F0416A010E426E08EC09F012008F
:1017BE003550D96EDA6A140ED926DF50376E3728B7
:1017CE00386E140E3818D8A4EFEF0BF0F1EF0BF0C3
:1017DE00F2EF0BF0386A3550D96EDA6A150ED9264B
:1017EE003850DE18D8A4FEEF0BF000EF0CF002EF2D
:1017FE000CF016EF0CF03550D96EDA6A140ED926AD
:10180E00DF50376E35503724D96EDA6A36C0DFFFB7
:10181E003550D96EDA6A140ED92638C0DFFF1200A1
:10182E0042504310D8B41EEF0CF020EF0CF044EFF2
:10183E000CF0010E446E28EF0CF0D8904236433671
:10184E00442A43AE2DEF0CF02FEF0CF024EF0CF0EA
:10185E004250405C43504158D8A038EF0CF03AEF5C
:10186E000CF03EEF0CF04250405E4350415AD8907F
:10187E0043324232442E2FEF0CF040C040F041C0B4
:10188E0041F012004350D96EDA6ADF50446E44C004
:10189E0040F0416A010E426E08EC09F04350D96ED9
:1018AE00DA6A010ED926DF50446E44C040F0416A18
:1018BE00010E426E08EC09F0C50E406E15EC0EF0EE
:1018CE00AF0E406E15EC0EF0AB8EAC8AAB889E98C8
:1018DE009D989EAA75EF0CF077EF0CF078EF0CF058
:1018EE00AE509D8A12000001E16BA0EF0CF0DEC03D
:1018FE0040F0DFC041F0436A0A0E426E17EC0CF066
:10190E0040500001E06FE15105081124D96EDA6AEA
:10191E00E0C0DFFFDEC040F0DFC041F0436A0A0ED8
:10192E00426E33EC0BF040C0DEF041C0DFF0000140
:10193E00E12B1150E15DD8A0A7EF0CF0A9EF0CF050
:10194E007EEF0CF012004050D96EDA6A040ED926E2
:10195E00DECF41F0DDCF42F041C0D9FF42C0DAFF09
:10196E00DF50436E4050D96EDA6A060ED926DF502C
:10197E00446E010E456E442AC7EF0CF0D8904536E2
:10198E00442EC5EF0CF0455043140009D8B4D2EFE5
:10199E000CF0D4EF0CF0D7EF0CF0010ED8EF0CF0EA
:1019AE00000E12000001E451D96EDA6AE5C0DFFFC5
:1019BE00E451D96EDA6A010ED926DF6A290EE06F7C
:1019CE00480EE16F000EE26F190EE36FA6EC0BF0FE
:1019DE00220E0001E06F8C0EE16F000EE26F190E09
:1019EE00E36FA6EC0BF01B0E0001E06F850EE16FAE
:1019FE00000EE26F190EE36FA6EC0BF01200930FC0
:101A0E008A0F810F04930F8A0F810F05930F8A0F90
:101A1E00810F06930F8A0F810F0701010004000149
:101A2E0060A8A1930F8A0F810F02930F8A0F810F67
:101A3E0001940F8B0F820F06940F8B0F820F079658
:0D1A4E000F8D0F840F00950F8C0F830F0775
:101A5C0045EF0DF01A06010E186E0E4A0F2AE80E0D
:101A6C000E5C030E0F58D8A03EEF0DF040EF0DF0BA
:101A7C0045EF0DF00F6A000E0E6E010E196E1A5026
:101A8C00D8A44BEF0DF04DEF0DF030EF0DF0120030
:101A9C00416E000EF2BE010E426E41C0A9FF40C065
:101AAC00A8FFA69EA69CA684F29E550EA76EAA0E13
:101ABC00A76EA68242B002D0F29E01D0F28EA6B2E0
:101ACC006AEF0DF06CEF0DF065EF0DF0A6941200BF
:101ADC00AC9CAB9CAC984050D96EDA6A020ED926FD
:101AEC00800EDE1809E1250EDE18DE10DE10D8A4FB
:101AFC0082EF0DF084EF0DF089EF0DF0AC84B89609
:101B0C00B06A810EAF6E12004050D96EDA6A010EC7
:101B1C00D926DF50426E4050D96EDA6ADF50436EE0
:101B2C004350640DF3CF44F0F4CF45F042504424BD
:101B3C00406E000E4520416E1200950F8C0F830FE6
:101B4C0000950F8C0F830F01950F8C0F830F02954F
:101B5C000F8C0F830F03950F8C0F830F04950F8C35
:0B1B6C000F830F05950F8C0F830F06F1
:101B7800456E45C040F0010E4EEC0DF043C040F0FC
:101B8800020E4EEC0DF044C040F0030E4EEC0DF08A
:101B98001200290E0001DB6F4AEC06F0220E00014C
:101BA800DB6F4AEC06F01B0E0001DB6F4AEC06F017
:101BB80012004050D96EDA6A060ED926DF50416EFF
:101BC8004050D96EDA6A060ED926DF6A41501200F3
:101BD8001950D8B4F2EF0DF0F4EF0DF0F8EF0DF066
:101BE800196A010EF9EF0DF0000E12001850D8B462
:101BF80000EF0EF002EF0EF006EF0EF0186A010E7D
:101C080007EF0EF0000E1200D56AD59CD59AD5962E
:101C1800D550F80B0109D56E3CEC0EF0F294F28A1F
:101C280012004050D96EDA6A140ED926DF6A405085
:101C3800D96EDA6A150ED926DF6A12001A28D8B4C6
:101C480028EF0EF02AEF0EF02BEF0EF01A2A1200F2
:101C5800406E40C0A9FFA69EA69CA680A850120070
:0F1C68000100930F8A0F810F009A9380250000CF
:101C7800FB0ED76E1E0ED66E120040C046F041C055
:101C880047F01200D09EF28CF28E1200D58E120010
:020000040030CA
:08000000000C1E1EFF8181FFB0
:00000001FF
