:0400000007EF00F016
:0A000800018258ED14F051EF15F0DD
:1008000000010101010101000001010000000001DF
:1008100001000101000101010101000001000101CD
:1008200000000101010001010001010100010101BD
:1008300001000101010000000001010101010101AD
:1008400001010100000101253032753A2530327571
:100850003A253032750D0A00310D0A00320D0A00BA
:09086000410D0A00420D0A0000DE
:10086A000101AB6B000EAA6F0001B451B511D8A4F7
:10087A0041EF04F043EF04F0FCEF0AF0200EB26FF0
:10088A00300EB36FFCEF0AF0B8C0F6FF080EF76E31
:10089A000800F550250AD8B455EF04F057EF04F0D4
:1008AA007DEF04F0B8C0F6FF080EF76E0800F5CF2A
:1008BA0014F0B4C015F0B5C016F0AAC117F0ABC158
:1008CA0018F0B6C019F0B7C01AF002D876EF04F0E3
:1008DA000500FA6EB251FD6EB351FE6EFF6AFA5010
:1008EA0012000101AA4BAB2B0001B82BFCEF0AF056
:1008FA00B82B0101AD6B000EAC6FA6EF04F0AC8112
:10090A000001B82B0101976B010E966FC2EF04F03C
:10091A00AC830001B82B87EF04F0AC850001B82B3B
:10092A0087EF04F0AC870001B82B87EF04F0AC899D
:10093A000001B82B87EF04F0976B000E966FC2EF99
:10094A0004F0B8C0F6FF080EF76E0800F550200A4A
:10095A00D8B497EF04F0030AD8B49CEF04F0080A5D
:10096A00D8B492EF04F0060AD8B48DEF04F01D0A49
:10097A00D8B484EF04F0A1EF04F096519711D8A4EB
:10098A00C9EF04F0CBEF04F0A6EF04F0A76B000E5A
:10099A00A66FB8C0F6FF080EF76E0800F55054ECC3
:1009AA0017F00009D8B4DCEF04F0DEEF04F0E8EF4A
:1009BA0004F0B80E106E15EC15F010C0A6F111C0B7
:1009CA00A7F127EF05F0B8C0F6FF080EF76E08008A
:1009DA00F5502A0AD8A4F4EF04F0F6EF04F027EF52
:1009EA0005F0B9C0D9FFBAC0DAFFDFCF34F0020E82
:1009FA00DE26DFCF35F0000EDD2234C0D9FF35C048
:100A0A00DAFFDECF98F1DDCF99F1010199BF12EF3C
:100A1A0005F010EF05F021EF05F0AC8398C134F032
:100A2A0099C135F0341E351E344A352A34C0A6F130
:100A3A0035C0A7F125EF05F098C1A6F199C1A7F134
:100A4A000001B82B0101A96B000EA86FB8C0F6FF10
:100A5A00080EF76E0800F5502E0AD8A437EF05F0F5
:100A6A0039EF05F0C9EF05F0AD850001B82BB8C024
:100A7A00F6FF080EF76E0800F55054EC17F000095F
:100A8A00D8B44AEF05F04CEF05F056EF05F0B80E72
:100A9A00106E15EC15F010C0A8F111C0A9F1C9EF3C
:100AAA0005F0B8C0F6FF080EF76E0800F5502A0ADE
:100ABA00D8A462EF05F064EF05F0C9EF05F0B9C0FC
:100ACA00D9FFBAC0DAFFDFCF34F0020EDE26DFCF5D
:100ADA0035F0000EDD2234C0D9FF35C0DAFFDECF93
:100AEA0092F1DDCF93F1010193BF86EF05F09351A7
:100AFA0006E19205D8B084EF05F086EF05F08BEF9A
:100B0A0005F0A96B000EA86F8FEF05F092C1A8F14E
:100B1A0093C1A9F10001B82BC9EF05F00101AD811C
:100B2A000001B82BB8C0F6FF080EF76E0800F550A2
:100B3A006C0AD8A4A3EF05F0A5EF05F0C8EF0AF0F8
:100B4A000101AD830001B82BC8EF0AF00101AC8F97
:100B5A000001B82BB8C0F6FF080EF76E0800F55072
:100B6A00680AD8A4BBEF05F0BDEF05F0C8EF0AF09C
:100B7A000101AC8D0001B82BC8EF0AF00101AD8369
:100B8A000001B82BC8EF0AF0B8C0F6FF080EF76EDE
:100B9A000800F550680AD8B4ABEF05F0020AD8B4D9
:100BAA00C3EF05F0060AD8B493EF05F0160AD8B4D5
:100BBA00C3EF05F0C8EF0AF0B8C0F6FF080EF76EEB
:100BCA000800F550780AD8B4EDEF05F0EFEF05F01C
:100BDA00FDEF05F0B8C0F6FF080EF76E0800F550F5
:100BEA00580AD8A4FBEF05F0FDEF05F003EF06F075
:100BFA000101A56B100EA46F30EF06F0B8C0F6FF26
:100C0A00080EF76E0800F5506F0AD8A40FEF06F029
:100C1A0011EF06F017EF06F00101A56B080EA46F9D
:100C2A0030EF06F0B8C0F6FF080EF76E0800F55070
:100C3A00620AD8A423EF06F025EF06F02BEF06F0A0
:100C4A000101A56B020EA46F30EF06F00101A56B3E
:100C5A000A0EA46FAC99B8C0F6FF080EF76E08002A
:100C6A00F550580AD8A43CEF06F03EEF06F03FEFE5
:100C7A0006F0AC8BB8C0F6FF080EF76E0800F55008
:100C8A00690AD8B44BEF06F04DEF06F05FEF06F0B5
:100C9A00B8C0F6FF080EF76E0800F550640AD8B41B
:100CAA0059EF06F05BEF06F05FEF06F0F30EAC17B4
:100CBA00FF0EAD17ADA564EF06F066EF06F067EF1D
:100CCA0006F0AC91B8C0F6FF080EF76E0800F550B2
:100CDA00690AD8B473EF06F075EF06F083EF06F0F1
:100CEA00B8C0F6FF080EF76E0800F550640AD8A4DB
:100CFA0081EF06F083EF06F0B8EF07F0ADA388EFB7
:100D0A0006F08AEF06F08CEF06F079EF04F0ADA159
:100D1A0091EF06F093EF06F00DEF07F0B9C0D9FF97
:100D2A00BAC0DAFFDFCF34F0040EDE26DFCF35F0AB
:100D3A00000EDD2234C0D9FF35C0DAFFDECF9EF1C6
:100D4A00DECF9FF1DECFA0F1DECFA1F1A1BFBAEFD6
:100D5A0006F0A151A0119F1106E19E05D8B0B8EF87
:100D6A0006F0BAEF06F0C8EF06F09E510008826F4F
:100D7A00000E9F55836F000EA055846F000EA1557B
:100D8A00856FD0EF06F09EC182F19FC183F1A0C1A9
:100D9A0084F1A1C185F1B2C074F0B3C075F0B4C0DA
:100DAA0076F0B5C077F0AAC178F0ABC179F0B6C0D9
:100DBA007AF0B7C07BF082C17CF083C17DF084C138
:100DCA007EF085C17FF0A1BFEDEF06F0F0EF06F0EF
:100DDA00010EF1EF06F0000E0001806FA4C181F050
:100DEA00A5C182F0836B846BA8C185F0A9C186F086
:100DFA00A6C187F0A7C188F0ACC189F0ADC18AF05D
:100E0A00F8EC0DF074C0AAF175C0ABF179EF04F0FB
:100E1A00ACBD12EF07F014EF07F04BEF07F0ACBFD1
:100E2A0019EF07F01BEF07F031EF07F0B9C0D9FF50
:100E3A00BAC0DAFFDFCF34F0020EDE26DFCF35F09C
:100E4A00000EDD2234C0D9FF35C0DAFFDECF86F1CD
:100E5A00DDCF87F145EF07F0B9C0D9FFBAC0DAFF95
:100E6A00DFCF34F0020EDE26DFCF35F0000EDD22B2
:100E7A0034C0D9FF35C0DAFFDECF86F1DDCF87F186
:100E8A0086C1A2F187C1A3F160EF07F0B9C0D9FF0B
:100E9A00BAC0DAFFDFCF34F0020EDE26DFCF35F03C
:100EAA00000EDD2234C0D9FF35C0DAFFDF50366EBE
:100EBA003650A26FA36BA3BF6DEF07F0A35106E1F3
:100ECA00A205D8B06BEF07F06DEF07F077EF07F0E8
:100EDA00A2510008886FA351D8A0E82A0008896F98
:100EEA007BEF07F0A2C188F1A3C189F1B2C074F007
:100EFA00B3C075F0B4C076F0B5C077F0AAC178F087
:100F0A00ABC179F0B6C07AF0B7C07BF088C17CF08B
:100F1A0089C17DF000017E6B7F6B0101A3BF98EF51
:100F2A0007F09BEF07F0010E9CEF07F0000E00019F
:100F3A00806FA4C181F0A5C182F0836B846BA8C1C4
:100F4A0085F0A9C186F0A6C187F0A7C188F0ACC117
:100F5A0089F0ADC18AF0F8EC0DF074C0AAF175C041
:100F6A00ABF179EF04F0ADA3BDEF07F0BFEF07F0E7
:100F7A00C1EF07F079EF04F0ADA1C6EF07F0C8EFB3
:100F8A0007F00DEF08F0B2C074F0B3C075F0B4C04A
:100F9A0076F0B5C077F0AAC178F0ABC179F0B6C0E7
:100FAA007AF0B7C07BF0B9C0D9FFBAC0DAFFDFCF99
:100FBA0034F0040EDE26DFCF35F0000EDD2234C019
:100FCA00D9FF35C0DAFFDECF7CF0DECF7DF0DECF91
:100FDA007EF0DECF7FF0000E0001806FA4C181F0A9
:100FEA00A5C182F0836B846BA8C185F0A9C186F084
:100FFA00A6C187F0A7C188F0ACC189F0ADC18AF05B
:10100A00F8EC0DF074C0AAF175C0ABF179EF04F0F9
:10101A00ACBD12EF08F014EF08F04BEF08F0ACBFCC
:10102A0019EF08F01BEF08F031EF08F0B9C0D9FF4B
:10103A00BAC0DAFFDFCF34F0020EDE26DFCF35F09A
:10104A00000EDD2234C0D9FF35C0DAFFDECF8CF1C5
:10105A00DDCF8DF145EF08F0B9C0D9FFBAC0DAFF8C
:10106A00DFCF34F0020EDE26DFCF35F0000EDD22B0
:10107A0034C0D9FF35C0DAFFDECF8CF1DDCF8DF178
:10108A008CC18AF18DC18BF160EF08F0B9C0D9FF2C
:10109A00BAC0DAFFDFCF34F0020EDE26DFCF35F03A
:1010AA00000EDD2234C0D9FF35C0DAFFDF50366EBC
:1010BA0036508A6F8B6BB2C074F0B3C075F0B4C08F
:1010CA0076F0B5C077F0AAC178F0ABC179F0B6C0B6
:1010DA007AF0B7C07BF08AC17CF08BC17DF0000149
:1010EA007E6B7F6B000E806FA4C181F0A5C182F078
:1010FA00836B846BA8C185F0A9C186F0A6C187F06D
:10110A00A7C188F0ACC189F0ADC18AF0F8EC0DF046
:10111A0074C0AAF175C0ABF179EF04F00101956BC7
:10112A00010E946FACB39CEF08F09EEF08F0CFEF7E
:10113A0008F0BEEF08F0200E146EB4C015F0B5C06A
:10114A0016F0AAC117F0ABC118F0B6C019F0B7C0B3
:10115A001AF002D8BBEF08F005000001FA6EB2518E
:10116A00FD6EB351FE6EFF6AFA5012000101AA4BDE
:10117A00AB2B9451346E9551356E944B952BA651E9
:10118A00345CA7513558D8A0CDEF08F0CFEF08F05E
:10119A00A0EF08F0B9C0D9FFBAC0DAFFDFCF34F048
:1011AA00020EDE26DFCF35F0000EDD2234C0D9FF75
:1011BA0035C0DAFFDF50146EB4C015F0B5C016F0B2
:1011CA00AAC117F0ABC118F0B6C019F0B7C01AF02F
:1011DA0002D8FAEF08F005000001FA6EB251FD6E6E
:1011EA00B351FE6EFF6AFA5012000101AA4BAB2BF3
:1011FA00ACA302EF09F004EF09F079EF04F024EF51
:10120A0009F0200E146EB4C015F0B5C016F0AAC1CC
:10121A0017F0ABC118F0B6C019F0B7C01AF002D86F
:10122A0021EF09F005000001FA6EB251FD6EB351CB
:10123A00FE6EFF6AFA5012000101AA4BAB2B9451C1
:10124A00346E9551356E944B952BA651345CA7514B
:10125A003558D8A033EF09F035EF09F006EF09F059
:10126A0079EF04F0B9C0D9FFBAC0DAFFDFCF34F0A2
:10127A00020EDE26DFCF35F0000EDD2234C0D9FFA4
:10128A0035C0DAFFDECF9AF1DDCF9BF10101A8511B
:10129A00A911D8A453EF09F055EF09F059EF09F055
:1012AA008E698F695DEF09F0A8C18EF1A9C18FF12E
:1012BA009AC10EF09BC10FF08EC110F08FC111F0D0
:1012CA00D9EC16F00EC09CF10FC09DF10101ADA53D
:1012DA0071EF09F073EF09F082EF09F0A8519C5DF4
:1012EA00A9519D59D8A07CEF09F07EEF09F082EF51
:1012FA0009F0A8C19CF1A9C19DF1ACB387EF09F02F
:10130A0089EF09F0E0EF09F0A9EF09F0200E146E59
:10131A00B4C015F0B5C016F0AAC117F0ABC118F0E9
:10132A00B6C019F0B7C01AF002D8A6EF09F0050046
:10133A000001FA6EB251FD6EB351FE6EFF6AFA50A9
:10134A0012000101AA4BAB2B9C51346E9D51356E94
:10135A009C4B9D2BA651345CA7513558D8A0B8EFA9
:10136A0009F0BAEF09F08BEF09F0E0EF09F09AC142
:10137A00D9FF9BC1DAFFDF50146EB4C015F0B5C0B7
:10138A0016F0AAC117F0ABC118F0B6C019F0B7C071
:10139A001AF002D8DBEF09F005000001FA6EB2512B
:1013AA00FD6EB351FE6EFF6AFA5012000101AA4B9C
:1013BA00AB2B9A4B9B2B9AC1D9FF9BC1DAFFDF500B
:1013CA00D8B4EAEF09F0ECEF09F000EF0AF0ADA5A6
:1013DA00F1EF09F0F3EF09F0BCEF09F0A807D8A084
:1013EA00A907A82906E1A929D8A4FEEF09F000EF68
:1013FA000AF0BCEF09F0ACA305EF0AF007EF0AF018
:10140A0079EF04F027EF0AF0200E146EB4C015F03D
:10141A00B5C016F0AAC117F0ABC118F0B6C019F0E2
:10142A00B7C01AF002D824EF0AF005000001FA6EDC
:10143A00B251FD6EB351FE6EFF6AFA5012000101FD
:10144A00AA4BAB2B9C51346E9D51356E9C4B9D2BF8
:10145A00A651345CA7513558D8A036EF0AF038EFB8
:10146A000AF009EF0AF079EF04F00101A76B040E04
:10147A00A66F210EAC13B2C074F0B3C075F0B4C03D
:10148A0076F0B5C077F0AAC178F0ABC179F0B6C0F2
:10149A007AF0B7C07BF0B9C0D9FFBAC0DAFFDFCFA4
:1014AA0034F0020EDE26DFCF35F0000EDD2234C026
:1014BA00D9FF35C0DAFFDECF36F0DDCF37F036C0E0
:1014CA007CF037C07DF000017E6B7F6B000E806F71
:1014DA00100E816F000E826F000E836F000E846FF4
:1014EA00A8C185F0A9C186F0A6C187F0A7C188F076
:1014FA00ACC189F0ADC18AF0F8EC0DF074C0AAF164
:10150A0075C0ABF179EF04F0250E146EB4C015F076
:10151A00B5C016F0AAC117F0ABC118F0B6C019F0E1
:10152A00B7C01AF002D8A4EF0AF005000001FA6E5B
:10153A00B251FD6EB351FE6EFF6AFA50120076EF99
:10154A0004F0B8C0F6FF080EF76E0800F5CF14F0E5
:10155A00B4C015F0B5C016F0AAC117F0ABC118F0A7
:10156A00B6C019F0B7C01AF002D8C6EF0AF00500E3
:10157A000001FA6EB251FD6EB351FE6EFF6AFA5067
:10158A00120076EF04F0B8C0F6FF080EF76E0800F6
:10159A00F550250AD8B489EF0AF07D0AD8B4E1EFEC
:1015AA0005F03A0AD8B4E1EF05F0010AD8B493EF8E
:1015BA0008F0070AD8B4E1EF05F00D0AD8B4E1EF54
:1015CA0005F0060AD8B4E1EF05F01F0AD8B43AEFDD
:1015DA000AF0030AD8B437EF09F0060AD8B4E1EFE3
:1015EA0005F00D0AD8B4E1EF05F0A6EF0AF0B8C08D
:1015FA00F6FF080EF76E0800F5500009D8A408EFA8
:10160A000BF00AEF0BF049EF04F0B6510101AA5DA5
:10161A000001B7510101AB59D8A016EF0BF018EF32
:10162A000BF024EF0BF0FF0E0001B6250101906FBD
:10163A00FF0E0001B7210101916F28EF0BF0AAC13B
:10164A0090F1ABC191F1000E146EB4C015F0B5C0A3
:10165A0016F090C117F091C118F0B6C019F0B7C0D2
:10166A001AF002D843EF0BF005000001FA6EB251EE
:10167A00FD6EB351FE6EFF6AFA501200AAC1B2F0B3
:10168A00ABC1B3F01200000172B34EEF0BF050EF92
:10169A000BF0C1EF0BF070517111D8B457EF0BF08A
:1016AA0059EF0BF084EF0BF072A15EEF0BF060EFD5
:1016BA000BF084EF0BF06B51D8A466EF0BF068EFD8
:1016CA000BF077EF0BF00C0E7215306E000E7315DF
:1016DA00316E30503110D8B475EF0BF077EF0BF054
:1016EA0084EF0BF07007D8A0710784EF0BF06851F4
:1016FA006925D96EDA6A300EDF6E694B6A2B6E5134
:10170A00695D6F516A59D8B08DEF0BF08FEF0BF00E
:10171A00A4EF0BF06A5109E1200E695DD8A098EF99
:10172A000BF09AEF0BF07CEF0BF0A4EF0BF0685183
:10173A006925D96EDA6A300EDF6E694B6A2B72A19F
:10174A00A9EF0BF0ABEF0BF0C1EF0BF07051695D35
:10175A0071516A59D8B0B4EF0BF0B6EF0BF0C1EF84
:10176A000BF06A5109E1200E695DD8A0BFEF0BF0BA
:10177A00C1EF0BF09CEF0BF072A9C6EF0BF0C8EFAC
:10178A000BF083EF0CF073B5CDEF0BF0CFEF0BF04E
:10179A0009EF0CF069516A11D8B4D6EF0BF0D8EF03
:1017AA000BF009EF0CF06E51691909E16F516A19D2
:1017BA00D8B4E2EF0BF0E4EF0BF0F0EF0BF070515E
:1017CA00691907E171516A19D8A4EEEF0BF0F0EF2D
:1017DA000BF009EF0CF06907D8A06A0769516A1182
:1017EA00D8B4FAEF0BF0FCEF0BF009EF0CF0100E87
:1017FA006C196D11D8A404EF0CF006EF0CF009EF88
:10180A000CF06907D8A06A07100E6C196D11D8A4DC
:10181A0011EF0CF013EF0CF02FEF0CF072BB18EF76
:10182A000CF01AEF0CF02FEF0CF06A5107E1200EC2
:10183A00695DD8B023EF0CF025EF0CF02FEF0CF018
:10184A0068516925D96EDA6A780EDF6E694B6A2BA0
:10185A0070EF0CF0100E6C196D11D8A437EF0CF064
:10186A0039EF0CF053EF0CF072AB3EEF0CF040EF97
:10187A000CF053EF0CF06A5107E1200E695DD8B005
:10188A0049EF0CF04BEF0CF053EF0CF0685169255F
:10189A00D96EDA6A580EDF6E2BEF0CF0020E6C1955
:1018AA006D11D8A45BEF0CF05DEF0CF070EF0CF04B
:1018BA006A5107E1200E695DD8B066EF0CF068EF57
:1018CA000CF070EF0CF068516925D96EDA6A620E75
:1018DA00DF6E2BEF0CF06A5107E1200E695DD8B07C
:1018EA0079EF0CF07BEF0CF083EF0CF0685169256F
:1018FA00D96EDA6A300EDF6E694B6A2B6A5107E1DC
:10190A00200E695DD8B08CEF0CF08EEF0CF0BEEFB4
:10191A000CF06B51D8B494EF0CF096EF0CF0A0EFEA
:10192A000CF068516925D96EDA6A2D0EDF6E694BA3
:10193A006A2BBEEF0CF072A5A5EF0CF0A7EF0CF026
:10194A00AFEF0CF068516925D96EDA6A2B0EDF6E9B
:10195A009CEF0CF072A7B4EF0CF0B6EF0CF0BEEFF0
:10196A000CF068516925D96EDA6A200EDF6E9CEF99
:10197A000CF060C01BF061C01CF062C01DF063C0B7
:10198A001EF064C01FF065C020F066C021F067C079
:10199A0022F068C023F069C024F06AC025F070C044
:1019AA0026F071C027F072C028F073C029F086ECC7
:1019BA000FF01BC060F01CC061F01200C80E0E6E62
:1019CA008DEC17F0020AD8A4EDEF0CF0EFEF0CF053
:1019DA0029EF0DF00BEF0DF01050D96EDA6A010EF7
:1019EA00D926010EDF6E29EF0DF01050D96EDA6A92
:1019FA00010ED926020EDF6E29EF0DF01050D96EB6
:101A0A00DA6A010ED926DF6A29EF0DF01050D96E75
:101A1A00DA6A010ED926DF50116E126A1250000AD4
:101A2A00D8B41AEF0DF029EF0DF01150000AD8B40E
:101A3A00F1EF0CF0010AD8B4FAEF0CF0030AD8B4AB
:101A4A0003EF0DF029EF0DF0C00E0E6E8DEC17F0BE
:101A5A00020AD8A433EF0DF035EF0DF090EF0DF038
:101A6A001050D96EDA6A010ED926DE04D8A440EFE6
:101A7A000DF042EF0DF05FEF0DF01050D96EDA6AFB
:101A8A00DF50D96EDA6ADF2A1050D96EDA6ADF506F
:101A9A00D96EDA6A180EDE18D8A456EF0DF058EF90
:101AAA000DF05FEF0DF01050D96EDA6ADF50D96E83
:101ABA00DA6ADF6A1050D96EDA6A010ED926020E86
:101ACA00DE18D8A46BEF0DF06DEF0DF090EF0DF06E
:101ADA001050D96EDA6ADF50D96EDA6A010ED92649
:101AEA00DF2A1050D96EDA6ADF50D96EDA6A010E2F
:101AFA00D9263C0EDE18D8A485EF0DF087EF0DF03D
:101B0A0090EF0DF01050D96EDA6ADF50D96EDA6AAA
:101B1A00010ED926DF6A470E0E6E8DEC17F0020A07
:101B2A00D8A49AEF0DF09CEF0DF0F7EF0DF01050DE
:101B3A00D96EDA6A010ED926DE04D8A4A7EF0DF011
:101B4A00A9EF0DF0C6EF0DF01050D96EDA6ADF502A
:101B5A00D96EDA6ADF50D8A4B5EF0DF0B7EF0DF001
:101B6A00BFEF0DF01050D96EDA6ADF50D96EDA6A1B
:101B7A00180EDF6E1050D96EDA6ADF50D96EDA6A43
:101B8A00DF061050D96EDA6A010ED926020EDE1867
:101B9A00D8A4D2EF0DF0D4EF0DF0F7EF0DF01050FE
:101BAA00D96EDA6ADF50D96EDA6A010ED926DF50A9
:101BBA00D8A4E2EF0DF0E4EF0DF0EEEF0DF01050C7
:101BCA00D96EDA6ADF50D96EDA6A010ED9263C0E6E
:101BDA00DF6E1050D96EDA6ADF50D96EDA6A010EFA
:101BEA00D926DF0612000001B16B000EB06F7C51DE
:101BFA007D117E117F11D8A405EF0EF007EF0EF0CC
:101C0A0008EF0EF089998AA50DEF0EF00FEF0EF08E
:101C1A001AEF0EF07C517D117E117F11D8B418EFA6
:101C2A000EF01AEF0EF093EF0EF07CC00EF07DC0AE
:101C3A000FF07EC010F07FC011F081C012F082C098
:101C4A0013F083C014F084C015F0D3EC13F00E50D7
:101C5A000001AF6F090EAF6535EF0EF037EF0EF0EA
:101C6A0054EF0EF089BB3CEF0EF03EEF0EF043EF5F
:101C7A000EF0AE6B610EAD6F46EF0EF0AE6B410E1D
:101C8A00AD6FAF51AD25326E000EAE21336EF60E3A
:101C9A003224AB6FFF0E3320AC6F5AEF0EF0300ECA
:101CAA00AF25AB6FAC6B000EAC23B0518B0FD96E66
:101CBA00DA6AABC0DFFFB04BB12B7CC00EF07DC03F
:101CCA000FF07EC010F07FC011F081C012F082C008
:101CDA0013F083C014F084C015F00FEC12F00EC09C
:101CEA007CF00FC07DF010C07EF011C07FF00001C3
:101CFA007C517D117E117F11D8B486EF0EF088EFEA
:101D0A000EF093EF0EF0B15109E1200EB05DD8A0AC
:101D1A0091EF0EF093EF0EF01AEF0EF074C060F030
:101D2A0075C061F076C062F077C063F078C064F085
:101D3A0079C065F07AC066F07BC067F08B0E686F79
:101D4A00B0C069F0B1C06AF080C06BF081C06CF0BD
:101D5A0082C06DF085C06EF086C06FF087C070F0EB
:101D6A0088C071F089C072F08AC073F048EC0BF039
:101D7A0060C074F061C075F012001550D96EDA6A4D
:101D8A00020ED926DE04D8A4CDEF0EF0CFEF0EF066
:101D9A00E5EF0EF01550D96EDA6ADECF0EF0DDCF20
:101DAA000FF0F6EC15F0E806D8B4DEEF0EF0E1EF2E
:101DBA000EF0010EE2EF0EF0000E186EF9EF0EF0C3
:101DCA001550D96EDA6ADECF0EF0DDCF0FF0F6ECE1
:101DDA0015F0E806D8A4F4EF0EF0F7EF0EF0010EB6
:101DEA00F8EF0EF0000E186E1550D96EDA6A030E6F
:101DFA00D9261850DE18D8A405EF0FF007EF0FF018
:101E0A000FEF0FF01550D96EDA6A050ED926DF6A80
:101E1A0085EF0FF01550D96EDA6A050ED926DF2A3A
:101E2A001550D96EDA6A060ED9261550E16EE26AA5
:101E3A00050EE126DE50E65CD8A026EF0FF028EF6B
:101E4A000FF085EF0FF01550D96EDA6A030ED92616
:101E5A001550E16EE26A040EE126DFCFE7FF155066
:101E6A00D96EDA6A030ED92618C0DFFF1550D96E6B
:101E7A00DA6A040ED926DF50D8A446EF0FF048EFED
:101E8A000FF05EEF0FF01550D96EDA6A030ED926FD
:101E9A00DE04D8A453EF0FF055EF0FF05EEF0FF00A
:101EAA001550D96EDA6A070ED926010EDF6E7FEF5A
:101EBA000FF01550D96EDA6A040ED926DE04D8A4BA
:101ECA0069EF0FF06BEF0FF07FEF0FF01550D96E3F
:101EDA00DA6A030ED926DF50D8A476EF0FF078EF2E
:101EEA000FF07FEF0FF01550D96EDA6A070ED92678
:101EFA00020EDF6E1550D96EDA6A050ED926DF6A30
:101F0A0012001FC02CF020C02DF028B28FEF0FF066
:101F1A0091EF0FF0ECEF0FF028B096EF0FF098EF7B
:101F2A000FF0ECEF0FF024C02EF025C02FF0BCEF1D
:101F3A000FF0200E146E1DC015F01EC016F01FC043
:101F4A0017F020C018F021C019F022C01AF002D8E8
:101F5A00B8EF0FF00500FA6E1B50FD6E1C50FE6EB6
:101F6A00FF6AFA5012001F4A202A2E4A2F2A2650A8
:101F7A002E5C27502F58D8A0C5EF0FF0C7EF0FF0EF
:101F8A009EEF0FF0ECEF0FF02406D8A025062350A1
:101F9A002424D96EDA6ADF50146E1DC015F01EC0F3
:101FAA0016F01FC017F020C018F021C019F022C087
:101FBA001AF002D8EAEF0FF00500FA6E1B50FD6E18
:101FCA001C50FE6EFF6AFA5012001F4A202A245043
:101FDA002510D8A4F3EF0FF0F5EF0FF0C9EF0FF0CB
:101FEA0028A2FAEF0FF0FCEF0FF02BEF10F01AEF28
:101FFA0010F0200E146E1DC015F01EC016F01FC082
:10200A0017F020C018F021C019F022C01AF002D827
:10201A0018EF10F00500FA6E1B50FD6E1C50FE6E94
:10202A00FF6AFA5012001F4A202A2C501F5C2A6E9F
:10203A002D5020582B6E26502A5C27502B58D8A09A
:10204A0029EF10F02BEF10F0FEEF0FF01FC01BF07E
:10205A0020C01CF0120020EE01F01A50D9261B50A5
:10206A00DA22DF50416E216A2150310DF3CF1CF084
:10207A00F4CF1DF020EE03F01A50D9261B50DA22B5
:10208A00DECF1EF0DDCF1FF01C501E240E6E1D5039
:10209A001F200F6E000E106E61EC12F02150310DF0
:1020AA00F3CF1CF0F4CF1DF020EE03F01A50D9261E
:1020BA001B50DA22DECF1EF0DDCF1FF01C501E248B
:1020CA00166E1D501F20176E000E186E27EC16F0A4
:1020DA00212A060E216474EF10F076EF10F039EF22
:1020EA0010F0206A94EF10F020501C0DF3CF1CF072
:1020FA00F4CF1DF020EE05F01A50D9261B50DA2233
:10210A00DECF1EF0DDCF1FF01C501E240E6E1D50B8
:10211A001F200F6E000E106E61EC12F0202A20EEC6
:10212A0002F01A50D9261B50DA22DE50205CD8A0C1
:10213A00A1EF10F0A3EF10F079EF10F01AC0D9FF59
:10214A001BC0DAFFDE04D8A4ADEF10F0AFEF10F039
:10215A00CBEF10F020EE07F01A50D9261B50DA22E6
:10216A00DECF0EF0DDCF0FF0000E106E61EC12F034
:10217A0020EE09F01A50D9261B50DA22DECF0EF0D3
:10218A00DDCF0FF0000E106E61EC12F012004F0E50
:10219A001B6ED00E1C6E56EC16F0D30E0E6E21EC92
:1021AA0017F0D30E166EC3EC15F0B8EC17F00DEC61
:1021BA0018F04D0E1A6E010E1B6E30EC10F009EC81
:1021CA0018F0D00E146E170E156E3B0E166E370EE3
:1021DA00176E85EC16F001EC17F04F0E106EE3EC5B
:1021EA000CF0AAEC17F00009D8B4FEEF10F000EFDB
:1021FA0011F002EF11F0C5EC17F09CEC17F0000992
:10220A00D8B40AEF11F00CEF11F01DEF11F0505095
:10221A00D8A412EF11F014EF11F01DEF11F0D00E47
:10222A000E6E8DEC13F0D00E0001BB6FB1EC16F000
:10223A005004D8A423EF11F025EF11F02AEF11F082
:10224A00580E0101AE6F3DEC17F0020E5018D8A4DB
:10225A0031EF11F033EF11F038EF11F05C0E01019C
:10226A00AE6F3DEC17F03E0E136EF3EC17F000095B
:10227A00D8B442EF11F044EF11F0F0EF10F0410E34
:10228A003E18D8A44BEF11F04DEF11F054EF11F0B6
:10229A00600E0101AE6F3DEC17F0F0EF10F0420E48
:1022AA003E18D8A45BEF11F05DEF11F0F0EF10F0DB
:1022BA00640E0101AE6F3DEC17F0F0EF10F007EF7E
:1022CA0000F0136A0FBE6EEF11F06CEF11F074EFAD
:1022DA0011F00E6C0F1ED8B00F2A010E136E11BE2C
:1022EA007BEF11F079EF11F07FEF11F0106C111EF6
:1022FA00D8B0112A10501110D8B486EF11F088EF17
:10230A0011F0ACEF11F0010E126E90EF11F0D890AF
:10231A0010361136122A11AE95EF11F097EF11F01F
:10232A008CEF11F010500E5C11500F58D8A0A0EF8E
:10233A0011F0A2EF11F0A6EF11F010500E5E11503D
:10234A000F5AD89011321032122E97EF11F0135003
:10235A00D8B4B2EF11F0B4EF11F0B8EF11F00E6C7F
:10236A000F1ED8B00F2A0EC00EF00FC00FF01200C9
:10237A001004D8A4C3EF11F0C5EF11F0E9EF11F082
:10238A0020EE06F00E50D9260F50DA22DF50116ED9
:10239A00010E126E112AD4EF11F0D8901236112EB6
:1023AA00D2EF11F020EE02F00E50D9260F50DA22A9
:1023BA00DECF13F0DDCF14F013C0D9FF14C0DAFF5B
:1023CA001250DF120EEF12F020EE06F00E50D92650
:1023DA000F50DA22DF50116E010E126E112AF8EF39
:1023EA0011F0D8901236112EF6EF11F01250FF0AA2
:1023FA00136E20EE02F00E50D9260F50DA22DECFED
:10240A0014F0DDCF15F014C0D9FF15C0DAFF135050
:10241A00DF161200000E176E000E186E000E196EEF
:10242A00000E1A6E1250131014101510D8B420EFA3
:10243A0012F022EF12F058EF12F0010E166E2CEF86
:10244A0012F0D8901236133614361536162A15AEEF
:10245A0031EF12F033EF12F026EF12F0D890173660
:10246A00183619361A3612500E5C13500F5814507B
:10247A00105815501158D8A045EF12F047EF12F036
:10248A0050EF12F012500E5E13500F5A1450105A99
:10249A001550115A1780D89015321432133212324D
:1024AA00162E33EF12F017C00EF018C00FF019C035
:1024BA0010F01AC011F012001050D8A467EF12F0F1
:1024CA0069EF12F08EEF12F020EE06F00E50D926C8
:1024DA000F50DA22DF50116E010E126E112A78EFB8
:1024EA0012F0D8901236112E76EF12F01250FF0A1F
:1024FA00136E0EC0D9FF0FC0DAFFDECF14F0DDCFA6
:10250A0015F014C0D9FF15C0DAFF1350DF16AEEF6D
:10251A0012F020EE06F00E50D9260F50DA22DF50C4
:10252A00116E010E126E112A9DEF12F0D89012361A
:10253A00112E9BEF12F00EC0D9FF0FC0DAFFDECFCB
:10254A0013F0DDCF14F013C0D9FF14C0DAFF125014
:10255A00DF12120020EE15F00E50D9260F50DA22A3
:10256A0010EE14F00E50E1260F50E222DE50E6186B
:10257A00D8A4C2EF12F0C4EF12F0C7EF12F0000EA7
:10258A00F8EF12F020EE15F00E50D9260F50DA228D
:10259A00DF50116E11500E24D96E000E0F20DA6E24
:1025AA001050E16EE26ADFCFE7FF20EE15F00E5021
:1025BA00D9260F50DA22DF2A20EE15F00E50D9263E
:1025CA000F50DA22140EDE18D8A4EEEF12F0F0EF54
:1025DA0012F0F7EF12F020EE15F00E50D9260F5038
:1025EA00DA22DF6A010E12009EAAFEEF12F000EF55
:1025FA0013F01FEF13F0ABA205EF13F007EF13F080
:10260A000BEF13F0AB98AB8842EF13F0ABA410EFCB
:10261A0013F012EF13F015EF13F0AE5042EF13F070
:10262A00AECF07F0B50E026E010E036E07C004F0BE
:10263A00D7EC14F09EA824EF13F026EF13F042EF24
:10264A0013F09DA82BEF13F02DEF13F042EF13F0C8
:10265A00CB0E026E010E036E080E046E43EC13F0ED
:10266A000009D8B43BEF13F03DEF13F041EF13F03C
:10267A0008C0ADFF42EF13F09D98120020EE15F04E
:10268A000250D9260350DA2210EE14F00250E12645
:10269A000350E222DE50E618D8A456EF13F058EFA2
:1026AA0013F05BEF13F0000E8CEF13F020EE15F031
:1026BA000250D9260350DA22DF50056E0550022453
:1026CA00D96E000E0320DA6E0450E16EE26ADFCFA3
:1026DA00E7FF20EE15F00250D9260350DA22DF2A4E
:1026EA0020EE15F00250D9260350DA22140EDE1815
:1026FA00D8A482EF13F084EF13F08BEF13F020EEDF
:10270A0015F00250D9260350DA22DF6A010E1200B0
:10271A000E50D96EDA6A020ED926DF2A0E50D96E09
:10272A00DA6A020ED9263B0EDF649EEF13F0A0EFA1
:10273A0013F0D2EF13F00E50D96EDA6A020ED926D0
:10274A00DF6A0E50D96EDA6A010ED926DF2A0E50D8
:10275A00D96EDA6A010ED9263B0EDF64B7EF13F0A1
:10276A00B9EF13F0D2EF13F00E50D96EDA6A010EF8
:10277A00D926DF6A0E50D96EDA6ADF2A0E50D96E70
:10278A00DA6A170EDF64CCEF13F0CEEF13F0D2EF54
:10279A0013F00E50D96EDA6ADF6A12001250131063
:1027AA0014101510D8B4DCEF13F0DEEF13F00EEFAF
:1027BA0014F0010E166EE8EF13F0D89012361336A5
:1027CA0014361536162A15AEEDEF13F0EFEF13F0A7
:1027DA00E2EF13F012500E5C13500F5814501058B9
:1027EA0015501158D8A0FCEF13F0FEEF13F006EFC6
:1027FA0014F012500E5E13500F5A1450105A1550FE
:10280A00115AD8901532143213321232162EEFEFB3
:10281A0013F00EC00EF00FC00FF010C010F011C070
:10282A0011F01200950F8C0F830F00950F8C0F83F8
:10283A000F01950F8C0F830F02950F8C0F830F03D7
:10284A00950F8C0F830F04950F8C0F830F05950F2F
:10285A008C0F830F06930F8A0F810F04930F8A0F31
:10286A00810F05930F8A0F810F06930F8A0F810F2D
:10287A0007010004000131017B017401930F8A0FE3
:10288A00810F02930F8A0F810F01940F8B0F820F12
:10289A0006940F8B0F820F07960F8D0F840F0095EA
:1028AA000F8C0F830F070600E1CF0AF0E2CF0BF07F
:1028BA00D9CF0CF0DACF0DF0000E9EBA010E9EB8F9
:1028CA00010EE8B06BEF14F06FEF14F0096A092AF1
:1028DA0070EF14F0096A0950D8B476EF14F078EF63
:1028EA0014F07AEF14F0F9EC12F0F2A47FEF14F07E
:1028FA0081EF14F08FEF14F0F2AA86EF14F088EF4C
:10290A0014F08FEF14F0F294FB0ED76E1E0ED66EF3
:10291A00E9EC17F00DC0DAFF0CC0D9FF0BC0E2FFDB
:10292A000AC0E1FF0192110020EE14F00E50D926E0
:10293A000F50DA22DF50116E1128126E140E12187F
:10294A00D8A4AAEF14F0ACEF14F0ADEF14F0126AA9
:10295A0020EE15F00E50D9260F50DA221250DE184A
:10296A00D8A4BAEF14F0BCEF14F0BEEF14F0D6EF0F
:10297A0014F020EE14F00E50D9260F50DA22DF5050
:10298A00116E11500E24D96E000E0F20DA6E10C08F
:10299A00DFFF20EE14F00E50D9260F50DA2212C0B3
:1029AA00DFFF120020EE14F00250D9260350DA227B
:1029BA00DF50056E0528066E140E0618D8A4E8EF37
:1029CA0014F0EAEF14F0EBEF14F0066A20EE15F0BB
:1029DA000250D9260350DA220650DE18D8A4F8EF9E
:1029EA0014F0FAEF14F0FCEF14F014EF15F020EEE7
:1029FA0014F00250D9260350DA22DF50056E055032
:102A0A000224D96E000E0320DA6E04C0DFFF20EE26
:102A1A0014F00250D9260350DA2206C0DFFF120052
:102A2A00166A000E156E39EF15F00A0E1502F3CF6D
:102A3A0012F0F4CF13F01602F35013261050D96E89
:102A4A00DA6ADFCF14F0010EDF2614C0F6FF080E93
:102A5A00F76E0800F5501226000E1322D00E12242B
:102A6A00156EFF0E1320166E1050D96EDA6ADFCF7C
:102A7A00F6FF080EF76E0800F55054EC17F000093F
:102A8A00D8A44AEF15F04CEF15F01AEF15F015C05F
:102A9A0010F016C011F012002E0EF66E280EF76E08
:102AAA00000EF86E01EE00F010EE82F00900F5CF8C
:102ABA00EEFFE550E150FAE1F80EF66E2F0EF76ED2
:102ACA00000EF86E00EED3F010EE0FF00900F5CF0D
:102ADA00EEFFE550E150FAE101EEB5F02C0EEE6A98
:102AEA00E806FDE100EEBCF0170EEE6AE806FDE12D
:102AFA0000EE3FF0120EEE6AE806FDE10190019247
:102B0A00000EF86E0001CCEF10F01650D96EDA6A9A
:102B1A0017C0DEFF18C0DDFF1650D96EDA6A020E42
:102B2A00D92619C0DFFF1650D96EDA6A030ED926E4
:102B3A00DF6A1650D96EDA6A040ED926DF6A165091
:102B4A00D96EDA6A050ED926DF6A1650D96EDA6AA4
:102B5A00060ED9261AC0DFFF1650D96EDA6A070E9A
:102B6A00D926DF6A1650D96EDA6ADECF0EF0DDCFCB
:102B7A000FF0010E106E61EC12F012001650D96EB1
:102B8A00DA6ADECF0EF0DDCF0FF0010E106E61ECC7
:102B9A0012F01650D96EDA6A020ED926DECF0EF07E
:102BAA00DDCF0FF0010E106E61EC12F0CB0E0E6E3F
:102BBA00010E0F6E7EEC17F0B50E0E6E010E0F6E43
:102BCA007EEC17F0AB8EAC8AAB889E989D989EAA35
:102BDA00F1EF15F0F3EF15F0F4EF15F0AE509D8A12
:102BEA00120020EE04F00E50D9260F50DA22DECF62
:102BFA0010F0DDCF11F010C0D9FF11C0DAFFDF509D
:102C0A00126E20EE06F00E50D9260F50DA22DF504F
:102C1A00136E010E146E132A15EF16F0D89014369F
:102C2A00132E13EF16F0145012140009D8B420EF23
:102C3A0016F022EF16F025EF16F0010E26EF16F029
:102C4A00000E12004104D8A42DEF16F02FEF16F053
:102C5A0046EF16F0010E186E1850D8B437EF16F07A
:102C6A003AEF16F0010E3BEF16F0000E196E16C081
:102C7A000EF017C00FF019C010F0BDEC11F055EFAF
:102C8A0016F0000E186E1850D8B44EEF16F051EF29
:102C9A0016F0010E52EF16F0000E196E3CEF16F008
:102CAA0012001B50D96EDA6A1CC0DFFF1B50D96EA6
:102CBA00DA6A010ED926DF6AC80E166EDB0E176EA7
:102CCA00186A000E196E190E1A6E8AEC15F0C00EEB
:102CDA00166E5F0E176E010E186E000E196E190E23
:102CEA001A6E8AEC15F0470E166E580E176E010E04
:102CFA00186E000E196E190E1A6E8AEC15F0120073
:102D0A001450D96EDA6A15C00EF00F6A116A180EDD
:102D1A00106E66EC11F00E50DF6E1450D96EDA6A3E
:102D2A00010ED92616C00EF00F6A116A3C0E106EFB
:102D3A0066EC11F00E50DF6E1450D96EDA6A020E8C
:102D4A00D92617C00EF00F6A116A3C0E106E66EC97
:102D5A0011F00E50DF6E1200470E0101AE6F000136
:102D6A00BB51D96EDA6ADF503B6E3B500101AF6F3F
:102D7A00B06B0001BB51D96EDA6A010ED926DF5059
:102D8A003C6E3C500101B16FB26B0001BB51D96E70
:102D9A00DA6A020ED926DF503D6E3D500101B36F4B
:102DAA00B46B3DEC17F012000EC012F00FC013F016
:102DBA00E1EF16F0124A132A12C0D9FF13C0DAFF44
:102DCA00DF50D8B4EBEF16F0EDEF16F0FAEF16F08D
:102DDA001006D8A01106102806E11128D8A4F8EF89
:102DEA0016F0FAEF16F0DFEF16F00E50125C0E6EC8
:102DFA000F5013580F6E120018EF17F04606010E07
:102E0A00446E3F4A402AE80E3F5C030E4058D8A061
:102E1A0011EF17F013EF17F018EF17F0406A000ED2
:102E2A003F6E010E456E4650D8A41EEF17F020EFF4
:102E3A0017F003EF17F01200AC9CAB9CAC980E5045
:102E4A00D96EDA6A040ED926800EDE1809E1250E3B
:102E5A00DE18DE10DE10D8A435EF17F037EF17F0C2
:102E6A003CEF17F0AC84B896B06A810EAF6E1200D0
:102E7A00AF0E396E010E3A6EA40E0001B26F2F0E1C
:102E8A00B36F380EB46FB56BFF0EB76FB669AEC1CC
:102E9A00B8F0390EB96FBA6B35EC04F012000F6E48
:102EAA000E6A2F0E0F645CEF17F05EEF17F068EFF3
:102EBA0017F03A0E0F6064EF17F066EF17F068EF3D
:102ECA0017F0010E0E6E0E5012001950175C1A50B0
:102EDA001858D8B073EF17F075EF17F07DEF17F0A9
:102EEA0017501524D96E18501620DA6E14C0DFFF59
:102EFA00120020EE14F00E50D9260F50DA22DF6AA3
:102F0A0020EE15F00E50D9260F50DA22DF6A120091
:102F1A000E50D96EDA6A070ED926DF500F6E0E50A0
:102F2A00D96EDA6A070ED926DF6A0F5012004550A9
:102F3A00D8B4A2EF17F0A4EF17F0A8EF17F0456A7C
:102F4A00010EA9EF17F0000E12004450D8B4B0EFEA
:102F5A0017F0B2EF17F0B6EF17F0446A010EB7EFA9
:102F6A0017F0000E1200D56AD59CD59AD596D55081
:102F7A00F80B0109D56E04EC18F0F294F28A1200EB
:102F8A00C80E156EC2EC0EF0C00E156EC2EC0EF035
:102F9A00470E156EC2EC0EF012001450D8B4D8EFDA
:102FAA0017F0DAEF17F0DDEF17F01450DEEC17F038
:102FBA001200136ECB0E0E6E010E0F6E13C010F0C0
:102FCA0099EC14F09D8812004628D8B4EFEF17F058
:102FDA00F1EF17F0F2EF17F0462A1200B50E0E6E57
:102FEA00010E0F6E13C010F0AFEC12F012006D015B
:0D2FFA00660180250000930F8A0F810F00F3
:10300800FB0ED76E1E0ED66E1200D09EF28CF28E7C
:0A3018001200D58E12001200120003
:020000040030CA
:08000000000C1E1EFF8181FFB0
:00000001FF
