:0400000007EF00F016
:0A000800018270ED06F0C7EF06F06C
:1008000000484920435249530D0A0000170E2F6E2D
:10081000000E306EBDEC04F0100E2F6E010E306E27
:10082000BDEC04F01E0E2F6EECEC06F01E0E366EC4
:100830009CEC06F0F28EF28C170E2F6E000E306ECE
:100840006FEC04F0100E2F6E41EC06F0396E39504B
:10085000D8A42DEF04F02FEF04F03FEF04F0010EC9
:10086000346E08EC07F00D0E386EAF0E376EB60E14
:10087000E82EFED7372EFCD7382EFAD700D03A0E06
:10088000336E45EC07F00009D8B449EF04F04BEFA4
:1008900004F022EF04F0410E3A18D8A452EF04F00D
:1008A00054EF04F05CEF04F0170E2F6E010E306E63
:1008B0006FEC04F022EF04F0420E3A18D8A463EF74
:1008C00004F065EF04F022EF04F0170E2F6E000E17
:1008D000306E6FEC04F022EF04F007EF00F030040C
:1008E000D8A475EF04F077EF04F099EF04F02F50DF
:1008F000D96EDA6A060ED926DF50316E010E326EDD
:10090000312A85EF04F0D8903236312E83EF04F08F
:100910002F50D96EDA6A020ED926DECF33F0DDCF42
:1009200034F033C0D9FF34C0DAFF3250DF12BCEFED
:1009300004F02F50D96EDA6A060ED926DF50316ED8
:10094000010E326E312AA7EF04F0D8903236312EE4
:10095000A5EF04F03250FF0A336E2F50D96EDA6AD9
:10096000020ED926DECF34F0DDCF35F034C0D9FF0A
:1009700035C0DAFF3350DF1612003050D8A4C3EF71
:1009800004F0C5EF04F0E8EF04F02F50D96EDA6AF6
:10099000060ED926DF50316E010E326E312AD3EFAA
:1009A00004F0D8903236312ED1EF04F03250FF0AE5
:1009B000336E2F50D96EDA6ADECF34F0DDCF35F0EA
:1009C00034C0D9FF35C0DAFF3350DF1606EF05F02B
:1009D0002F50D96EDA6A060ED926DF50316E010E1D
:1009E000326E312AF6EF04F0D8903236312EF4EF21
:1009F00004F02F50D96EDA6ADECF33F0DDCF34F059
:100A000033C0D9FF34C0DAFF3250DF1212009EAA81
:100A10000CEF05F00EEF05F02BEF05F0ABA213EF96
:100A200005F015EF05F019EF05F0AB98AB884CEF2A
:100A300005F0ABA41EEF05F020EF05F023EF05F065
:100A4000AE504CEF05F0AECF28F0600E246E28C0FB
:100A500025F009EC06F09EA830EF05F032EF05F026
:100A60004CEF05F09DA837EF05F039EF05F04CEF9E
:100A700005F03B0E246E290E256E8FEC05F0000963
:100A8000D8B445EF05F047EF05F04BEF05F029C06E
:100A9000ADFF4CEF05F09D9812002F50D96EDA6A29
:100AA000150ED9262F50E16EE26A140EE126DE50B3
:100AB000E618D8A45EEF05F060EF05F063EF05F0EF
:100AC000000E8EEF05F02F50D96EDA6A150ED9267A
:100AD000DF50316E2F503124D96EDA6A3050E16E1A
:100AE000E26ADFCFE7FF2F50D96EDA6A150ED926FA
:100AF000DF2A2F50D96EDA6A150ED926140EDE18A9
:100B0000D8A485EF05F087EF05F08DEF05F02F50A5
:100B1000D96EDA6A150ED926DF6A010E120024504A
:100B2000D96EDA6A150ED9262450E16EE26A140EE7
:100B3000E126DE50E618D8A4A0EF05F0A2EF05F0FC
:100B4000A5EF05F0000ED0EF05F02450D96EDA6A5B
:100B5000150ED926DF50266E24502624D96EDA6A67
:100B60002550E16EE26ADFCFE7FF2450D96EDA6AE2
:100B7000150ED926DF2A2450D96EDA6A150ED92629
:100B8000140EDE18D8A4C7EF05F0C9EF05F0CFEFBB
:100B900005F02450D96EDA6A150ED926DF6A010EE7
:100BA00012002F50D96EDA6A140ED926DF50316E3A
:100BB0003128326E140E3218D8A4E1EF05F0E3EFBD
:100BC00005F0E4EF05F0326A2F50D96EDA6A150E9F
:100BD000D9263250DE18D8A4F0EF05F0F2EF05F078
:100BE000F4EF05F008EF06F02F50D96EDA6A140E14
:100BF000D926DF50316E2F503124D96EDA6A30C0D9
:100C0000DFFF2F50D96EDA6A140ED92632C0DFFF0B
:100C100012002450D96EDA6A140ED926DF50266EDF
:100C20002628276E140E2718D8A419EF06F01BEFFC
:100C300006F01CEF06F0276A2450D96EDA6A150E0A
:100C4000D9262750DE18D8A428EF06F02AEF06F0A0
:100C50002CEF06F040EF06F02450D96EDA6A140E3D
:100C6000D926DF50266E24502624D96EDA6A25C094
:100C7000DFFF2450D96EDA6A140ED92627C0DFFFB1
:100C800012002F50D96EDA6A040ED926DECF30F06A
:100C9000DDCF31F030C0D9FF31C0DAFFDF50326E26
:100CA0002F50D96EDA6A060ED926DF50336E010E48
:100CB000346E332A5EEF06F0D8903436332E5CEF74
:100CC00006F0345032140009D8B469EF06F06BEF27
:100CD00006F06EEF06F0010E6FEF06F0000E120048
:100CE0000600E1CF2BF0E2CF2CF0D9CF2DF0DACFF8
:100CF0002EF0000E9EBA010E9EB8010EE8B083EFF2
:100D000006F087EF06F02A6A2A2A88EF06F02A6A98
:100D10002A50D8B48EEF06F090EF06F092EF06F06E
:100D200007EC05F02EC0DAFF2DC0D9FF2CC0E2FF82
:100D30002BC0E1FF019211003650D96EDA6ADF5004
:100D40002F6E010E306EBDEC04F03650D96EDA6AAB
:100D5000010ED926DF502F6E010E306EBDEC04F06F
:100D60003B0E2F6E2FEC07F0600E2F6E2FEC07F06E
:100D7000AB8EAC8AAB889E989D989EAAC2EF06F077
:100D8000C4EF06F0C5EF06F0AE509D8A12003C0E8F
:100D9000F66E0E0EF76E000EF86E00EE02F010EE1C
:100DA00022F00900F5CFEEFFE550E150FAE100EE48
:100DB00060F0160EEE6AE806FDE100EE3BF0160E5E
:100DC000EE6AE806FDE101900192000EF86E080E51
:100DD000F76E000106EF04F0AC9CAB9CAC982F5072
:100DE000D96EDA6A020ED926800EDE1809E1250EC8
:100DF000DE18DE10DE10D8A400EF07F002EF07F0D7
:100E000007EF07F0AC84B896B06A810EAF6E12009F
:100E100011EF07F034C0F6FF0800F5503CEC07F086
:100E2000342A34C0F6FF0800F5500009D8A41BEF9F
:100E300007F01DEF07F00AEF07F01200940F8B0F79
:100E4000820F06940F8B0F820F07930F8A0F810F6B
:100E500000950F8C0F830F000902802500002F5092
:100E6000D96EDA6A140ED926DF6A2F50D96EDA6A83
:100E7000150ED926DF6A1200336E3B0E2F6E33C07B
:100E800030F0D1EC05F09D881200600E2F6E33C05B
:080E900030F04DEC05F01200FA
:020000040030CA
:08000000000C1E1EFF8181FFB0
:00000001FF
