:04000000FEEF3FF0E0
:1008000000002E04D8A407EF04F009EF04F02BEF4A
:1008100004F02D50D96EDA6A060ED926DF502F6EFD
:10082000010E306E2F2A17EF04F0D89030362F2E9D
:1008300015EF04F02D50D96EDA6A020ED926DECFFC
:1008400031F0DDCF32F031C0D9FF32C0DAFF3050A5
:10085000DF124EEF04F02D50D96EDA6A060ED9265B
:10086000DF502F6E010E306E2F2A39EF04F0D89032
:1008700030362F2E37EF04F03050FF0A316E2D50F6
:10088000D96EDA6A020ED926DECF32F0DDCF33F030
:1008900032C0D9FF33C0DAFF3150DF1612002E50BC
:1008A000D8A455EF04F057EF04F07AEF04F02D5080
:1008B000D96EDA6A060ED926DF502F6E010E306E21
:1008C0002F2A65EF04F0D89030362F2E63EF04F016
:1008D0003050FF0A316E2D50D96EDA6ADECF32F019
:1008E000DDCF33F032C0D9FF33C0DAFF3150DF162D
:1008F00098EF04F02D50D96EDA6A060ED926DF5033
:100900002F6E010E306E2F2A88EF04F0D89030360B
:100910002F2E86EF04F02D50D96EDA6ADECF31F03B
:10092000DDCF32F031C0D9FF32C0DAFF3050DF12F4
:100930001200160E2D6E000E2E6E4FEC04F00F0EF0
:100940002D6E010E2E6E4FEC04F01D0E2D6EFEEC82
:1009500004F01D0E346E1AEC05F0F28EF28C0F0EC0
:100960002D6ECFEC04F0356E3504D8A4BAEF04F048
:10097000BCEF04F0C5EF04F0160E2D6E010E2E6EC6
:1009800001EC04F0420E5EEC05F0160E2D6E000E2A
:100990002E6E01EC04F0AFEF04F0FEEF3FF02D50AF
:1009A000D96EDA6A040ED926DECF2EF0DDCF2FF015
:1009B0002EC0D9FF2FC0DAFFDF50306E2D50D96E18
:1009C000DA6A060ED926DF50316E010E326E312AF8
:1009D000ECEF04F0D8903236312EEAEF04F03250CA
:1009E00030140009D8B4F7EF04F0F9EF04F0FCEF8D
:1009F00004F0010EFDEF04F0000E1200AC9CAB9C65
:100A0000AC982D50D96EDA6A020ED926800EDE1807
:100A100009E1250EDE18DE10DE10D8A412EF05F075
:100A200014EF05F019EF05F0AC84B896B06A810EAA
:100A3000AF6E12003450D96EDA6ADF502D6E010E9F
:100A40002E6E4FEC04F03450D96EDA6A010ED926BE
:100A5000DF502D6E010E2E6E4FEC04F0AB8EAC8A83
:100A6000AB889E989D8812009A0EF66E0A0EF76E5D
:100A7000000EF86E00EE01F010EE22F00900F5CF46
:100A8000EEFFE550E150FAE100EE23F00A0EEE6AC7
:100A9000E806FDE1000199EF04F0940F8B0F820F3F
:100AA00006940F8B0F820F07930F8A0F810F00950B
:100AB0000F8C0F830F000801802500002D6E9E50C3
:060AC0002DC0ADFF120085
:047FFC0034EF05F069
:020000040030CA
:08000000000C1E1EFF8181FFB0
:00000001FF
