:0400000007EF00F016
:0A000800018214ED10F08DEF11F0ED
:1008000000435249532025640A0D00000001CF6BBC
:10081000000ECE6FA051A111D8A411EF04F013EF78
:1008200004F04CEF0AF0B00E9E6F240E9F6F4CEF59
:100830000AF0A4C0F6FF080EF76E0800F550250A6E
:10084000D8B425EF04F027EF04F04DEF04F0A4C076
:10085000F6FF080EF76E0800F5CF14F0A0C015F0F3
:10086000A1C016F0CEC017F0CFC018F0A2C019F08A
:10087000A3C01AF002D846EF04F00500FA6E9E51AC
:10088000FD6E9F51FE6EFF6AFA5012000001CE4BC2
:10089000CF2B0001A42B4CEF0AF0A42BD16B000E40
:1008A000D06F6FEF04F0D081A42BBC6B010EBB6F37
:1008B0008BEF04F0D083A42B55EF04F0D085A42B4C
:1008C00055EF04F0D087A42B55EF04F0D089A42B6A
:1008D00055EF04F0BC6B000EBB6F8BEF04F0A4C0AF
:1008E000F6FF080EF76E0800F550200AD8B462EF44
:1008F00004F0030AD8B466EF04F0080AD8B45EEF37
:1009000004F0060AD8B45AEF04F01D0AD8B453EF25
:1009100004F06AEF04F0BB51BC11D8A492EF04F0CC
:1009200094EF04F06FEF04F0CB6B000ECA6FA4C01D
:10093000F6FF080EF76E0800F550CCEC11F0000938
:10094000D8B4A5EF04F0A7EF04F0B1EF04F0A40EC3
:10095000106ECFEC10F010C0CAF011C0CBF0E8EF71
:1009600004F0A4C0F6FF080EF76E0800F5502A0A3E
:10097000D8A4BDEF04F0BFEF04F0E8EF04F0A5C089
:10098000D9FFA6C0DAFF020EDF26DF5CD96EDA6A75
:10099000DECFBDF0DECFBEF00001BEBFD4EF04F06D
:1009A000D2EF04F0E3EF04F0D083BDC048F0BEC046
:1009B00049F0481E491E484A492A48C0CAF049C061
:1009C000CBF0E7EF04F0BDC0CAF0BEC0CBF0A42B63
:1009D0000001CD6B000ECC6FA4C0F6FF080EF76EC1
:1009E0000800F5502E0AD8A4F8EF04F0FAEF04F04E
:1009F0007AEF05F0D185A42BA4C0F6FF080EF76EA0
:100A00000800F550CCEC11F00009D8B40AEF05F05D
:100A10000CEF05F016EF05F0A40E106ECFEC10F001
:100A200010C0CCF011C0CDF07AEF05F0A4C0F6FFF5
:100A3000080EF76E0800F5502A0AD8A422EF05F038
:100A400024EF05F07AEF05F0A5C0D9FFA6C0DAFFC4
:100A5000020EDF26DF5CD96EDA6ADECFB7F0DECFBA
:100A6000B8F00001B8BF3FEF05F0B85106E1B70597
:100A7000D8B03DEF05F03FEF05F044EF05F0CD6B4A
:100A8000000ECC6F48EF05F0B7C0CCF0B8C0CDF089
:100A9000A42B7AEF05F00001D181A42BA4C0F6FFAE
:100AA000080EF76E0800F5506C0AD8A45AEF05F04E
:100AB0005CEF05F018EF0AF0D183A42B18EF0AF0D1
:100AC0000001D08FA42BA4C0F6FF080EF76E08001B
:100AD000F550680AD8A46FEF05F071EF05F018EF34
:100AE0000AF0D08DA42B18EF0AF00001D183A42BBB
:100AF00018EF0AF0A4C0F6FF080EF76E0800F550D4
:100B0000680AD8B460EF05F0020AD8B475EF05F0B2
:100B1000060AD8B44BEF05F0160AD8B475EF05F005
:100B200018EF0AF0A4C0F6FF080EF76E0800F550A3
:100B3000780AD8B49EEF05F0A0EF05F0AEEF05F00F
:100B4000A4C0F6FF080EF76E0800F550580AD8A4A6
:100B5000ACEF05F0AEEF05F0B4EF05F00001C96BA6
:100B6000100EC86FE1EF05F0A4C0F6FF080EF76E97
:100B70000800F5506F0AD8A4C0EF05F0C2EF05F0E9
:100B8000C8EF05F00001C96B080EC86FE1EF05F072
:100B9000A4C0F6FF080EF76E0800F550620AD8A44C
:100BA000D4EF05F0D6EF05F0DCEF05F00001C96BDE
:100BB000020EC86FE1EF05F00001C96B0A0EC86FA5
:100BC000D099A4C0F6FF080EF76E0800F550580A39
:100BD000D8A4EDEF05F0EFEF05F0F0EF05F0D08BC6
:100BE000A4C0F6FF080EF76E0800F550690AD8B4E5
:100BF000FCEF05F0FEEF05F010EF06F0A4C0F6FFE5
:100C0000080EF76E0800F550640AD8B40AEF06F033
:100C10000CEF06F010EF06F0F30ED017FF0ED11711
:100C2000D1A515EF06F017EF06F018EF06F0D091FA
:100C3000A4C0F6FF080EF76E0800F550690AD8B494
:100C400024EF06F026EF06F034EF06F0A4C0F6FF1E
:100C5000080EF76E0800F550640AD8A432EF06F0CB
:100C600034EF06F049EF07F0D1A339EF06F03BEF80
:100C700006F03DEF06F049EF04F0D1A142EF06F097
:100C800044EF06F0B6EF06F0A5C0D9FFA6C0DAFF24
:100C9000040EDF26DF5CD96EDA6ADECFC2F0DECF6B
:100CA000C3F0DECFC4F0DECFC5F0C5BF64EF06F001
:100CB000C551C411C31106E1C205D8B062EF06F0F8
:100CC00064EF06F072EF06F0C2510008A76F000E45
:100CD000C355A86F000EC455A96F000EC555AA6F65
:100CE0007AEF06F0C2C0A7F0C3C0A8F0C4C0A9F054
:100CF000C5C0AAF09EC060F09FC061F0A0C062F0C5
:100D0000A1C063F0CEC064F0CFC065F0A2C066F0B1
:100D1000A3C067F0A7C068F0A8C069F0A9C06AF0D6
:100D2000AAC06BF0C5BF97EF06F09AEF06F0010E70
:100D30009BEF06F0000E6C6FC8C06DF0C9C06EF07E
:100D40006F6B706BCCC071F0CDC072F0CAC073F025
:100D5000CBC074F0D0C075F0D1C076F02AEC0CF0A6
:100D600060C0CEF061C0CFF049EF04F0D0BDBBEF62
:100D700006F0BDEF06F0E6EF06F0D0BFC2EF06F0DA
:100D8000C4EF06F0D3EF06F0A5C0D9FFA6C0DAFF86
:100D9000020EDF26DF5CD96EDA6ADECFABF0DECF83
:100DA000ACF0E0EF06F0A5C0D9FFA6C0DAFF020E56
:100DB000DF26DF5CD96EDA6ADECFABF0DECFACF0D7
:100DC000ABC0C6F0ACC0C7F0F4EF06F0A5C0D9FFC9
:100DD000A6C0DAFFDF50DF2ADF2AD96EDA6ADF50D9
:100DE000486E4850C66FC76BC7BF01EF07F0C751C9
:100DF00006E1C605D8B0FFEF06F001EF07F00BEFF4
:100E000007F0C6510008AD6FC751D8A0E82A000806
:100E1000AE6F0FEF07F0C6C0ADF0C7C0AEF09EC01A
:100E200060F09FC061F0A0C062F0A1C063F0CEC0CE
:100E300064F0CFC065F0A2C066F0A3C067F0ADC09B
:100E400068F0AEC069F06A6B6B6BC7BF2AEF07F042
:100E50002DEF07F0010E2EEF07F0000E6C6FC8C0EB
:100E60006DF0C9C06EF06F6B706BCCC071F0CDC00F
:100E700072F0CAC073F0CBC074F0D0C075F0D1C0AE
:100E800076F02AEC0CF060C0CEF061C0CFF049EFF4
:100E900004F0D1A34EEF07F050EF07F052EF07F048
:100EA00049EF04F0D1A157EF07F059EF07F096EFA3
:100EB00007F09EC060F09FC061F0A0C062F0A1C0CA
:100EC00063F0CEC064F0CFC065F0A2C066F0A3C0EE
:100ED00067F0A5C0D9FFA6C0DAFF040EDF26DF5CED
:100EE000D96EDA6ADECF68F0DECF69F0DECF6AF065
:100EF000DECF6BF0000E6C6FC8C06DF0C9C06EF035
:100F00006F6B706BCCC071F0CDC072F0CAC073F063
:100F1000CBC074F0D0C075F0D1C076F02AEC0CF0E4
:100F200060C0CEF061C0CFF049EF04F0D0BD9BEFC0
:100F300007F09DEF07F0C6EF07F0D0BFA2EF07F074
:100F4000A4EF07F0B3EF07F0A5C0D9FFA6C0DAFF02
:100F5000020EDF26DF5CD96EDA6ADECFB1F0DECFBB
:100F6000B2F0C0EF07F0A5C0D9FFA6C0DAFF020EAD
:100F7000DF26DF5CD96EDA6ADECFB1F0DECFB2F009
:100F8000B1C0AFF0B2C0B0F0D4EF07F0A5C0D9FF48
:100F9000A6C0DAFFDF50DF2ADF2AD96EDA6ADF5017
:100FA000486E4850AF6FB06B9EC060F09FC061F05C
:100FB000A0C062F0A1C063F0CEC064F0CFC065F005
:100FC000A2C066F0A3C067F0AFC068F0B0C069F01F
:100FD0006A6B6B6B000E6C6FC8C06DF0C9C06EF0B1
:100FE0006F6B706BCCC071F0CDC072F0CAC073F083
:100FF000CBC074F0D0C075F0D1C076F02AEC0CF004
:1010000060C0CEF061C0CFF049EF04F00001BA6BD0
:10101000010EB96FD0B30FEF08F011EF08F041EFF8
:1010200008F030EF08F0200E146EA0C015F0A1C03B
:1010300016F0CEC017F0CFC018F0A2C019F0A3C0B0
:101040001AF002D82DEF08F00500FA6E9E51FD6EE1
:101050009F51FE6EFF6AFA5012000001CE4BCF2B5B
:10106000B951486EBA51496EB94BBA2BCA51485C56
:10107000CB514958D8A03FEF08F041EF08F013EFEB
:1010800008F0A5C0D9FFA6C0DAFFDF50DF2ADF2AAB
:10109000D96EDA6ADF50146EA0C015F0A1C016F048
:1010A000CEC017F0CFC018F0A2C019F0A3C01AF03C
:1010B00002D864EF08F00500FA6E9E51FD6E9F5154
:1010C000FE6EFF6AFA5012000001CE4BCF2BD0A368
:1010D0006CEF08F06EEF08F049EF04F08DEF08F0C8
:1010E000200E146EA0C015F0A1C016F0CEC017F0EF
:1010F000CFC018F0A2C019F0A3C01AF002D88AEF2E
:1011000008F00500FA6E9E51FD6E9F51FE6EFF6A5B
:10111000FA5012000001CE4BCF2BB951486EBA5194
:10112000496EB94BBA2BCA51485CCB514958D8A02B
:101130009CEF08F09EEF08F070EF08F049EF04F024
:10114000A5C0D9FFA6C0DAFF020EDF26DF5CD96E8C
:10115000DA6ADECFC1F00001CC51CD11D8A4B3EFD3
:1011600008F0B5EF08F0B9EF08F0B369B469BDEF66
:1011700008F0CCC0B3F0CDC0B4F0C1C00EF0B3C025
:101180000FF0B4C010F069EC11F00EC0BFF00FC04A
:10119000C0F00001D1A5CFEF08F0D1EF08F0E0EFEB
:1011A00008F0CC51BF5DCD51C059D8A0DAEF08F09E
:1011B000DCEF08F0E0EF08F0CCC0BFF0CDC0C0F02D
:1011C000D0B3E5EF08F0E7EF08F03AEF09F006EFEB
:1011D00009F0200E146EA0C015F0A1C016F0CEC00C
:1011E00017F0CFC018F0A2C019F0A3C01AF002D8AF
:1011F00003EF09F00500FA6E9E51FD6E9F51FE6EE1
:10120000FF6AFA5012000001CE4BCF2BBF51486E3F
:10121000C051496EBF4BC02BCA51485CCB51495895
:10122000D8A015EF09F017EF09F0E9EF08F03AEF51
:1012300009F0C151D96EDA6ADF50146EA0C015F002
:10124000A1C016F0CEC017F0CFC018F0A2C019F0A0
:10125000A3C01AF002D836EF09F00500FA6E9E51CD
:10126000FD6E9F51FE6EFF6AFA5012000001CE4BD8
:10127000CF2BC12BC151D96EDA6ADF50D8B443EFFE
:1012800009F045EF09F059EF09F0D1A54AEF09F04F
:101290004CEF09F019EF09F0CC07D8A0CD07CC2905
:1012A00006E1CD29D8A457EF09F059EF09F019EF5D
:1012B00009F0D0A35EEF09F060EF09F049EF04F008
:1012C0007FEF09F0200E146EA0C015F0A1C016F03B
:1012D000CEC017F0CFC018F0A2C019F0A3C01AF00A
:1012E00002D87CEF09F00500FA6E9E51FD6E9F5109
:1012F000FE6EFF6AFA5012000001CE4BCF2BBF5199
:10130000486EC051496EBF4BC02BCA51485CCB518F
:101310004958D8A08EEF09F090EF09F062EF09F07C
:1013200049EF04F00001CB6B040ECA6F210ED013FD
:101330009EC060F09FC061F0A0C062F0A1C063F0E9
:10134000CEC064F0CFC065F0A2C066F0A3C067F065
:10135000A5C0D9FFA6C0DAFFDF50DF2ADF2AD96E89
:10136000DA6ADECF48F0DDCF49F048C068F049C006
:1013700069F06A6B6B6B000E6C6F100E6D6F000E78
:101380006E6F000E6F6F000E706FCCC071F0CDC02D
:1013900072F0CAC073F0CBC074F0D0C075F0D1C089
:1013A00076F02AEC0CF060C0CEF061C0CFF049EFCF
:1013B00004F0250E146EA0C015F0A1C016F0CEC02A
:1013C00017F0CFC018F0A2C019F0A3C01AF002D8CD
:1013D000F4EF09F005000001FA6E9E51FD6E9F5179
:1013E000FE6EFF6AFA50120046EF04F0A4C0F6FF4A
:1013F000080EF76E0800F5CF14F0A0C015F0A1C0DC
:1014000016F0CEC017F0CFC018F0A2C019F0A3C0DC
:101410001AF002D816EF0AF005000001FA6E9E518C
:10142000FD6E9F51FE6EFF6AFA50120046EF04F007
:10143000A4C0F6FF080EF76E0800F550250AD8B4D0
:10144000D9EF09F07D0AD8B492EF05F03A0AD8B482
:1014500092EF05F0010AD8B406EF08F0070AD8B4F5
:1014600092EF05F00D0AD8B492EF05F0060AD8B451
:1014700092EF05F01F0AD8B492EF09F0030AD8B42E
:10148000A0EF08F0060AD8B492EF05F00D0AD8B420
:1014900092EF05F0F6EF09F0A4C0F6FF080EF76E24
:1014A0000800F5500009D8A458EF0AF05AEF0AF0E6
:1014B00019EF04F0A251CE5DA351CF59D8A063EF2C
:1014C0000AF065EF0AF06DEF0AF0FF0EA225B56F86
:1014D000FF0EA321B66F71EF0AF0CEC0B5F0CFC0FA
:1014E000B6F0000E146EA0C015F0A1C016F0B5C085
:1014F00017F0B6C018F0A2C019F0A3C01AF002D8B5
:101500008BEF0AF00500FA6E9E51FD6E9F51FE6E44
:10151000FF6AFA501200CEC09EF0CFC09FF01200BA
:1015200042B295EF0AF097EF0AF008EF0BF0405047
:101530004110D8B49EEF0AF0A0EF0AF0CBEF0AF00A
:1015400042A0A5EF0AF0A7EF0AF0CBEF0AF03B505C
:10155000D8A4ADEF0AF0AFEF0AF0BEEF0AF00C0E20
:101560004214446E000E4314456E44504510D8B4E6
:10157000BCEF0AF0BEEF0AF0CBEF0AF04006D8A0AD
:101580004106CBEF0AF038503924D96EDA6A300EB2
:10159000DF6E394A3A2A3E50395C3F503A58D8B04B
:1015A000D4EF0AF0D6EF0AF0EBEF0AF03A5009E177
:1015B000200E395CD8A0DFEF0AF0E1EF0AF0C3EFAC
:1015C0000AF0EBEF0AF038503924D96EDA6A300E9F
:1015D000DF6E394A3A2A42A0F0EF0AF0F2EF0AF041
:1015E00008EF0BF04050395C41503A58D8B0FBEF4F
:1015F0000AF0FDEF0AF008EF0BF03A5009E1200E77
:10160000395CD8A006EF0BF008EF0BF0E3EF0AF01F
:1016100042A80DEF0BF00FEF0BF0CAEF0BF043B445
:1016200014EF0BF016EF0BF050EF0BF039503A10AF
:10163000D8B41DEF0BF01FEF0BF050EF0BF03E5046
:10164000391809E13F503A18D8B429EF0BF02BEFC5
:101650000BF037EF0BF04050391807E141503A18C2
:10166000D8A435EF0BF037EF0BF050EF0BF0390645
:10167000D8A03A0639503A10D8B441EF0BF043EFF6
:101680000BF050EF0BF0100E3C183D10D8A44BEFB0
:101690000BF04DEF0BF050EF0BF03906D8A03A06E7
:1016A000100E3C183D10D8A458EF0BF05AEF0BF079
:1016B00076EF0BF042BA5FEF0BF061EF0BF076EFD5
:1016C0000BF03A5007E1200E395CD8B06AEF0BF00E
:1016D0006CEF0BF076EF0BF038503924D96EDA6AE4
:1016E000780EDF6E394A3A2AB7EF0BF0100E3C182D
:1016F0003D10D8A47EEF0BF080EF0BF09AEF0BF0CB
:1017000042AA85EF0BF087EF0BF09AEF0BF03A50FF
:1017100007E1200E395CD8B090EF0BF092EF0BF0A0
:101720009AEF0BF038503924D96EDA6A580EDF6E12
:1017300072EF0BF0020E3C183D10D8A4A2EF0BF094
:10174000A4EF0BF0B7EF0BF03A5007E1200E395C35
:10175000D8B0ADEF0BF0AFEF0BF0B7EF0BF03850A8
:101760003924D96EDA6A620EDF6E72EF0BF03A50EE
:1017700007E1200E395CD8B0C0EF0BF0C2EF0BF0E0
:10178000CAEF0BF038503924D96EDA6A300EDF6EAA
:10179000394A3A2A3A5007E1200E395CD8B0D3EFE3
:1017A0000BF0D5EF0BF005EF0CF03B50D8B4DBEFAE
:1017B0000BF0DDEF0BF0E7EF0BF038503924D96E6A
:1017C000DA6A2D0EDF6E394A3A2A05EF0CF042A490
:1017D000ECEF0BF0EEEF0BF0F6EF0BF03850392496
:1017E000D96EDA6A2B0EDF6EE3EF0BF042A6FBEF49
:1017F0000BF0FDEF0BF005EF0CF038503924D96EEB
:10180000DA6A200EDF6EE3EF0BF030C01BF031C060
:101810001CF032C01DF033C01EF034C01FF035C0C4
:1018200020F036C021F037C022F038C023F039C094
:1018300024F03AC025F040C026F041C027F042C055
:1018400028F043C029F0F4EC0CF01BC030F01CC0B1
:1018500031F0120000019D6B000E9C6F6851691100
:101860006A116B11D8A437EF0CF039EF0CF03AEF96
:101870000CF0759976A53FEF0CF041EF0CF04CEFB2
:101880000CF0685169116A116B11D8B44AEF0CF071
:101890004CEF0CF0C5EF0CF068C00EF069C00FF013
:1018A0006AC010F06BC011F06DC012F06EC013F082
:1018B0006FC014F070C015F0D0EC0FF00E500001A6
:1018C0009B6F090E9B6567EF0CF069EF0CF086EFDC
:1018D0000CF075BB6EEF0CF070EF0CF075EF0CF0C8
:1018E0009A6B610E996F78EF0CF09A6B410E996FBD
:1018F0009B519925466E000E9A21476EF60E46249E
:10190000976FFF0E4720986F8CEF0CF0300E9B25E1
:10191000976F986B000E98239C51770FD96EDA6AF7
:1019200097C0DFFF9C4B9D2B68C00EF069C00FF085
:101930006AC010F06BC011F06DC012F06EC013F0F1
:101940006FC014F070C015F008EC0EF00EC068F017
:101950000FC069F010C06AF011C06BF0000168514F
:1019600069116A116B11D8B4B8EF0CF0BAEF0CF032
:10197000C5EF0CF09D5109E1200E9C5DD8A0C3EF8E
:101980000CF0C5EF0CF04CEF0CF060C030F061C013
:1019900031F062C032F063C033F064C034F065C02F
:1019A00035F066C036F067C037F0770E386E9CC0F1
:1019B00039F09DC03AF06CC03BF06DC03CF06EC099
:1019C0003DF071C03EF072C03FF073C040F074C093
:1019D00041F075C042F076C043F090EC0AF030C0A0
:1019E00060F031C061F012001FC02CF020C02DF05B
:1019F00028B2FDEF0CF0FFEF0CF05AEF0DF028B01D
:101A000004EF0DF006EF0DF05AEF0DF024C02EF0AC
:101A100025C02FF02AEF0DF0200E146E1DC015F01A
:101A20001EC016F01FC017F020C018F021C019F01A
:101A300022C01AF002D826EF0DF00500FA6E1B50F6
:101A4000FD6E1C50FE6EFF6AFA5012001F4A202ADB
:101A50002E4A2F2A26502E5C27502F58D8A033EF1D
:101A60000DF035EF0DF00CEF0DF05AEF0DF02406F0
:101A7000D8A0250623502424D96EDA6ADF50146ECC
:101A80001DC015F01EC016F01FC017F020C018F0C2
:101A900021C019F022C01AF002D858EF0DF005004D
:101AA000FA6E1B50FD6E1C50FE6EFF6AFA5012005B
:101AB0001F4A202A24502510D8A461EF0DF063EFAF
:101AC0000DF037EF0DF028A268EF0DF06AEF0DF082
:101AD00099EF0DF088EF0DF0200E146E1DC015F07B
:101AE0001EC016F01FC017F020C018F021C019F05A
:101AF00022C01AF002D886EF0DF00500FA6E1B50D6
:101B0000FD6E1C50FE6EFF6AFA5012001F4A202A1A
:101B10002C501F5C2A6E2D5020582B6E26502A5CAC
:101B200027502B58D8A097EF0DF099EF0DF06CEFE0
:101B30000DF01FC01BF020C01CF01200EE0E0E6E48
:101B4000000E0F6EA8EC0EF0E70E0E6E010E0F6E7B
:101B5000A8EC0EF0F50E0E6EB0EC11F0F50E156E51
:101B60000BEC11F050EC12F0EE0E0E6E000E0F6E3C
:101B70005AEC0EF0E70E0E6E3AEC11F00001D76F42
:101B8000D751D8A4C6EF0DF0C8EF0DF0DDEF0DF082
:101B9000010ED26F070ED46FEA0ED36FE2EC11F094
:101BA0000D0E0001D66FAF0ED56FB60EE82EFED724
:101BB000D52FFCD7D62FFAD70000D80E136E42ECE3
:101BC00012F00009D8B4E7EF0DF0E9EF0DF0BAEF2D
:101BD0000DF0410E0001D819D8A4F1EF0DF0F3EF8C
:101BE0000DF0FBEF0DF0EE0E0E6E010E0F6E5AECC7
:101BF0000EF0BAEF0DF0420ED819D8A402EF0EF095
:101C000004EF0EF0BAEF0DF0B4EF0DF007EF00F0B7
:101C1000000E166E000E176E000E186E000E196E76
:101C20001250131014101510D8B419EF0EF01BEF4A
:101C30000EF051EF0EF0010E1A6E25EF0EF0D89057
:101C400012361336143615361A2A15AE2AEF0EF050
:101C50002CEF0EF01FEF0EF0D89016361736183610
:101C6000193612500E5C13500F581450105815505E
:101C70001158D8A03EEF0EF040EF0EF049EF0EF0F5
:101C800012500E5E13500F5A1450105A1550115A1C
:101C90001680D89015321432133212321A2E2CEFCD
:101CA0000EF016C00EF017C00FF018C010F019C0DB
:101CB00011F012000F04D8A460EF0EF062EF0EF0E6
:101CC00084EF0EF00E50D96EDA6A060ED926DF5078
:101CD000106E010E116E102A70EF0EF0D8901136B2
:101CE000102E6EEF0EF00E50D96EDA6A020ED92663
:101CF000DECF12F0DDCF13F012C0D9FF13C0DAFF30
:101D00001150DF12A7EF0EF00E50D96EDA6A060EF0
:101D1000D926DF50106E010E116E102A92EF0EF0D0
:101D2000D8901136102E90EF0EF01150FF0A126E5F
:101D30000E50D96EDA6A020ED926DECF13F0DDCF4F
:101D400014F013C0D9FF14C0DAFF1250DF161200CE
:101D50000F50D8A4AEEF0EF0B0EF0EF0D3EF0EF0B0
:101D60000E50D96EDA6A060ED926DF50106E010EBB
:101D7000116E102ABEEF0EF0D8901136102EBCEF67
:101D80000EF01150FF0A126E0E50D96EDA6ADECFD5
:101D900013F0DDCF14F013C0D9FF14C0DAFF1250D6
:101DA000DF16F1EF0EF00E50D96EDA6A060ED92664
:101DB000DF50106E010E116E102AE1EF0EF0D89078
:101DC0001136102EDFEF0EF00E50D96EDA6ADECF2C
:101DD00012F0DDCF13F012C0D9FF13C0DAFF11509B
:101DE000DF12120020EE15F00E50D9260F50DA2225
:101DF00010EE14F00E50E1260F50E222DE50E618ED
:101E0000D8A405EF0FF007EF0FF00AEF0FF0000E68
:101E10003BEF0FF020EE15F00E50D9260F50DA22CE
:101E2000DF50116E11500E24D96E000E0F20DA6EA5
:101E30001050E16EE26ADFCFE7FF20EE15F00E50A2
:101E4000D9260F50DA22DF2A20EE15F00E50D926BF
:101E50000F50DA22140EDE18D8A431EF0FF033EF52
:101E60000FF03AEF0FF020EE15F00E50D9260F507C
:101E7000DA22DF6A010E12009EAA41EF0FF043EF53
:101E80000FF062EF0FF0ABA248EF0FF04AEF0FF048
:101E90004EEF0FF0AB98AB8885EF0FF0ABA453EF8C
:101EA0000FF055EF0FF058EF0FF0AE5085EF0FF039
:101EB000AECF07F0000E026E010E036E07C004F0F5
:101EC00091EC10F09EA867EF0FF069EF0FF085EF2F
:101ED0000FF09DA86EEF0FF070EF0FF085EF0FF091
:101EE000160E026E010E036E080E046E86EC0FF0E5
:101EF0000009D8B47EEF0FF080EF0FF084EF0FF001
:101F000008C0ADFF85EF0FF09D98120020EE15F090
:101F10000250D9260350DA2210EE14F00250E126C6
:101F20000350E222DE50E618D8A499EF0FF09BEFA1
:101F30000FF09EEF0FF0000ECFEF0FF020EE15F038
:101F40000250D9260350DA22DF50056E05500224D4
:101F5000D96E000E0320DA6E0450E16EE26ADFCF24
:101F6000E7FF20EE15F00250D9260350DA22DF2ACF
:101F700020EE15F00250D9260350DA22140EDE1896
:101F8000D8A4C5EF0FF0C7EF0FF0CEEF0FF020EEA3
:101F900015F00250D9260350DA22DF6A010E120032
:101FA0001250131014101510D8B4D9EF0FF0DBEF46
:101FB0000FF00BEF10F0010E166EE5EF0FF0D8905A
:101FC0001236133614361536162A15AEEAEF0FF010
:101FD000ECEF0FF0DFEF0FF012500E5C13500F58C4
:101FE0001450105815501158D8A0F9EF0FF0FBEF0E
:101FF0000FF003EF10F012500E5E13500F5A1450F2
:10200000105A1550115AD890153214321332123218
:10201000162EECEF0FF00EC00EF00FC00FF010C038
:1020200010F011C011F012000600E1CF0AF0E2CF6B
:102030000BF0D9CF0CF0DACF0DF0000E9EBA010EE6
:102040009EB8010EE8B027EF10F02BEF10F0096AF0
:10205000092A2CEF10F0096A0950D8B432EF10F0B9
:1020600034EF10F036EF10F03CEC0FF0F2A43BEF41
:1020700010F03DEF10F049EF10F0F2AA42EF10F02F
:1020800044EF10F049EF10F04BEC12F0F29454ECE6
:1020900012F00DC0DAFF0CC0D9FF0BC0E2FF0AC07E
:1020A000E1FF0192110020EE14F00E50D9260F50DE
:1020B000DA22DF50116E1128126E140E1218D8A4F5
:1020C00064EF10F066EF10F067EF10F0126A20EE88
:1020D00015F00E50D9260F50DA221250DE18D8A46F
:1020E00074EF10F076EF10F078EF10F090EF10F042
:1020F00020EE14F00E50D9260F50DA22DF50116E68
:1021000011500E24D96E000E0F20DA6E10C0DFFFC2
:1021100020EE14F00E50D9260F50DA2212C0DFFF45
:10212000120020EE14F00250D9260350DA22DF50BC
:10213000056E0528066E140E0618D8A4A2EF10F03E
:10214000A4EF10F0A5EF10F0066A20EE15F0025093
:10215000D9260350DA220650DE18D8A4B2EF10F0C8
:10216000B4EF10F0B6EF10F0CEEF10F020EE14F058
:102170000250D9260350DA22DF50056E05500224A2
:10218000D96E000E0320DA6E04C0DFFF20EE14F0DB
:102190000250D9260350DA2206C0DFFF1200166A69
:1021A000000E156EF3EF10F00A0E1502F3CF12F0C9
:1021B000F4CF13F01602F35013261050D96EDA6ADA
:1021C000DFCF14F0010EDF2614C0F6FF080EF76E05
:1021D0000800F5501226000E1322D00E1224156EA0
:1021E000FF0E1320166E1050D96EDA6ADFCFF6FF9D
:1021F000080EF76E0800F550CCEC11F00009D8A4D9
:1022000004EF11F006EF11F0D4EF10F015C010F04C
:1022100016C011F012001550D96EDA6ADF500E6E3A
:10222000010E0F6EA8EC0EF01550D96EDA6A010E91
:10223000D926DF500E6E010E0F6EA8EC0EF0160EB2
:102240000E6E010E0F6E1CEC12F0000E0E6E010EE3
:102250000F6E1CEC12F0AB8EAC8AAB889E989D98EA
:102260009EAA35EF11F037EF11F038EF11F0AE50B4
:102270009D8A12000E50D96EDA6A040ED926DECF7E
:102280000FF0DDCF10F00FC0D9FF10C0DAFFDF5024
:10229000116E0E50D96EDA6A060ED926DF50126E14
:1022A000010E136E122A57EF11F0D8901336122E2A
:1022B00055EF11F0135011140009D8B462EF11F06A
:1022C00064EF11F067EF11F0010E68EF11F0000EEE
:1022D00012000EC011F06EEF11F0112A1150D96EDC
:1022E000DA6ADF50D8B477EF11F079EF11F086EFAA
:1022F00011F00F06D8A010060F2806E11028D8A468
:1023000084EF11F086EF11F06DEF11F00E50115CBB
:102310000E6E0F6A0EBE0F061200160EF66E240E1B
:10232000F76E000EF86E00EED9F010EE22F0090004
:10233000F5CFEEFFE550E150FAE101EE00F02C0E92
:10234000EE6AE806FDE100EE4CF0080EEE6AE806E3
:10235000FDE101900192000EF86E00019EEF0DF07C
:10236000AC9CAB9CAC980E50D96EDA6A020ED926A2
:10237000800EDE1809E1250EDE18DE10DE10D8A46E
:10238000C4EF11F0C6EF11F0CBEF11F0AC84B896AA
:10239000B06A810EAF6E12000F6E0E6A2F0E0F64C0
:1023A000D4EF11F0D6EF11F0E0EF11F03A0E0F601C
:1023B000DCEF11F0DEEF11F0E0EF11F0010E0E6E28
:1023C0000E501200D30E4B6E560E00019E6F240E5F
:1023D0009F6F4A0EA06FA16BFF0EA36FA269D2C0C0
:1023E000A4F04B0EA56FA66B06EC04F0120019507A
:1023F000175C1A501858D8B000EF12F002EF12F024
:102400000AEF12F017501524D96E18501620DA6E04
:1024100014C0DFFF1200940F8B0F820F06940F8BF6
:102420000F820F07930F8A0F810F00950F8C0F8378
:102430000F00E0D98025000020EE14F00E50D926C0
:102440000F50DA22DF6A20EE15F00E50D9260F5019
:10245000DA22DF6A12001450D8B431EF12F033EFF1
:1024600012F036EF12F0145037EC12F01200136E27
:10247000160E0E6E010E0F6E13C010F053EC10F01E
:102480009D881200000E0E6E010E0F6E13C010F02C
:10249000F2EC0EF01200FB0ED76E1E0ED66E12007E
:1024A000D09EF28CF28E1200524A532A1200120071
:0224B000120018
:020000040030CA
:08000000000C1E1EFF8181FFB0
:00000001FF
