:0400000007EF00F016
:0A0008000182ADED11F0A4EF12F03B
:1008000000253032753A253032753A253032750D73
:0D0810000A00435249532025640A0D0000E0
:10081E000001CF6B000ECE6FA051A111D8A41AEF1C
:10082E0004F01CEF04F055EF0AF0E00E9E6F290E57
:10083E009F6F55EF0AF0A4C0F6FF080EF76E080082
:10084E00F550250AD8B42EEF04F030EF04F056EF31
:10085E0004F0A4C0F6FF080EF76E0800F5CF15F0F1
:10086E00A0C016F0A1C017F0CEC018F0CFC019F07E
:10087E00A2C01AF0A3C01BF002D84FEF04F005007F
:10088E00FA6E9E51FD6E9F51FE6EFF6AFA50120077
:10089E000001CE4BCF2B0001A42B55EF0AF0A42B59
:1008AE00D16B000ED06F78EF04F0D081A42BBC6B0F
:1008BE00010EBB6F94EF04F0D083A42B5EEF04F017
:1008CE00D085A42B5EEF04F0D087A42B5EEF04F04E
:1008DE00D089A42B5EEF04F0BC6B000EBB6F94EFBF
:1008EE0004F0A4C0F6FF080EF76E0800F550200ABB
:1008FE00D8B46BEF04F0030AD8B46FEF04F0080A13
:10090E00D8B467EF04F0060AD8B463EF04F01D0AFA
:10091E00D8B45CEF04F073EF04F0BB51BC11D8A453
:10092E009BEF04F09DEF04F078EF04F0CB6B000E1C
:10093E00CA6FA4C0F6FF080EF76E0800F55024EC3F
:10094E0014F00009D8B4AEEF04F0B0EF04F0BAEF33
:10095E0004F0A40E116E68EC12F011C0CAF012C0B1
:10096E00CBF0F1EF04F0A4C0F6FF080EF76E08000E
:10097E00F5502A0AD8A4C6EF04F0C8EF04F0F1EF40
:10098E0004F0A5C0D9FFA6C0DAFF020EDF26DF5C99
:10099E00D96EDA6ADECFBDF0DECFBEF00001BEBF8B
:1009AE00DDEF04F0DBEF04F0ECEF04F0D083BDC01C
:1009BE0049F0BEC04AF0491E4A1E494A4A2A49C059
:1009CE00CAF04AC0CBF0F0EF04F0BDC0CAF0BEC012
:1009DE00CBF0A42B0001CD6B000ECC6FA4C0F6FFA4
:1009EE00080EF76E0800F5502E0AD8A401EF05F098
:1009FE0003EF05F083EF05F0D185A42BA4C0F6FF1D
:100A0E00080EF76E0800F55024EC14F00009D8B467
:100A1E0013EF05F015EF05F01FEF05F0A40E116EA4
:100A2E0068EC12F011C0CCF012C0CDF083EF05F0DF
:100A3E00A4C0F6FF080EF76E0800F5502A0AD8A4D7
:100A4E002BEF05F02DEF05F083EF05F0A5C0D9FFD4
:100A5E00A6C0DAFF020EDF26DF5CD96EDA6ADECFC1
:100A6E00B7F0DECFB8F00001B8BF48EF05F0B851CF
:100A7E0006E1B705D8B046EF05F048EF05F04DEFAB
:100A8E0005F0CD6B000ECC6F51EF05F0B7C0CCF07A
:100A9E00B8C0CDF0A42B83EF05F00001D181A42BBB
:100AAE00A4C0F6FF080EF76E0800F5506C0AD8A425
:100ABE0063EF05F065EF05F021EF0AF0D183A42B6B
:100ACE0021EF0AF00001D08FA42BA4C0F6FF080E70
:100ADE00F76E0800F550680AD8A478EF05F07AEFA3
:100AEE0005F021EF0AF0D08DA42B21EF0AF00001C2
:100AFE00D183A42B21EF0AF0A4C0F6FF080EF76EE7
:100B0E000800F550680AD8B469EF05F0020AD8B4A7
:100B1E007EEF05F0060AD8B454EF05F0160AD8B4E5
:100B2E007EEF05F021EF0AF0A4C0F6FF080EF76E77
:100B3E000800F550780AD8B4A7EF05F0A9EF05F034
:100B4E00B7EF05F0A4C0F6FF080EF76E0800F550DB
:100B5E00580AD8A4B5EF05F0B7EF05F0BDEF05F0D4
:100B6E000001C96B100EC86FEAEF05F0A4C0F6FFC6
:100B7E00080EF76E0800F5506F0AD8A4C9EF05F0FD
:100B8E00CBEF05F0D1EF05F00001C96B080EC86F71
:100B9E00EAEF05F0A4C0F6FF080EF76E0800F55058
:100BAE00620AD8A4DDEF05F0DFEF05F0E5EF05F002
:100BBE000001C96B020EC86FEAEF05F00001C96BA8
:100BCE000A0EC86FD099A4C0F6FF080EF76E080083
:100BDE00F550580AD8A4F6EF05F0F8EF05F0F9EF46
:100BEE0005F0D08BA4C0F6FF080EF76E0800F55086
:100BFE00690AD8B405EF06F007EF06F019EF06F014
:100C0E00A4C0F6FF080EF76E0800F550640AD8B4BB
:100C1E0013EF06F015EF06F019EF06F0F30ED017EE
:100C2E00FF0ED117D1A51EEF06F020EF06F021EF33
:100C3E0006F0D091A4C0F6FF080EF76E0800F5502E
:100C4E00690AD8B42DEF06F02FEF06F03DEF06F04F
:100C5E00A4C0F6FF080EF76E0800F550640AD8A47B
:100C6E003BEF06F03DEF06F052EF07F0D1A342EF57
:100C7E0006F044EF06F046EF06F052EF04F0D1A175
:100C8E004BEF06F04DEF06F0BFEF06F0A5C0D9FF13
:100C9E00A6C0DAFF040EDF26DF5CD96EDA6ADECF7D
:100CAE00C2F0DECFC3F0DECFC4F0DECFC5F0C5BFDD
:100CBE006DEF06F0C551C411C31106E1C205D8B0DF
:100CCE006BEF06F06DEF06F07BEF06F0C2510008F9
:100CDE00A76F000EC355A86F000EC455A96F000E66
:100CEE00C555AA6F83EF06F0C2C0A7F0C3C0A8F027
:100CFE00C4C0A9F0C5C0AAF09EC060F09FC061F04C
:100D0E00A0C062F0A1C063F0CEC064F0CFC065F0A9
:100D1E00A2C066F0A3C067F0A7C068F0A8C069F0D3
:100D2E00A9C06AF0AAC06BF0C5BFA0EF06F0A3EF92
:100D3E0006F0010EA4EF06F0000E6C6FC8C06DF049
:100D4E00C9C06EF06F6B706BCCC071F0CDC072F01D
:100D5E00CAC073F0CBC074F0D0C075F0D1C076F0BD
:100D6E0033EC0CF060C0CEF061C0CFF052EF04F067
:100D7E00D0BDC4EF06F0C6EF06F0EFEF06F0D0BF21
:100D8E00CBEF06F0CDEF06F0DCEF06F0A5C0D9FFF5
:100D9E00A6C0DAFF020EDF26DF5CD96EDA6ADECF7E
:100DAE00ABF0DECFACF0E9EF06F0A5C0D9FFA6C0E0
:100DBE00DAFF020EDF26DF5CD96EDA6ADECFABF029
:100DCE00DECFACF0ABC0C6F0ACC0C7F0FDEF06F0A6
:100DDE00A5C0D9FFA6C0DAFFDF50DF2ADF2AD96E01
:100DEE00DA6ADF50496E4950C66FC76BC7BF0AEF4C
:100DFE0007F0C75106E1C605D8B008EF07F00AEFB5
:100E0E0007F014EF07F0C6510008AD6FC751D8A018
:100E1E00E82A0008AE6F18EF07F0C6C0ADF0C7C0E5
:100E2E00AEF09EC060F09FC061F0A0C062F0A1C0A5
:100E3E0063F0CEC064F0CFC065F0A2C066F0A3C070
:100E4E0067F0ADC068F0AEC069F06A6B6B6BC7BF80
:100E5E0033EF07F036EF07F0010E37EF07F0000E15
:100E6E006C6FC8C06DF0C9C06EF06F6B706BCCC08C
:100E7E0071F0CDC072F0CAC073F0CBC074F0D0C0A8
:100E8E0075F0D1C076F033EC0CF060C0CEF061C0DE
:100E9E00CFF052EF04F0D1A357EF07F059EF07F060
:100EAE005BEF07F052EF04F0D1A160EF07F062EFB5
:100EBE0007F09FEF07F09EC060F09FC061F0A0C0EA
:100ECE0062F0A1C063F0CEC064F0CFC065F0A2C0E6
:100EDE0066F0A3C067F0A5C0D9FFA6C0DAFF040E66
:100EEE00DF26DF5CD96EDA6ADECF68F0DECF69F01E
:100EFE00DECF6AF0DECF6BF0000E6C6FC8C06DF007
:100F0E00C9C06EF06F6B706BCCC071F0CDC072F05B
:100F1E00CAC073F0CBC074F0D0C075F0D1C076F0FB
:100F2E0033EC0CF060C0CEF061C0CFF052EF04F0A5
:100F3E00D0BDA4EF07F0A6EF07F0CFEF07F0D0BFBC
:100F4E00ABEF07F0ADEF07F0BCEF07F0A5C0D9FF90
:100F5E00A6C0DAFF020EDF26DF5CD96EDA6ADECFBC
:100F6E00B1F0DECFB2F0C9EF07F0A5C0D9FFA6C031
:100F7E00DAFF020EDF26DF5CD96EDA6ADECFB1F061
:100F8E00DECFB2F0B1C0AFF0B2C0B0F0DDEF07F01F
:100F9E00A5C0D9FFA6C0DAFFDF50DF2ADF2AD96E3F
:100FAE00DA6ADF50496E4950AF6FB06B9EC060F089
:100FBE009FC061F0A0C062F0A1C063F0CEC064F02B
:100FCE00CFC065F0A2C066F0A3C067F0AFC068F0F6
:100FDE00B0C069F06A6B6B6B000E6C6FC8C06DF0C1
:100FEE00C9C06EF06F6B706BCCC071F0CDC072F07B
:100FFE00CAC073F0CBC074F0D0C075F0D1C076F01B
:10100E0033EC0CF060C0CEF061C0CFF052EF04F0C4
:10101E000001BA6B010EB96FD0B318EF08F01AEFDA
:10102E0008F04AEF08F039EF08F0200E156EA0C058
:10103E0016F0A1C017F0CEC018F0CFC019F0A2C0A4
:10104E001AF0A3C01BF002D836EF08F00500FA6EB6
:10105E009E51FD6E9F51FE6EFF6AFA501200000106
:10106E00CE4BCF2BB951496EBA514A6EB94BBA2BF2
:10107E00CA51495CCB514A58D8A048EF08F04AEF04
:10108E0008F01CEF08F0A5C0D9FFA6C0DAFFDF50AC
:10109E00DF2ADF2AD96EDA6ADF50156EA0C016F08D
:1010AE00A1C017F0CEC018F0CFC019F0A2C01AF030
:1010BE00A3C01BF002D86DEF08F00500FA6E9E512A
:1010CE00FD6E9F51FE6EFF6AFA5012000001CE4B6C
:1010DE00CF2BD0A375EF08F077EF08F052EF04F0A6
:1010EE0096EF08F0200E156EA0C016F0A1C017F0F6
:1010FE00CEC018F0CFC019F0A2C01AF0A3C01BF0DA
:10110E0002D893EF08F00500FA6E9E51FD6E9F51C6
:10111E00FE6EFF6AFA5012000001CE4BCF2BB95172
:10112E00496EBA514A6EB94BBA2BCA51495CCB5172
:10113E004A58D8A0A5EF08F0A7EF08F079EF08F00D
:10114E0052EF04F0A5C0D9FFA6C0DAFF020EDF26CB
:10115E00DF5CD96EDA6ADECFC1F00001CC51CD1161
:10116E00D8A4BCEF08F0BEEF08F0C2EF08F0B369E8
:10117E00B469C6EF08F0CCC0B3F0CDC0B4F0C1C0B6
:10118E000FF0B3C010F0B4C011F0CCEC13F00FC0E0
:10119E00BFF010C0C0F00001D1A5D8EF08F0DAEF13
:1011AE0008F0E9EF08F0CC51BF5DCD51C059D8A081
:1011BE00E3EF08F0E5EF08F0E9EF08F0CCC0BFF080
:1011CE00CDC0C0F0D0B3EEEF08F0F0EF08F043EF73
:1011DE0009F00FEF09F0200E156EA0C016F0A1C099
:1011EE0017F0CEC018F0CFC019F0A2C01AF0A3C0ED
:1011FE001BF002D80CEF09F00500FA6E9E51FD6E41
:10120E009F51FE6EFF6AFA5012000001CE4BCF2B9B
:10121E00BF51496EC0514A6EBF4BC02BCA51495C7B
:10122E00CB514A58D8A01EEF09F020EF09F0F2EF8B
:10123E0008F043EF09F0C151D96EDA6ADF50156E2E
:10124E00A0C016F0A1C017F0CEC018F0CFC019F094
:10125E00A2C01AF0A3C01BF002D83FEF09F00500A0
:10126E00FA6E9E51FD6E9F51FE6EFF6AFA5012008D
:10127E000001CE4BCF2BC12BC151D96EDA6ADF5094
:10128E00D8B44CEF09F04EEF09F062EF09F0D1A59A
:10129E0053EF09F055EF09F022EF09F0CC07D8A073
:1012AE00CD07CC2906E1CD29D8A460EF09F062EF75
:1012BE0009F022EF09F0D0A367EF09F069EF09F00A
:1012CE0052EF04F088EF09F0200E156EA0C016F054
:1012DE00A1C017F0CEC018F0CFC019F0A2C01AF0FE
:1012EE00A3C01BF002D885EF09F00500FA6E9E51DF
:1012FE00FD6E9F51FE6EFF6AFA5012000001CE4B3A
:10130E00CF2BBF51496EC0514A6EBF4BC02BCA5135
:10131E00495CCB514A58D8A097EF09F099EF09F0E4
:10132E006BEF09F052EF04F00001CB6B040ECA6FA5
:10133E00210ED0139EC060F09FC061F0A0C062F07D
:10134E00A1C063F0CEC064F0CFC065F0A2C066F05D
:10135E00A3C067F0A5C0D9FFA6C0DAFFDF50DF2A11
:10136E00DF2AD96EDA6ADECF49F0DDCF4AF049C006
:10137E0068F04AC069F06A6B6B6B000E6C6F100EF2
:10138E006D6F000E6E6F000E6F6F000E706FCCC023
:10139E0071F0CDC072F0CAC073F0CBC074F0D0C083
:1013AE0075F0D1C076F033EC0CF060C0CEF061C0B9
:1013BE00CFF052EF04F0250E156EA0C016F0A1C0AE
:1013CE0017F0CEC018F0CFC019F0A2C01AF0A3C00B
:1013DE001BF002D8FDEF09F005000001FA6E9E51D8
:1013EE00FD6E9F51FE6EFF6AFA5012004FEF04F031
:1013FE00A4C0F6FF080EF76E0800F5CF15F0A0C0DA
:10140E0016F0A1C017F0CEC018F0CFC019F0A2C0D0
:10141E001AF0A3C01BF002D81FEF0AF0050000015E
:10142E00FA6E9E51FD6E9F51FE6EFF6AFA501200CB
:10143E004FEF04F0A4C0F6FF080EF76E0800F5504B
:10144E00250AD8B4E2EF09F07D0AD8B49BEF05F077
:10145E003A0AD8B49BEF05F0010AD8B40FEF08F0A2
:10146E00070AD8B49BEF05F00D0AD8B49BEF05F030
:10147E00060AD8B49BEF05F01F0AD8B49BEF09F00B
:10148E00030AD8B4A9EF08F0060AD8B49BEF05F00A
:10149E000D0AD8B49BEF05F0FFEF09F0A4C0F6FFDC
:1014AE00080EF76E0800F5500009D8A461EF0AF097
:1014BE0063EF0AF022EF04F0A251CE5DA351CF5993
:1014CE00D8A06CEF0AF06EEF0AF076EF0AF0FF0E7E
:1014DE00A225B56FFF0EA321B66F7AEF0AF0CEC02C
:1014EE00B5F0CFC0B6F0000E156EA0C016F0A1C0BC
:1014FE0017F0B5C018F0B6C019F0A2C01AF0A3C00C
:10150E001BF002D894EF0AF00500FA6E9E51FD6EA4
:10151E009F51FE6EFF6AFA501200CEC09EF0CFC0F1
:10152E009FF0120043B29EEF0AF0A0EF0AF011EF07
:10153E000BF041504210D8B4A7EF0AF0A9EF0AF011
:10154E00D4EF0AF043A0AEEF0AF0B0EF0AF0D4EFFA
:10155E000AF03C50D8A4B6EF0AF0B8EF0AF0C7EF85
:10156E000AF00C0E4314456E000E4414466E4550A0
:10157E004610D8B4C5EF0AF0C7EF0AF0D4EF0AF060
:10158E004106D8A04206D4EF0AF039503A24D96E5B
:10159E00DA6A300EDF6E3A4A3B2A3F503A5C4050D0
:1015AE003B58D8B0DDEF0AF0DFEF0AF0F4EF0AF0A7
:1015BE003B5009E1200E3A5CD8A0E8EF0AF0EAEFC2
:1015CE000AF0CCEF0AF0F4EF0AF039503A24D96E53
:1015DE00DA6A300EDF6E3A4A3B2A43A0F9EF0AF080
:1015EE00FBEF0AF011EF0BF041503A5C42503B58C2
:1015FE00D8B004EF0BF006EF0BF011EF0BF03B50F1
:10160E0009E1200E3A5CD8A00FEF0BF011EF0BF0B2
:10161E00ECEF0AF043A816EF0BF018EF0BF0D3EF38
:10162E000BF044B41DEF0BF01FEF0BF059EF0BF066
:10163E003A503B10D8B426EF0BF028EF0BF059EFD1
:10164E000BF03F503A1809E140503B18D8B432EF36
:10165E000BF034EF0BF040EF0BF041503A1807E16E
:10166E0042503B18D8A43EEF0BF040EF0BF059EF71
:10167E000BF03A06D8A03B063A503B10D8B44AEFCE
:10168E000BF04CEF0BF059EF0BF0100E3D183E1017
:10169E00D8A454EF0BF056EF0BF059EF0BF03A06BF
:1016AE00D8A03B06100E3D183E10D8A461EF0BF0EB
:1016BE0063EF0BF07FEF0BF043BA68EF0BF06AEFBE
:1016CE000BF07FEF0BF03B5007E1200E3A5CD8B0E9
:1016DE0073EF0BF075EF0BF07FEF0BF039503A24F0
:1016EE00D96EDA6A780EDF6E3A4A3B2AC0EF0BF0FB
:1016FE00100E3D183E10D8A487EF0BF089EF0BF0BB
:10170E00A3EF0BF043AA8EEF0BF090EF0BF0A3EFCD
:10171E000BF03B5007E1200E3A5CD8B099EF0BF07E
:10172E009BEF0BF0A3EF0BF039503A24D96EDA6A27
:10173E00580EDF6E7BEF0BF0020E3D183E10D8A454
:10174E00ABEF0BF0ADEF0BF0C0EF0BF03B5007E142
:10175E00200E3A5CD8B0B6EF0BF0B8EF0BF0C0EF3E
:10176E000BF039503A24D96EDA6A620EDF6E7BEFD7
:10177E000BF03B5007E1200E3A5CD8B0C9EF0BF0EE
:10178E00CBEF0BF0D3EF0BF039503A24D96EDA6A67
:10179E00300EDF6E3A4A3B2A3B5007E1200E3A5C90
:1017AE00D8B0DCEF0BF0DEEF0BF00EEF0CF03C5090
:1017BE00D8B4E4EF0BF0E6EF0BF0F0EF0BF039508E
:1017CE003A24D96EDA6A2D0EDF6E3A4A3B2A0EEFB4
:1017DE000CF043A4F5EF0BF0F7EF0BF0FFEF0BF06F
:1017EE0039503A24D96EDA6A2B0EDF6EECEF0BF01D
:1017FE0043A604EF0CF006EF0CF00EEF0CF0395090
:10180E003A24D96EDA6A200EDF6EECEF0BF031C09F
:10181E001CF032C01DF033C01EF034C01FF035C0B6
:10182E0020F036C021F037C022F038C023F039C086
:10183E0024F03AC025F03BC026F041C027F042C04C
:10184E0028F043C029F044C02AF0BDEC0DF01CC0B6
:10185E0031F01DC032F0120000019D6B000E9C6F26
:10186E00685169116A116B11D8A440EF0CF042EF68
:10187E000CF043EF0CF0759976A548EF0CF04AEF9B
:10188E000CF055EF0CF0685169116A116B11D8B458
:10189E0053EF0CF055EF0CF0CEEF0CF068C00FF0DC
:1018AE0069C010F06AC011F06BC012F06DC013F079
:1018BE006EC014F06FC015F070C016F069EC11F028
:1018CE000F5000019B6F090E9B6570EF0CF072EFCD
:1018DE000CF08FEF0CF075BB77EF0CF079EF0CF08E
:1018EE007EEF0CF09A6B610E996F81EF0CF09A6B94
:1018FE00410E996F9B519925476E000E9A21486EA5
:10190E00F60E4724976FFF0E4820986F95EF0CF058
:10191E00300E9B25976F986B000E98239C51770F76
:10192E00D96EDA6A97C0DFFF9C4B9D2B68C00FF013
:10193E0069C010F06AC011F06BC012F06DC013F0E8
:10194E006EC014F06FC015F070C016F054EC0FF0AE
:10195E000FC068F010C069F011C06AF012C06BF0D1
:10196E000001685169116A116B11D8B4C1EF0CF006
:10197E00C3EF0CF0CEEF0CF09D5109E1200E9C5DF3
:10198E00D8A0CCEF0CF0CEEF0CF055EF0CF060C001
:10199E0031F061C032F062C033F063C034F064C025
:1019AE0035F065C036F066C037F067C038F0770E98
:1019BE00396E9CC03AF09DC03BF06CC03CF06DC0DF
:1019CE003DF06EC03EF071C03FF072C040F073C08B
:1019DE0041F074C042F075C043F076C044F099EC0B
:1019EE000AF031C060F032C061F012001550D96EAD
:1019FE00DA6A010ED926DE04D8A408EF0DF00AEF3C
:101A0E000DF01EEF0DF01550D96EDA6ADF500F6E25
:101A1E0049EC13F0E806D8B417EF0DF01AEF0DF0FD
:101A2E00010E1BEF0DF0000E186E30EF0DF015507D
:101A3E00D96EDA6ADF500F6E49EC13F0E806D8A4BF
:101A4E002BEF0DF02EEF0DF0010E2FEF0DF0000E1F
:101A5E00186E1550D96EDA6A020ED9261850DE1895
:101A6E00D8A43CEF0DF03EEF0DF046EF0DF0155003
:101A7E00D96EDA6A040ED926DF6ABCEF0DF0155066
:101A8E00D96EDA6A040ED926DF2A1550D96EDA6AB3
:101A9E00050ED9261550E16EE26A040EE126DE50DF
:101AAE00E65CD8A05DEF0DF05FEF0DF0BCEF0DF032
:101ABE001550D96EDA6A020ED9261550E16EE26A19
:101ACE00030EE126DFCFE7FF1550D96EDA6A020E5C
:101ADE00D92618C0DFFF1550D96EDA6A030ED92643
:101AEE00DF50D8A47DEF0DF07FEF0DF095EF0DF0E8
:101AFE001550D96EDA6A020ED926DE04D8A48AEF02
:101B0E000DF08CEF0DF095EF0DF01550D96EDA6AE1
:101B1E00060ED926010EDF6EB6EF0DF01550D96EFA
:101B2E00DA6A030ED926DE04D8A4A0EF0DF0A2EFD8
:101B3E000DF0B6EF0DF01550D96EDA6A020ED926F9
:101B4E00DF50D8A4ADEF0DF0AFEF0DF0B6EF0DF006
:101B5E001550D96EDA6A060ED926020EDF6E1550B2
:101B6E00D96EDA6A040ED926DF6A120020C02DF073
:101B7E0021C02EF029B2C6EF0DF0C8EF0DF023EF05
:101B8E000EF029B0CDEF0DF0CFEF0DF023EF0EF0EC
:101B9E0025C02FF026C030F0F3EF0DF0200E156E9D
:101BAE001EC016F01FC017F020C018F021C019F08B
:101BBE0022C01AF023C01BF002D8EFEF0DF0050083
:101BCE00FA6E1C50FD6E1D50FE6EFF6AFA5012002A
:101BDE00204A212A2F4A302A27502F5C285030586D
:101BEE00D8A0FCEF0DF0FEEF0DF0D5EF0DF023EFCA
:101BFE000EF02506D8A0260624502524D96EDA6AC2
:101C0E00DF50156E1EC016F01FC017F020C018F062
:101C1E0021C019F022C01AF023C01BF002D821EF08
:101C2E000EF00500FA6E1C50FD6E1D50FE6EFF6A22
:101C3E00FA501200204A212A25502610D8A42AEF45
:101C4E000EF02CEF0EF000EF0EF029A231EF0EF099
:101C5E0033EF0EF062EF0EF051EF0EF0200E156E18
:101C6E001EC016F01FC017F020C018F021C019F0CA
:101C7E0022C01AF023C01BF002D84FEF0EF0050061
:101C8E00FA6E1C50FD6E1D50FE6EFF6AFA50120069
:101C9E00204A212A2D50205C2B6E2E5021582C6E5E
:101CAE0027502B5C28502C58D8A060EF0EF062EF16
:101CBE000EF035EF0EF020C01CF021C01DF012000A
:101CCE00EF0E0F6E106A000E116EA6EC0FF0F60EF0
:101CDE00176EE80E186E000E196E030E1A6EDDECFE
:101CEE0012F0DA0E0F6EF0EC13F0DA0E176E15EC32
:101CFE0013F0A7EC14F0EDEC14F0E5EC14F0FD0E7F
:101D0E00156E170E166E3B0E176E370E186E78EC9C
:101D1E0013F0EF0E0F6E000E106EF4EC0FF04EEC93
:101D2E0014F099EC14F00009D8B4A0EF0EF0A2EF65
:101D3E000EF0A6EF0EF0F60E156EFDEC0CF08BEC21
:101D4E0014F00009D8B4AEEF0EF0B0EF0EF0B9EF0C
:101D5E000EF0FD0E0F6E23EC11F0FD0E0001D96F8B
:101D6E00A4EC13F0F60E0F6E5FEC14F00101386F59
:101D7E003805D8A4C5EF0EF0C7EF0EF0D0EF0EF079
:101D8E00120E0001D26F070ED46FEA0ED36F0CEC59
:101D9E0014F0390E156E010E166ECBEC14F0000910
:101DAE00D8B4DCEF0EF0DEEF0EF096EF0EF0410E33
:101DBE0001013919D8A4E6EF0EF0E8EF0EF0F0EFBE
:101DCE000EF0EF0E0F6E010E106EF4EC0FF096EF9C
:101DDE000EF0420E3919D8A4F7EF0EF0F9EF0EF00F
:101DEE0096EF0EF090EF0EF007EF00F0146A10BEB3
:101DFE0005EF0FF003EF0FF00BEF0FF00F6C101E4F
:101E0E00D8B0102A010E146E12BE12EF0FF010EFA2
:101E1E000FF016EF0FF0116C121ED8B0122A1150DF
:101E2E001210D8B41DEF0FF01FEF0FF043EF0FF0AD
:101E3E00010E136E27EF0FF0D89011361236132ABB
:101E4E0012AE2CEF0FF02EEF0FF023EF0FF011501C
:101E5E000F5C12501058D8A037EF0FF039EF0FF07B
:101E6E003DEF0FF011500F5E1250105AD8901232F3
:101E7E001132132E2EEF0FF01450D8B449EF0FF08D
:101E8E004BEF0FF04FEF0FF00F6C101ED8B0102A63
:101E9E000FC00FF010C010F01200000E186E000EE2
:101EAE00196E000E1A6E000E1B6E135014101510C4
:101EBE001610D8B465EF0FF067EF0FF09DEF0FF02F
:101ECE00010E176E71EF0FF0D890133614361536CB
:101EDE001636172A16AE76EF0FF078EF0FF06BEF7F
:101EEE000FF0D890183619361A361B3613500F5C71
:101EFE00145010581550115816501258D8A08AEF79
:101F0E000FF08CEF0FF095EF0FF013500F5E145093
:101F1E00105A1550115A1650125A1880D89016325F
:101F2E00153214321332172E78EF0FF018C00FF04F
:101F3E0019C010F01AC011F01BC012F0120011508F
:101F4E00D8A4ACEF0FF0AEEF0FF0D3EF0FF020EE02
:101F5E0006F00F50D9261050DA22DF50126E010E05
:101F6E00136E122ABDEF0FF0D8901336122EBBEF60
:101F7E000FF01350FF0A146E0FC0D9FF10C0DAFF16
:101F8E00DECF15F0DDCF16F015C0D9FF16C0DAFF83
:101F9E001450DF16F3EF0FF020EE06F00F50D92697
:101FAE001050DA22DF50126E010E136E122AE2EF7B
:101FBE000FF0D8901336122EE0EF0FF00FC0D9FFAE
:101FCE0010C0DAFFDECF14F0DDCF15F014C0D9FF4C
:101FDE0015C0DAFF1350DF1212001004D8A4FAEF66
:101FEE000FF0FCEF0FF01EEF10F00F50D96EDA6A03
:101FFE00060ED926DF50116E010E126E112A0AEF4F
:10200E0010F0D8901236112E08EF10F00F50D96E36
:10201E00DA6A020ED926DECF13F0DDCF14F013C02C
:10202E00D9FF14C0DAFF1250DF1241EF10F00F503B
:10203E00D96EDA6A060ED926DF50116E010E126EB7
:10204E00112A2CEF10F0D8901236112E2AEF10F024
:10205E001250FF0A136E0F50D96EDA6A020ED9268D
:10206E00DECF14F0DDCF15F014C0D9FF15C0DAFFA6
:10207E001350DF16120020EE15F00F50D926105017
:10208E00DA2210EE14F00F50E1261050E222DE504C
:10209E00E618D8A455EF10F057EF10F05AEF10F0E5
:1020AE00000E8CEF10F020EE15F00F50D9261050C8
:1020BE00DA22DF50136E13500F24D96E000E10204B
:1020CE00DA6E11C0E1FF12C0E2FFDFCFE7FF20EEB4
:1020DE0015F00F50D9261050DA22DF2A20EE15F017
:1020EE000F50D9261050DA22140EDE18D8A482EF23
:1020FE0010F084EF10F08BEF10F020EE15F00F5073
:10210E00D9261050DA22DF6A010E12009EAA92EF33
:10211E0010F094EF10F0B3EF10F0ABA299EF10F0B7
:10212E009BEF10F09FEF10F0AB98AB88D7EF10F04D
:10213E00ABA4A4EF10F0A6EF10F0A9EF10F0AE5084
:10214E00D7EF10F0AECF08F0000E026E010E036E48
:10215E0008C004F02AEC12F09EA8B8EF10F0BAEF07
:10216E0010F0D7EF10F09DA8BFEF10F0C1EF10F0F8
:10217E00D7EF10F0160E026E010E036E090E046EEE
:10218E00056AD8EC10F00009D8B4D0EF10F0D2EFF9
:10219E0010F0D6EF10F009C0ADFFD7EF10F09D98FC
:1021AE00120020EE15F00250D9260350DA2210EE5E
:1021BE0014F00250E1260350E222DE50E618D8A4B5
:1021CE00EBEF10F0EDEF10F0F0EF10F0000E22EF4D
:1021DE0011F020EE15F00250D9260350DA22DF500E
:1021EE00066E06500224D96E000E0320DA6E04C06D
:1021FE00E1FF05C0E2FFDFCFE7FF20EE15F0025052
:10220E00D9260350DA22DF2A20EE15F00250D92605
:10221E000350DA22140EDE18D8A418EF11F01AEFBC
:10222E0011F021EF11F020EE15F00250D9260350D7
:10223E00DA22DF6A010E12000F50D96EDA6A020E30
:10224E00D926DF2A0F50D96EDA6A020ED9263B0E36
:10225E00DF6434EF11F036EF11F068EF11F00F502C
:10226E00D96EDA6A020ED926DF6A0F50D96EDA6A93
:10227E00010ED926DF2A0F50D96EDA6A010ED92641
:10228E003B0EDF644DEF11F04FEF11F068EF11F0E0
:10229E000F50D96EDA6A010ED926DF6A0F50D96E49
:1022AE00DA6ADF2A0F50D96EDA6A170EDF6462EF30
:1022BE0011F064EF11F068EF11F00F50D96EDA6A79
:1022CE00DF6A12001350141015101610D8B472EFE6
:1022DE0011F074EF11F0A4EF11F0010E176E7EEFF6
:1022EE0011F0D8901336143615361636172A16AE48
:1022FE0083EF11F085EF11F078EF11F013500F5CB2
:10230E00145010581550115816501258D8A092EF5C
:10231E0011F094EF11F09CEF11F013500F5E14506A
:10232E00105A1550115A1650125AD890163215329C
:10233E0014321332172E85EF11F00FC00FF010C0AC
:10234E0010F011C011F012C012F012000600E1CF11
:10235E000BF0E2CF0CF0D9CF0DF0DACF0EF0000E6D
:10236E009EBA010E9EB8010EE8B0C0EF11F0C4EF98
:10237E0011F00A6A0A2AC5EF11F00A6A0A50D8B497
:10238E00CBEF11F0CDEF11F0CFEF11F08DEC10F08F
:10239E00F2A4D4EF11F0D6EF11F0E2EF11F0F2AAA1
:1023AE00DBEF11F0DDEF11F0E2EF11F0DBEC14F0EA
:1023BE00F294E0EC14F00EC0DAFF0DC0D9FF0CC0A1
:1023CE00E2FF0BC0E1FF0192110020EE14F00F505E
:1023DE00D9261050DA22DF50126E1228136E140E08
:1023EE001318D8A4FDEF11F0FFEF11F000EF12F06B
:1023FE00136A20EE15F00F50D9261050DA22135022
:10240E00DE18D8A40DEF12F00FEF12F011EF12F04C
:10241E0029EF12F020EE14F00F50D9261050DA22C8
:10242E00DF50126E12500F24D96E000E1020DA6E8D
:10243E0011C0DFFF20EE14F00F50D9261050DA2213
:10244E0013C0DFFF120020EE14F00250D926035005
:10245E00DA22DF50056E0528066E140E0618D8A473
:10246E003BEF12F03DEF12F03EEF12F0066A20EE57
:10247E0015F00250D9260350DA220650DE18D8A4E1
:10248E004BEF12F04DEF12F04FEF12F067EF12F02C
:10249E0020EE14F00250D9260350DA22DF50056EDA
:1024AE0005500224D96E000E0320DA6E04C0DFFF41
:1024BE0020EE14F00250D9260350DA2206C0DFFFB8
:1024CE001200176A000E166E8CEF12F00A0E16022C
:1024DE00F3CF13F0F4CF14F01702F350142611506B
:1024EE00D96EDA6ADFCF15F0010EDF2615C0F6FFC2
:1024FE00080EF76E0800F5501326000E1422D00EAB
:10250E001324166EFF0E1420176E1150D96EDA6A50
:10251E00DFCFF6FF080EF76E0800F55024EC14F02E
:10252E000009D8A49DEF12F09FEF12F06DEF12F09C
:10253E0016C011F017C012F01200D20EF66E290E50
:10254E00F76E000EF86E01EE2CF010EE07F009009B
:10255E00F5CFEEFFE550E150FAE1FA0EF66E280ED9
:10256E00F76E000EF86E00EEDAF010EE1CF00900B9
:10257E00F5CFEEFFE550E150FAE101EE00F02C0E42
:10258E00EE6AE806FDE100EEF6F00A0EEE6AE806E7
:10259E00FDE100EE4BF0080EEE6AE806FDE101905B
:1025AE000192000EF86E000167EF0EF01750D96E13
:1025BE00DA6A18C0DFFF1750D96EDA6A010ED92613
:1025CE0019C0DFFF1750D96EDA6A020ED926DF6AFC
:1025DE001750D96EDA6A030ED926DF6A1750D96EF4
:1025EE00DA6A040ED926DF6A1750D96EDA6A050E3A
:1025FE00D9261AC0DFFF1750D96EDA6A060ED92611
:10260E00DF6A1750D96EDA6ADF501B6E1BC00FF0EF
:10261E00106A010E116EA6EC0FF012001750D96E53
:10262E00DA6ADF50186E18C00FF0106A010E116EC4
:10263E00A6EC0FF01750D96EDA6A010ED926DECF4E
:10264E000FF0DDCF10F0010E116EA6EC0FF0160E8E
:10265E000F6E010E106E6EEC14F0000E0F6E010E6A
:10266E00106E6EEC14F0AB8EAC8AAB889E989D9873
:10267E009EAA44EF13F046EF13F047EF13F0AE505F
:10268E009D8A12000F50D96EDA6A040ED926DECF5B
:10269E0010F0DDCF11F010C0D9FF11C0DAFFDF50FE
:1026AE00126E0F50D96EDA6A060ED926DF50136EEF
:1026BE00010E146E132A66EF13F0D8901436132EF3
:1026CE0064EF13F0145012140009D8B471EF13F024
:1026DE0073EF13F076EF13F0010E77EF13F0000E99
:1026EE0012001550D96EDA6A16C00FF0106A126A0F
:1026FE00180E116EFDEC0EF00F50DF6E1550D96EE8
:10270E00DA6A010ED92617C00FF0106A126A3C0E53
:10271E00116EFDEC0EF00F50DF6E1550D96EDA6AA9
:10272E00020ED92618C00FF0106A126A3C0E116EF6
:10273E00FDEC0EF00F50DF6E1200010E0001D26F95
:10274E00D951D96EDA6ADF500101356F355100016A
:10275E00D36FD46BD951D96EDA6A010ED926DF50F8
:10276E000101366F36510001D56FD66BD951D96E36
:10277E00DA6A020ED926DF500101376F3751000198
:10278E00D76FD86B0CEC14F012000FC012F0D1EF13
:10279E0013F0122A1250D96EDA6ADF50D8B4DAEF7B
:1027AE0013F0DCEF13F0E9EF13F01006D8A01106CA
:1027BE00102806E11128D8A4E7EF13F0E9EF13F083
:1027CE00D0EF13F00F50125C0F6E106A0FBE100692
:1027DE001200AC9CAB9CAC980F50D96EDA6A030E0B
:1027EE00D926800EDE1809E1250EDE18DE10DE1069
:1027FE00D8A404EF14F006EF14F00BEF14F0AC8431
:10280E00B896B06A810EAF6E1200D30E0101346F0E
:10281E00680E00019E6F290E9F6F330EA06F010E82
:10282E00A16FFF0EA36FA269D2C0A4F0340EA56FE4
:10283E00010EA66F0FEC04F01200106E0F6A2F0E31
:10284E0010642CEF14F02EEF14F038EF14F03A0E53
:10285E00106034EF14F036EF14F038EF14F0010E70
:10286E000F6E0F5012001A50185C1B501958D8B02A
:10287E0043EF14F045EF14F04DEF14F018501624FA
:10288E00D96E19501720DA6E15C0DFFF1200E80E50
:10289E004F5C030E5058D8A057EF14F059EF14F0B8
:1028AE005EEF14F0506A000E4F6E010E516E120064
:1028BE000F50D96EDA6A060ED926DF50106E0F5001
:1028CE00D96EDA6A060ED926DF6A1050120020EE93
:1028DE0014F00F50D9261050DA22DF6A20EE15F0D0
:1028EE000F50D9261050DA22DF6A1200E12C018037
:1028FE00250000940F8B0F820F07930F8A0F810F05
:10290E0000950F8C0F830F005150D8B491EF14F037
:10291E0093EF14F097EF14F0516A010E98EF14F044
:10292E00000E12005250D8B49FEF14F0A1EF14F025
:10293E00A5EF14F0526A010EA6EF14F0000E12006D
:10294E00D56AD59CD59AD596D550F80B0109D56E7A
:10295E00D6EC14F0F294F28A12001550D8B4BAEFF5
:10296E0014F0BCEF14F0BFEF14F01550C0EC14F0DF
:10297E001200146E160E0F6E010E106E14C011F0B2
:10298E00ECEC11F09D881200000E0F6E010E106E11
:10299E0015C011F016C012F042EC10F01200FB0E32
:1029AE00D76E1E0ED66E1200FB0ED76E1E0ED66E94
:1029BE0012004F4A502A010E526E1200D09EF28C17
:0B29CE00F28E1200940F8B0F820F0698
:0829DA00D58E1200120012005C
:020000040030CA
:08000000000C1E1EFF8181FFB0
:00000001FF
