:0400000007EF00F016
:0A000800018277ED16F0AEEF17F05D
:10080000003F065B4F666D7D077F67253032753A86
:10081000253032753A253032750D0A00410D0A0037
:05082000420D0A00007A
:100826000101E76B000EE66F0001B451B511D8A4C3
:100836001FEF04F021EF04F0DAEF0AF00C0EB26FAE
:10084600360EB36FDAEF0AF0B8C0F6FF080EF76E91
:100856000800F550250AD8B433EF04F035EF04F05C
:100866005BEF04F0B8C0F6FF080EF76E0800F5CF90
:1008760014F0B4C015F0B5C016F0E6C117F0E7C124
:1008860018F0B6C019F0B7C01AF002D854EF04F049
:100896000500FA6EB251FD6EB351FE6EFF6AFA5054
:1008A60012000101E64BE72B0001B82BDAEF0AF044
:1008B600B82B0101E96B000EE86F84EF04F0E881C4
:1008C6000001B82B0101D36B010ED26FA0EF04F02B
:1008D600E8830001B82B65EF04F0E8850001B82B2A
:1008E60065EF04F0E8870001B82B65EF04F0E889AE
:1008F6000001B82B65EF04F0D36B000ED26FA0EFAA
:1009060004F0B8C0F6FF080EF76E0800F550200A8E
:10091600D8B475EF04F0030AD8B47AEF04F0080AE5
:10092600D8B470EF04F0060AD8B46BEF04F01D0AD1
:10093600D8B462EF04F07FEF04F0D251D311D8A4FB
:10094600A7EF04F0A9EF04F084EF04F0E36B000EC8
:10095600E26FB8C0F6FF080EF76E0800F55029ECF6
:100966001AF00009D8B4BAEF04F0BCEF04F0C6EFF1
:1009760004F0B80E106E72EC17F010C0E2F111C060
:10098600E3F105EF05F0B8C0F6FF080EF76E0800B4
:10099600F5502A0AD8A4D2EF04F0D4EF04F005EFFC
:1009A60005F0B9C0D9FFBAC0DAFFDFCF34F0020EC6
:1009B600DE26DFCF35F0000EDD2234C0D9FF35C08C
:1009C600DAFFDECFD4F1DDCFD5F10101D5BFF0EFEF
:1009D60004F0EEEF04F0FFEF04F0E883D4C134F046
:1009E600D5C135F0341E351E344A352A34C0E2F1FD
:1009F60035C0E3F103EF05F0D4C1E2F1D5C1E3F16F
:100A06000001B82B0101E56B000EE46FB8C0F6FFDC
:100A1600080EF76E0800F5502E0AD8A415EF05F05B
:100A260017EF05F0A7EF05F0E9850001B82BB8C070
:100A3600F6FF080EF76E0800F55029EC1AF00009CB
:100A4600D8B428EF05F02AEF05F034EF05F0B80E1C
:100A5600106E72EC17F010C0E4F111C0E5F1A7EFCB
:100A660005F0B8C0F6FF080EF76E0800F5502A0A22
:100A7600D8A440EF05F042EF05F0A7EF05F0B9C0A6
:100A8600D9FFBAC0DAFFDFCF34F0020EDE26DFCFA1
:100A960035F0000EDD2234C0D9FF35C0DAFFDECFD7
:100AA600CEF1DDCFCFF10101CFBF64EF05F0CF511D
:100AB60006E1CE05D8B062EF05F064EF05F069EF08
:100AC60005F0E56B000EE46F6DEF05F0CEC1E4F1C5
:100AD600CFC1E5F10001B82BA7EF05F00101E981CF
:100AE6000001B82BB8C0F6FF080EF76E0800F550E7
:100AF6006C0AD8A481EF05F083EF05F0A6EF0AF0A3
:100B06000101E9830001B82BA6EF0AF00101E88F85
:100B16000001B82BB8C0F6FF080EF76E0800F550B6
:100B2600680AD8A499EF05F09BEF05F0A6EF0AF046
:100B36000101E88D0001B82BA6EF0AF00101E98357
:100B46000001B82BA6EF0AF0B8C0F6FF080EF76E44
:100B56000800F550680AD8B489EF05F0020AD8B43F
:100B6600A1EF05F0060AD8B471EF05F0160AD8B45D
:100B7600A1EF05F0A6EF0AF0B8C0F6FF080EF76E73
:100B86000800F550780AD8B4CBEF05F0CDEF05F0A4
:100B9600DBEF05F0B8C0F6FF080EF76E0800F5505B
:100BA600580AD8A4D9EF05F0DBEF05F0E1EF05F020
:100BB6000101E16B100EE06F0EEF06F0B8C0F6FF14
:100BC600080EF76E0800F5506F0AD8A4EDEF05F091
:100BD600EFEF05F0F5EF05F00101E16B080EE06FB0
:100BE6000EEF06F0B8C0F6FF080EF76E0800F550D7
:100BF600620AD8A401EF06F003EF06F009EF06F04B
:100C06000101E16B020EE06F0EEF06F00101E16BF0
:100C16000A0EE06FE899B8C0F6FF080EF76E0800F6
:100C2600F550580AD8A41AEF06F01CEF06F01DEF8F
:100C360006F0E88BB8C0F6FF080EF76E0800F55010
:100C4600690AD8B429EF06F02BEF06F03DEF06F05F
:100C5600B8C0F6FF080EF76E0800F550640AD8B45F
:100C660037EF06F039EF06F03DEF06F0F30EE81722
:100C7600FF0EE917E9A542EF06F044EF06F045EF4F
:100C860006F0E891B8C0F6FF080EF76E0800F550BA
:100C9600690AD8B451EF06F053EF06F061EF06F09B
:100CA600B8C0F6FF080EF76E0800F550640AD8A41F
:100CB6005FEF06F061EF06F096EF07F0E9A366EF47
:100CC60006F068EF06F06AEF06F057EF04F0E9A1C8
:100CD6006FEF06F071EF06F0EBEF06F0B9C0D9FF43
:100CE600BAC0DAFFDFCF34F0040EDE26DFCF35F0F0
:100CF600000EDD2234C0D9FF35C0DAFFDECFDAF1CF
:100D0600DECFDBF1DECFDCF1DECFDDF1DDBF98EF4C
:100D160006F0DD51DC11DB1106E1DA05D8B096EFFD
:100D260006F098EF06F0A6EF06F0DA510008BE6F5F
:100D3600000EDB55BF6F000EDC55C06F000EDD5593
:100D4600C16FAEEF06F0DAC1BEF1DBC1BFF1DCC1A7
:100D5600C0F1DDC1C1F1B2C074F0B3C075F0B4C06A
:100D660076F0B5C077F0E6C178F0E7C179F0B6C0A5
:100D76007AF0B7C07BF0BEC17CF0BFC17DF0C0C1C8
:100D86007EF0C1C17FF0DDBFCBEF06F0CEEF06F0FF
:100D9600010ECFEF06F0000E0001806FE0C181F07A
:100DA600E1C182F0836B846BE4C185F0E5C186F016
:100DB600E2C187F0E3C188F0E8C189F0E9C18AF0B1
:100DC600C5EC10F074C0E6F175C0E7F157EF04F01A
:100DD600E8BDF0EF06F0F2EF06F029EF07F0E8BF06
:100DE600F7EF06F0F9EF06F00FEF07F0B9C0D9FFFD
:100DF600BAC0DAFFDFCF34F0020EDE26DFCF35F0E1
:100E0600000EDD2234C0D9FF35C0DAFFDECFC2F1D5
:100E1600DDCFC3F123EF07F0B9C0D9FFBAC0DAFFBF
:100E2600DFCF34F0020EDE26DFCF35F0000EDD22F6
:100E360034C0D9FF35C0DAFFDECFC2F1DDCFC3F152
:100E4600C2C1DEF1C3C1DFF13EEF07F0B9C0D9FF81
:100E5600BAC0DAFFDFCF34F0020EDE26DFCF35F080
:100E6600000EDD2234C0D9FF35C0DAFFDF50366E02
:100E76003650DE6FDF6BDFBF4BEF07F0DF5106E169
:100E8600DE05D8B049EF07F04BEF07F055EF07F056
:100E9600DE510008C46FDF51D8A0E82A0008C56FEC
:100EA60059EF07F0DEC1C4F1DFC1C5F1B2C074F07D
:100EB600B3C075F0B4C076F0B5C077F0E6C178F08F
:100EC600E7C179F0B6C07AF0B7C07BF0C4C17CF058
:100ED600C5C17DF000017E6B7F6B0101DFBF76EF40
:100EE60007F079EF07F0010E7AEF07F0000E000128
:100EF600806FE0C181F0E1C182F0836B846BE4C155
:100F060085F0E5C186F0E2C187F0E3C188F0E8C16B
:100F160089F0E9C18AF0C5EC10F074C0E6F175C03D
:100F2600E7F157EF04F0E9A39BEF07F09DEF07F019
:100F36009FEF07F057EF04F0E9A1A4EF07F0A6EF43
:100F460007F0EBEF07F0B2C074F0B3C075F0B4C0B1
:100F560076F0B5C077F0E6C178F0E7C179F0B6C0B3
:100F66007AF0B7C07BF0B9C0D9FFBAC0DAFFDFCFDD
:100F760034F0040EDE26DFCF35F0000EDD2234C05D
:100F8600D9FF35C0DAFFDECF7CF0DECF7DF0DECFD5
:100F96007EF0DECF7FF0000E0001806FE0C181F0B1
:100FA600E1C182F0836B846BE4C185F0E5C186F014
:100FB600E2C187F0E3C188F0E8C189F0E9C18AF0AF
:100FC600C5EC10F074C0E6F175C0E7F157EF04F018
:100FD600E8BDF0EF07F0F2EF07F029EF08F0E8BF01
:100FE600F7EF07F0F9EF07F00FEF08F0B9C0D9FFF8
:100FF600BAC0DAFFDFCF34F0020EDE26DFCF35F0DF
:10100600000EDD2234C0D9FF35C0DAFFDECFC8F1CD
:10101600DDCFC9F123EF08F0B9C0D9FFBAC0DAFFB6
:10102600DFCF34F0020EDE26DFCF35F0000EDD22F4
:1010360034C0D9FF35C0DAFFDECFC8F1DDCFC9F144
:10104600C8C1C6F1C9C1C7F13EEF08F0B9C0D9FFA2
:10105600BAC0DAFFDFCF34F0020EDE26DFCF35F07E
:10106600000EDD2234C0D9FF35C0DAFFDF50366E00
:101076003650C66FC76BB2C074F0B3C075F0B4C05B
:1010860076F0B5C077F0E6C178F0E7C179F0B6C082
:101096007AF0B7C07BF0C6C17CF0C7C17DF0000115
:1010A6007E6B7F6B000E806FE0C181F0E1C182F044
:1010B600836B846BE4C185F0E5C186F0E2C187F0FD
:1010C600E3C188F0E8C189F0E9C18AF0C5EC10F007
:1010D60074C0E6F175C0E7F157EF04F00101D16B7A
:1010E600010ED06FE8B37AEF08F07CEF08F0ADEFB1
:1010F60008F09CEF08F0200E146EB4C015F0B5C0D1
:1011060016F0E6C117F0E7C118F0B6C019F0B7C07F
:101116001AF002D899EF08F005000001FA6EB251F4
:10112600FD6EB351FE6EFF6AFA5012000101E64BE6
:10113600E72BD051346ED151356ED04BD12BE251C5
:10114600345CE3513558D8A0ABEF08F0ADEF08F0AA
:101156007EEF08F0B9C0D9FFBAC0DAFFDFCF34F0AE
:10116600020EDE26DFCF35F0000EDD2234C0D9FFB9
:1011760035C0DAFFDF50146EB4C015F0B5C016F0F6
:10118600E6C117F0E7C118F0B6C019F0B7C01AF0FB
:1011960002D8D8EF08F005000001FA6EB251FD6ED4
:1011A600B351FE6EFF6AFA5012000101E64BE72BBF
:1011B600E8A3E0EF08F0E2EF08F057EF04F002EFE3
:1011C60009F0200E146EB4C015F0B5C016F0E6C1D5
:1011D60017F0E7C118F0B6C019F0B7C01AF002D878
:1011E600FFEF08F005000001FA6EB251FD6EB35133
:1011F600FE6EFF6AFA5012000101E64BE72BD05152
:10120600346ED151356ED04BD12BE251345CE35163
:101216003558D8A011EF09F013EF09F0E4EF08F004
:1012260057EF04F0B9C0D9FFBAC0DAFFDFCF34F008
:10123600020EDE26DFCF35F0000EDD2234C0D9FFE8
:1012460035C0DAFFDECFD6F1DDCFD7F10101E451AB
:10125600E511D8A431EF09F033EF09F037EF09F0C3
:10126600CA69CB693BEF09F0E4C1CAF1E5C1CBF12C
:10127600D6C10EF0D7C10FF0CAC110F0CBC111F024
:1012860074EC19F00EC0D8F10FC0D9F10101E9A52F
:101296004FEF09F051EF09F060EF09F0E451D85D26
:1012A600E551D959D8A05AEF09F05CEF09F060EF83
:1012B60009F0E4C1D8F1E5C1D9F1E8B365EF09F069
:1012C60067EF09F0BEEF09F087EF09F0200E146E04
:1012D600B4C015F0B5C016F0E6C117F0E7C118F0B6
:1012E600B6C019F0B7C01AF002D884EF09F00500AD
:1012F6000001FA6EB251FD6EB351FE6EFF6AFA50EE
:1013060012000101E64BE72BD851346ED951356EE8
:10131600D84BD92BE251345CE3513558D8A096EF1F
:1013260009F098EF09F069EF09F0BEEF09F0D6C1B0
:10133600D9FFD7C1DAFFDF50146EB4C015F0B5C0BF
:1013460016F0E6C117F0E7C118F0B6C019F0B7C03D
:101356001AF002D8B9EF09F005000001FA6EB25191
:10136600FD6EB351FE6EFF6AFA5012000101E64BA4
:10137600E72BD64BD72BD6C1D9FFD7C1DAFFDF5023
:10138600D8B4C8EF09F0CAEF09F0DEEF09F0E9A515
:10139600CFEF09F0D1EF09F09AEF09F0E407D8A0F2
:1013A600E507E42906E1E529D8A4DCEF09F0DEEF3C
:1013B60009F09AEF09F0E8A3E3EF09F0E5EF09F089
:1013C60057EF04F005EF0AF0200E146EB4C015F0C6
:1013D600B5C016F0E6C117F0E7C118F0B6C019F0AF
:1013E600B7C01AF002D802EF0AF005000001FA6E43
:1013F600B251FD6EB351FE6EFF6AFA501200010142
:10140600E64BE72BD851346ED951356ED84BD92BD4
:10141600E251345CE3513558D8A014EF0AF016EFC8
:101426000AF0E7EF09F057EF04F00101E36B040E51
:10143600E26F210EE813B2C074F0B3C075F0B4C009
:1014460076F0B5C077F0E6C178F0E7C179F0B6C0BE
:101456007AF0B7C07BF0B9C0D9FFBAC0DAFFDFCFE8
:1014660034F0020EDE26DFCF35F0000EDD2234C06A
:10147600D9FF35C0DAFFDECF36F0DDCF37F036C024
:101486007CF037C07DF000017E6B7F6B000E806FB5
:10149600100E816F000E826F000E836F000E846F38
:1014A600E4C185F0E5C186F0E2C187F0E3C188F0CA
:1014B600E8C189F0E9C18AF0C5EC10F074C0E6F124
:1014C60075C0E7F157EF04F0250E146EB4C015F0A1
:1014D600B5C016F0E6C117F0E7C118F0B6C019F0AE
:1014E600B7C01AF002D882EF0AF005000001FA6EC2
:1014F600B251FD6EB351FE6EFF6AFA50120054EF00
:1015060004F0B8C0F6FF080EF76E0800F5CF14F029
:10151600B4C015F0B5C016F0E6C117F0E7C118F073
:10152600B6C019F0B7C01AF002D8A4EF0AF0050049
:101536000001FA6EB251FD6EB351FE6EFF6AFA50AB
:10154600120054EF04F0B8C0F6FF080EF76E08005C
:10155600F550250AD8B467EF0AF07D0AD8B4BFEF74
:1015660005F03A0AD8B4BFEF05F0010AD8B471EF16
:1015760008F0070AD8B4BFEF05F00D0AD8B4BFEFDC
:1015860005F0060AD8B4BFEF05F01F0AD8B418EF65
:101596000AF0030AD8B415EF09F0060AD8B4BFEF6B
:1015A60005F00D0AD8B4BFEF05F084EF0AF0B8C015
:1015B600F6FF080EF76E0800F5500009D8A4E6EF0E
:1015C6000AF0E8EF0AF027EF04F0B6510101E65DF4
:1015D6000001B7510101E759D8A0F4EF0AF0F6EF80
:1015E6000AF002EF0BF0FF0E0001B6250101CC6FE9
:1015F600FF0E0001B7210101CD6F06EF0BF0E6C12A
:10160600CCF1E7C1CDF1000E146EB4C015F0B5C033
:1016160016F0CCC117F0CDC118F0B6C019F0B7C09E
:101626001AF002D821EF0BF005000001FA6EB25154
:10163600FD6EB351FE6EFF6AFA501200E6C1B2F0BB
:10164600E7C1B3F01200000172B32CEF0BF02EEFDE
:101656000BF09FEF0BF070517111D8B435EF0BF012
:1016660037EF0BF062EF0BF072A13CEF0BF03EEFA1
:101676000BF062EF0BF06B51D8A444EF0BF046EF82
:101686000BF055EF0BF00C0E7215306E000E731545
:10169600316E30503110D8B453EF0BF055EF0BF0DC
:1016A60062EF0BF07007D8A0710762EF0BF068517C
:1016B6006925D96EDA6A300EDF6E694B6A2B6E5178
:1016C600695D6F516A59D8B06BEF0BF06DEF0BF097
:1016D60082EF0BF06A5109E1200E695DD8A076EF22
:1016E6000BF078EF0BF05AEF0BF082EF0BF068512E
:1016F6006925D96EDA6A300EDF6E694B6A2B72A1E4
:1017060087EF0BF089EF0BF09FEF0BF07051695DDF
:1017160071516A59D8B092EF0BF094EF0BF09FEF2E
:101726000BF06A5109E1200E695DD8A09DEF0BF020
:101736009FEF0BF07AEF0BF072A9A4EF0BF0A6EF78
:101746000BF061EF0CF073B5ABEF0BF0ADEF0BF0F8
:10175600E7EF0BF069516A11D8B4B4EF0BF0B6EFAE
:101766000BF0E7EF0BF06E51691909E16F516A1939
:10177600D8B4C0EF0BF0C2EF0BF0CEEF0BF0705108
:10178600691907E171516A19D8A4CCEF0BF0CEEFB5
:101796000BF0E7EF0BF06907D8A06A0769516A11E9
:1017A600D8B4D8EF0BF0DAEF0BF0E7EF0BF0100E32
:1017B6006C196D11D8A4E2EF0BF0E4EF0BF0E7EF34
:1017C6000BF06907D8A06A07100E6C196D11D8A422
:1017D600EFEF0BF0F1EF0BF00DEF0CF072BBF6EF45
:1017E6000BF0F8EF0BF00DEF0CF06A5107E1200E4D
:1017F600695DD8B001EF0CF003EF0CF00DEF0CF0C3
:1018060068516925D96EDA6A780EDF6E694B6A2BE4
:101816004EEF0CF0100E6C196D11D8A415EF0CF0EC
:1018260017EF0CF031EF0CF072AB1CEF0CF01EEF63
:101836000CF031EF0CF06A5107E1200E695DD8B06B
:1018460027EF0CF029EF0CF031EF0CF06851692509
:10185600D96EDA6A580EDF6E09EF0CF0020E6C19BB
:101866006D11D8A439EF0CF03BEF0CF04EEF0CF0F5
:101876006A5107E1200E695DD8B044EF0CF046EFDF
:101886000CF04EEF0CF068516925D96EDA6A620EDB
:10189600DF6E09EF0CF06A5107E1200E695DD8B0E2
:1018A60057EF0CF059EF0CF061EF0CF06851692519
:1018B600D96EDA6A300EDF6E694B6A2B6A5107E120
:1018C600200E695DD8B06AEF0CF06CEF0CF09CEF5F
:1018D6000CF06B51D8B472EF0CF074EF0CF07EEF95
:1018E6000CF068516925D96EDA6A2D0EDF6E694BE8
:1018F6006A2B9CEF0CF072A583EF0CF085EF0CF0D1
:101906008DEF0CF068516925D96EDA6A2B0EDF6E01
:101916007AEF0CF072A792EF0CF094EF0CF09CEFBC
:101926000CF068516925D96EDA6A200EDF6E7AEFFF
:101936000CF060C01BF061C01CF062C01DF063C0FB
:101946001EF064C01FF065C020F066C021F067C0BD
:1019560022F068C023F069C024F06AC025F070C088
:1019660026F071C027F072C028F073C029F051EC40
:1019760012F01BC060F01CC061F01200CB0E0E6EA0
:101986000F6A64EC1AF0020AD8A4CCEF0CF0CEEF82
:101996000CF025EF0DF007EF0DF01450D96EDA6A52
:1019A600010ED926010EDF6E25EF0DF01450D96E0B
:1019B600DA6A010ED926020EDF6E25EF0DF01450FD
:1019C600D96EDA6A010ED926DF6A1450D96EDA6A40
:1019D600DF50D96EDA6A010ED926DF50116E145027
:1019E600D96EDA6ADF50D96EDA6A020ED926DF506E
:1019F600126E1450D96EDA6ADF50D96EDA6ADF5089
:101A060075EC1AF025EF0DF01450D96EDA6A010E56
:101A1600D926DF50156E166A1650000AD8B416EF8E
:101A26000DF025EF0DF01550000AD8B4D0EF0CF0EC
:101A3600010AD8B4D9EF0CF0030AD8B4E2EF0CF0DF
:101A460025EF0DF04C0E0E6E0F6A64EC1AF0020ACA
:101A5600D8A430EF0DF032EF0DF08DEF0DF01450ED
:101A6600D96EDA6A010ED926DE04D8A43DEF0DF050
:101A76003FEF0DF05CEF0DF01450D96EDA6ADF50CF
:101A8600D96EDA6ADF2A1450D96EDA6ADF50D96E57
:101A9600DA6A180EDE18D8A453EF0DF055EF0DF0E4
:101AA6005CEF0DF01450D96EDA6ADF50D96EDA6A3F
:101AB600DF6A1450D96EDA6A010ED926020EDE18D4
:101AC600D8A468EF0DF06AEF0DF08DEF0DF014500D
:101AD600D96EDA6ADF50D96EDA6A010ED926DF2AA4
:101AE6001450D96EDA6ADF50D96EDA6A010ED92639
:101AF6003C0EDE18D8A482EF0DF084EF0DF08DEFCA
:101B06000DF01450D96EDA6ADF50D96EDA6A010E1A
:101B1600D926DF6AB60E0E6E010E0F6E64EC1AF051
:101B2600020AD8A499EF0DF09BEF0DF0F6EF0DF039
:101B36001450D96EDA6A010ED926DE04D8A4A6EFAF
:101B46000DF0A8EF0DF0C5EF0DF01450D96EDA6A5E
:101B5600DF50D96EDA6ADF50D8A4B4EF0DF0B6EFD5
:101B66000DF0BEEF0DF01450D96EDA6ADF50D96E63
:101B7600DA6A180EDF6E1450D96EDA6ADF50D96E43
:101B8600DA6ADF061450D96EDA6A010ED926020E19
:101B9600DE18D8A4D1EF0DF0D3EF0DF0F6EF0DF06F
:101BA6001450D96EDA6ADF50D96EDA6A010ED92678
:101BB600DF50D8A4E1EF0DF0E3EF0DF0EDEF0DF0FF
:101BC6001450D96EDA6ADF50D96EDA6A010ED92658
:101BD6003C0EDF6E1450D96EDA6ADF50D96EDA6ABF
:101BE600010ED926DF0612000001C64BC72BD8C04E
:101BF6001BF0D9C01CF0D8901B361C361B50C65D96
:101C06001C50C759D8A00AEF0EF00CEF0EF00FEFDC
:101C16000EF0C76B000EC66F4804D8A415EF0EF081
:101C260017EF0EF07BEF0EF03FC016F040C017F036
:101C3600010E186E000E196EB8EC16F041C016F0C3
:101C460042C017F0000E186E000E196EB8EC16F0B2
:101C5600070E4124166E000E4220176E000E186EF7
:101C6600000E196EB8EC16F00E0E4124166E000E1C
:101C76004220176E000E186E000E196EB8EC16F0A4
:101C8600150E4124166E000E4220176E000E186EB9
:101C9600000E196EB8EC16F03DC016F03EC017F0F7
:101CA600000E186E010E196EB8EC16F00001D85130
:101CB600C65DD951C759D8B063EF0EF065EF0EF087
:101CC60071EF0EF03DC016F03EC017F0010E186E13
:101CD600010E196EB8EC16F07BEF0EF03DC016F053
:101CE6003EC017F0000E186E010E196EB8EC16F015
:101CF600206A91EF0EF02050070DF3CF1BF0F4CFC2
:101D06001CF01B504124166E1C504220176E000E0C
:101D1600186E000E196EB8EC16F0202A4650205C9C
:101D2600D8A098EF0EF09AEF0EF07EEF0EF0452A4F
:101D36004650455CD8A0A2EF0EF0A4EF0EF0A5EF3A
:101D46000EF0456A216A2150070DF3CF1BF0F4CF40
:101D56001CF01B504324166E1C504420176E000EB8
:101D6600186E010E196EB8EC16F04550C20FD96EFA
:101D7600DA6ADF501B6E1B50010F1C6E1CC0F6FF8B
:101D8600080EF76E0800F5CF1DF021C01EF0010EFB
:101D96001F6E1E2AD1EF0EF0D8901F361E2ECFEFE3
:101DA6000EF01F501D140009D8B4DCEF0EF0DEEF64
:101DB6000EF0F2EF0EF02150070DF3CF1BF0F4CF2B
:101DC6001CF01B504324166E1C504420176E010E47
:101DD600186E010E196EB8EC16F004EF0FF02150D4
:101DE600070DF3CF1BF0F4CF1CF01B504324166EE7
:101DF6001C504420176E000E186E010E196EB8ECBA
:101E060016F0212A060E21640BEF0FF00DEF0FF0EE
:101E1600A6EF0EF04550070DF3CF1BF0F4CF1CF0E4
:101E26001B504124166E1C504220176E010E186E70
:101E3600000E196EB8EC16F0120020EE02F01550E6
:101E4600D9261650DA22DE04D8A42CEF0FF02EEF96
:101E56000FF045EF0FF015C0D9FF16C0DAFFDECF41
:101E66000EF0DDCF0FF0EEEC18F0E806D8B43EEF3A
:101E76000FF041EF0FF0010E42EF0FF0000E196E5A
:101E86005AEF0FF015C0D9FF16C0DAFFDECF0EF0FD
:101E9600DDCF0FF0EEEC18F0E806D8A455EF0FF002
:101EA60058EF0FF0010E59EF0FF0000E196E20EEED
:101EB60003F01550D9261650DA221950DE18D8A488
:101EC60067EF0FF069EF0FF072EF0FF020EE05F0FD
:101ED6001550D9261650DA22DF6AF5EF0FF020EEFC
:101EE60005F01550D9261650DA22DF2A20EE06F024
:101EF6001550D9261650DA2210EE05F01550E126B7
:101F06001650E222DE50E65CD8A08CEF0FF08EEF82
:101F16000FF0F5EF0FF020EE03F01550D92616500E
:101F2600DA2210EE04F01550E1261650E222DFCF39
:101F3600E7FF20EE03F01550D9261650DA2219C015
:101F4600DFFF20EE04F01550D9261650DA22DF50B6
:101F5600D8A4B0EF0FF0B2EF0FF0CAEF0FF020EEFB
:101F660003F01550D9261650DA22DE04D8A4BEEFA7
:101F76000FF0C0EF0FF0CAEF0FF020EE07F015508C
:101F8600D9261650DA22010EDF6EEEEF0FF020EEA4
:101F960004F01550D9261650DA22DE04D8A4D6EF5E
:101FA6000FF0D8EF0FF0EEEF0FF020EE03F0155024
:101FB600D9261650DA22DF50D8A4E4EF0FF0E6EF68
:101FC6000FF0EEEF0FF020EE07F01550D926165061
:101FD600DA22020EDF6E20EE05F01550D9261650D5
:101FE600DA22DF6A120020EE04F01B50D9261C50BC
:101FF600DA22DECF43F0DDCF44F020EE06F01B50B0
:10200600D9261C50DA22DECF41F0DDCF42F020EE99
:102016000AF01B50D9261C50DA22DECF3FF0DDCF66
:1020260040F020EE08F01B50D9261C50DA22DECFF5
:102036003DF0DDCF3EF01BC0D9FF1CC0DAFFDF50FC
:10204600486E20EE01F01B50D9261C50DA22DF50D4
:10205600476E20EE02F01B50D9261C50DA22DF50C4
:102066000001CA6F20EE03F01B50D9261C50DA225D
:10207600DF50466E206A2050070DF3CF1DF0F4CFD7
:102086001EF01D5043240E6E1E5044200F6E000E8F
:10209600106EF6EC13F02050070DF3CF1DF0F4CFC1
:1020A6001EF01D504324166E1E504420176E000E5F
:1020B600186E010E196EB8EC16F0202A060E206472
:1020C60067EF10F069EF10F03EEF10F01F6A8FEF28
:1020D60010F01F50070DF3CF1DF0F4CF1EF01D506A
:1020E60041240E6E1E5042200F6E000E106EF6EC4E
:1020F60013F01F50070DF3CF1DF0F4CF1EF01D5047
:102106004124166E1E504220176E000E186E000EE9
:10211600196EB8EC16F01F2A46501F5CD8A096EF31
:1021260010F098EF10F06CEF10F04804D8A49EEF72
:1021360010F0A0EF10F0C4EF10F03DC00EF03EC05E
:102146000FF0000E106EF6EC13F03DC016F03EC018
:1021560017F0000E186E010E196EB8EC16F03FC09F
:102166000EF040C00FF0000E106EF6EC13F03FC0FC
:1021760016F040C017F0000E186E000E196EB8EC7F
:1021860016F012000001B16B000EB06F7C517D118C
:102196007E117F11D8A4D2EF10F0D4EF10F0D5EF56
:1021A60010F089998AA5DAEF10F0DCEF10F0E7EF6E
:1021B60010F07C517D117E117F11D8B4E5EF10F03F
:1021C600E7EF10F060EF11F07CC00EF07DC00FF06D
:1021D6007EC010F07FC011F081C012F082C013F0F3
:1021E60083C014F084C015F0F2EC15F00E50000117
:1021F600AF6F090EAF6502EF11F004EF11F021EF9A
:1022060011F089BB09EF11F00BEF11F010EF11F08F
:10221600AE6B610EAD6F13EF11F0AE6B410EAD6F8D
:10222600AF51AD25326E000EAE21336EF60E32245E
:10223600AB6FFF0E3320AC6F27EF11F0300EAF25DA
:10224600AB6FAC6B000EAC23B0518B0FD96EDA6A54
:10225600ABC0DFFFB04BB12B7CC00EF07DC00FF0E2
:102266007EC010F07FC011F081C012F082C013F062
:1022760083C014F084C015F0A4EC13F00EC07CF0FB
:102286000FC07DF010C07EF011C07FF000017C51C0
:102296007D117E117F11D8B453EF11F055EF11F077
:1022A60060EF11F0B15109E1200EB05DD8A05EEFEC
:1022B60011F060EF11F0E7EF10F074C060F075C038
:1022C60061F076C062F077C063F078C064F079C0E0
:1022D60065F07AC066F07BC067F08B0E686FB0C0A1
:1022E60069F0B1C06AF080C06BF081C06CF082C04A
:1022F6006DF085C06EF086C06FF087C070F088C044
:1023060071F089C072F08AC073F026EC0BF060C0E1
:1023160074F061C075F01200D60E1C6ED30E1D6EE1
:1023260055EC18F0DA0E0E6EDDEC19F0DA0E166EBC
:1023360089EC18F0B1EC1AF003EC1BF04D0E1B6E95
:10234600010E1C6EF6EC0FF0FFEC1AF0D30E176EB2
:10235600000E186E000E196E000E1A6E20EC18F0A4
:102366009CEC19F0D60E146EC1EC0CF0A3EC1AF02E
:102376000009D8B4C1EF11F0C3EF11F0C7EF11F0A7
:1023860053EC1AF0F7EC0DF095EC1AF00009D8B4FE
:10239600CFEF11F0D1EF11F0F2EF11F00001D751AC
:1023A600D8A4D8EF11F0DAEF11F0F2EF11F0D30E56
:1023B6000E6E22EC15F0D30E0E6EF9EC19F00EC06F
:1023C60015F00FC016F01FEC19F0D30E3B6E4CEC57
:1023D60019F0010E0F6EF40E0E6EFAEC1AF00001F3
:1023E600D705D8A4F9EF11F0FBEF11F00AEF12F0C0
:1023F6000F6A960E0E6EFAEC1AF0D30E0E6EF9EC0C
:1024060019F00EC015F00FC016F01FEC19F0020EF1
:102416000001D719D8A412EF12F014EF12F023EF2F
:1024260012F00F6A960E0E6EFAEC1AF0D30E0E6EBE
:10243600F9EC19F00EC015F00FC016F01FEC19F0EC
:102446003C0E136EDFEC1AF00009D8B42DEF12F033
:102456002FEF12F0B3EF11F0410E3C18D8A436EF6F
:1024660012F038EF12F03FEF12F01C0E0101EA6F86
:1024760012EC1AF0B3EF11F0420E3C18D8A446EF56
:1024860012F048EF12F0B3EF11F0200E0101EA6FDF
:1024960012EC1AF0B3EF11F007EF00F01FC02CF0AA
:1024A60020C02DF028B25AEF12F05CEF12F0B7EF11
:1024B60012F028B061EF12F063EF12F0B7EF12F0EE
:1024C60024C02EF025C02FF087EF12F0200E146ED8
:1024D6001DC015F01EC016F01FC017F020C018F062
:1024E60021C019F022C01AF002D883EF12F00500BD
:1024F600FA6E1B50FD6E1C50FE6EFF6AFA501200FB
:102506001F4A202A2E4A2F2A26502E5C27502F5843
:10251600D8A090EF12F092EF12F069EF12F0B7EF39
:1025260012F02406D8A0250623502424D96EDA6A90
:10253600DF50146E1DC015F01EC016F01FC017F038
:1025460020C018F021C019F022C01AF002D8B5EF49
:1025560012F00500FA6E1B50FD6E1C50FE6EFF6AEF
:10256600FA5012001F4A202A24502510D8A4BEEF84
:1025760012F0C0EF12F094EF12F028A2C5EF12F09D
:10258600C7EF12F0F6EF12F0E5EF12F0200E146E20
:102596001DC015F01EC016F01FC017F020C018F0A1
:1025A60021C019F022C01AF002D8E3EF12F005009C
:1025B600FA6E1B50FD6E1C50FE6EFF6AFA5012003A
:1025C6001F4A202A2C501F5C2A6E2D5020582B6E35
:1025D60026502A5C27502B58D8A0F4EF12F0F6EFBD
:1025E60012F0C9EF12F01FC01BF020C01CF0120041
:1025F600136A0FBE03EF13F001EF13F009EF13F0A8
:102606000E6C0F1ED8B00F2A010E136E11BE10EFFE
:1026160013F00EEF13F014EF13F0106C111ED8B078
:10262600112A10501110D8B41BEF13F01DEF13F040
:1026360041EF13F0010E126E25EF13F0D89010360D
:102646001136122A11AE2AEF13F02CEF13F021EFF8
:1026560013F010500E5C11500F58D8A035EF13F040
:1026660037EF13F03BEF13F010500E5E11500F5A78
:10267600D89011321032122E2CEF13F01350D8B41A
:1026860047EF13F049EF13F04DEF13F00E6C0F1EEA
:10269600D8B00F2A0EC00EF00FC00FF012001004B3
:1026A600D8A458EF13F05AEF13F07EEF13F020EE94
:1026B60006F00E50D9260F50DA22DF50116E010EA9
:1026C600126E112A69EF13F0D8901236112E67EFA9
:1026D60013F020EE02F00E50D9260F50DA22DECF8C
:1026E60013F0DDCF14F013C0D9FF14C0DAFF125077
:1026F600DF12A3EF13F020EE06F00E50D9260F508E
:10270600DA22DF50116E010E126E112A8DEF13F0D0
:10271600D8901236112E8BEF13F01250FF0A136E5B
:1027260020EE02F00E50D9260F50DA22DECF14F03A
:10273600DDCF15F014C0D9FF15C0DAFF1350DF1630
:102746001200000E176E000E186E000E196E000EA7
:102756001A6E1250131014101510D8B4B5EF13F0EA
:10276600B7EF13F0EDEF13F0010E166EC1EF13F095
:10277600D8901236133614361536162A15AEC6EF0D
:1027860013F0C8EF13F0BBEF13F0D89017361836D6
:1027960019361A3612500E5C13500F581450105832
:1027A60015501158D8A0DAEF13F0DCEF13F0E5EF6F
:1027B60013F012500E5E13500F5A1450105A155043
:1027C600115A1780D8901532143213321232162E3F
:1027D600C8EF13F017C00EF018C00FF019C010F0B4
:1027E6001AC011F012001050D8A4FCEF13F0FEEF3F
:1027F60013F023EF14F020EE06F00E50D9260F50FA
:10280600DA22DF50116E010E126E112A0DEF14F04E
:10281600D8901236112E0BEF14F01250FF0A136ED9
:102826000EC0D9FF0FC0DAFFDECF14F0DDCF15F0F2
:1028360014C0D9FF15C0DAFF1350DF1643EF14F0AA
:1028460020EE06F00E50D9260F50DA22DF50116E18
:10285600010E126E112A32EF14F0D8901236112E94
:1028660030EF14F00EC0D9FF0FC0DAFFDECF13F041
:10287600DDCF14F013C0D9FF14C0DAFF1250DF12F7
:10288600120020EE15F00E50D9260F50DA2210EE67
:1028960014F00E50E1260F50E222DE50E618D8A4BE
:1028A60057EF14F059EF14F05CEF14F0000E8DEFB3
:1028B60014F020EE15F00E50D9260F50DA22DF5014
:1028C600116E11500E24D96E000E0F20DA6E1050C4
:1028D600E16EE26ADFCFE7FF20EE15F00E50D92653
:1028E6000F50DA22DF2A20EE15F00E50D9260F50AF
:1028F600DA22140EDE18D8A483EF14F085EF14F054
:102906008CEF14F020EE15F00E50D9260F50DA2277
:10291600DF6A010E12009EAA93EF14F095EF14F0F1
:10292600B4EF14F0ABA29AEF14F09CEF14F0A0EF02
:1029360014F0AB98AB88D7EF14F0ABA4A5EF14F066
:10294600A7EF14F0AAEF14F0AE50D7EF14F0AECF05
:1029560007F08A0E026E010E036E07C004F034EC17
:1029660017F09EA8B9EF14F0BBEF14F0D7EF14F0F0
:102976009DA8C0EF14F0C2EF14F0D7EF14F0A00E2C
:10298600026E010E036E080E046ED8EC14F00009F8
:10299600D8B4D0EF14F0D2EF14F0D6EF14F008C08C
:1029A600ADFFD7EF14F09D98120020EE15F00250FF
:1029B600D9260350DA2210EE14F00250E126035015
:1029C600E222DE50E618D8A4EBEF14F0EDEF14F097
:1029D600F0EF14F0000E21EF15F020EE15F0025086
:1029E600D9260350DA22DF50056E05500224D96E2F
:1029F600000E0320DA6E0450E16EE26ADFCFE7FFD5
:102A060020EE15F00250D9260350DA22DF2A20EEF6
:102A160015F00250D9260350DA22140EDE18D8A477
:102A260017EF15F019EF15F020EF15F020EE15F061
:102A36000250D9260350DA22DF6A010E12000E5028
:102A4600D96EDA6A020ED926DF2A0E50D96EDA6AF4
:102A5600020ED9263B0EDF6433EF15F035EF15F085
:102A660067EF15F00E50D96EDA6A020ED926DF6AC4
:102A76000E50D96EDA6A010ED926DF2A0E50D96EAB
:102A8600DA6A010ED9263B0EDF644CEF15F04EEFE5
:102A960015F067EF15F00E50D96EDA6A010ED926D9
:102AA600DF6A0E50D96EDA6ADF2A0E50D96EDA6AFC
:102AB600170EDF6461EF15F063EF15F067EF15F0A1
:102AC6000E50D96EDA6ADF6A1200950F8C0F830FEB
:102AD60000950F8C0F830F01950F8C0F830F0295B6
:102AE6000F8C0F830F03950F8C0F830F04950F8C9C
:102AF6000F830F05950F8C0F830F06930F8A0F8197
:102B06000F04930F8A0F810F05930F8A0F810F060B
:102B1600930F8A0F810F0701010004000131018321
:102B2600017C01930F8A0F810F02930F8A0F810F89
:102B360001930F8A0F810F00940F8B0F820F06945B
:102B46000F8B0F820F07960F8D0F840F00950F8C3A
:102B56000F830F07000EE8EC1AF0A50AD8B4B6EFFB
:102B660015F0B8EF15F0DCEF15F01450D96EDA6AEF
:102B76000C0EDF6E1550D96EDA6ADF6A1650D96E02
:102B8600DA6ADF6A1550D96EDA6ADF50116E1650AE
:102B9600D96EDA6ADF50126E1450D96EDA6ADF50D7
:102BA60075EC1AF0A50E0E6E000EBDEC19F0F1EFE5
:102BB60015F01450D96EDA6A010EE8EC1AF0DF6EE1
:102BC6001550D96EDA6A020EE8EC1AF0DF6E16506E
:102BD600D96EDA6A030EE8EC1AF0DF6E12001250B4
:102BE600131014101510D8B4FBEF15F0FDEF15F007
:102BF6002DEF16F0010E166E07EF16F0D89012366E
:102C0600133614361536162A15AE0CEF16F00EEFDF
:102C160016F001EF16F012500E5C13500F581450B8
:102C2600105815501158D8A01BEF16F01DEF16F0CE
:102C360025EF16F012500E5E13500F5A1450105A0C
:102C46001550115AD8901532143213321232162EEC
:102C56000EEF16F00EC00EF00FC00FF010C010F001
:102C660011C011F0120016C0D9FF17C0DAFF18C044
:102C7600DEFF19C0DDFF20EE02F01650D9261750F0
:102C8600DA221AC0DFFF20EE03F01650D9261750BD
:102C9600DA22DF6A20EE04F01650D9261750DA221F
:102CA600DF6A20EE05F01650D9261750DA22DF6AC1
:102CB60020EE06F01650D9261750DA221BC0DFFF89
:102CC60020EE07F01650D9261750DA22DF6A16C012
:102CD600D9FF17C0DAFFDECF0EF0DDCF0FF0010E01
:102CE600106EF6EC13F012000600E1CF0AF0E2CF08
:102CF6000BF0D9CF0CF0DACF0DF0000E9EBA010E14
:102D06009EB8010EE8B08AEF16F08EEF16F0096A4B
:102D1600092A8FEF16F0096A0950D8B495EF16F014
:102D260097EF16F099EF16F08EEC14F0F2A49EEFE2
:102D360016F0A0EF16F0AEEF16F0F2AAA5EF16F019
:102D4600A7EF16F0AEEF16F0F294FB0ED76E1E0E3E
:102D5600D66ED5EC1AF00DC0DAFF0CC0D9FF0BC049
:102D6600E2FF0AC0E1FF019211001950D8A4BEEF9C
:102D760016F0C0EF16F0E3EF16F00001CA05D8A46E
:102D8600C7EF16F0C9EF16F0D6EF16F01804D8B450
:102D9600CFEF16F0D2EF16F0010ED3EF16F0000EBD
:102DA6001A6EEDEF16F01850D8B4DCEF16F0DFEF20
:102DB60016F0010EE0EF16F0000E1A6EEDEF16F0AB
:102DC6004704D8A4E9EF16F0EBEF16F0D6EF16F0AD
:102DD600C9EF16F016C00EF017C00FF01AC010F0AB
:102DE60052EC13F0120020EE14F00E50D9260F50BC
:102DF600DA22DF50116E1128126E140E1218D8A4A2
:102E060007EF17F009EF17F00AEF17F0126A20EE36
:102E160015F00E50D9260F50DA221250DE18D8A41B
:102E260017EF17F019EF17F01BEF17F033EF17F046
:102E360020EE14F00E50D9260F50DA22DF50116E14
:102E460011500E24D96E000E0F20DA6E10C0DFFF6F
:102E560020EE14F00E50D9260F50DA2212C0DFFFF2
:102E6600120020EE14F00250D9260350DA22DF5069
:102E7600056E0528066E140E0618D8A445EF17F041
:102E860047EF17F048EF17F0066A20EE15F00250EC
:102E9600D9260350DA220650DE18D8A455EF17F0CB
:102EA60057EF17F059EF17F071EF17F020EE14F007
:102EB6000250D9260350DA22DF50056E055002244F
:102EC600D96E000E0320DA6E04C0DFFF20EE14F088
:102ED6000250D9260350DA2206C0DFFF1200166A16
:102EE600000E156E96EF17F00A0E1502F3CF12F0CC
:102EF600F4CF13F01602F35013261050D96EDA6A87
:102F0600DFCF14F0010EDF2614C0F6FF080EF76EB1
:102F16000800F5501226000E1322D00E1224156E4C
:102F2600FF0E1320166E1050D96EDA6ADFCFF6FF49
:102F3600080EF76E0800F55029EC1AF00009D8A41F
:102F4600A7EF17F0A9EF17F077EF17F015C010F0FD
:102F560016C011F01200D00EF66E2A0EF76E000E95
:102F6600F86E01EE00F010EE8AF00900F5CFEEFFE4
:102F7600E550E150FAE1E00EF66E350EF76E000E02
:102F8600F86E00EED8F010EE0AF00900F5CFEEFF6D
:102F9600E550E150FAE101EE8AF0340EEE6AE806F9
:102FA600FDE100EEBEF01A0EEE6AE806FDE100EE67
:102FB6003DF0170EEE6AE806FDE101900192000E63
:102FC600F86E00018FEF11F0146A000E136E1050A8
:102FD6001110D8B4F1EF17F0F3EF17F01BEF18F05C
:102FE600010E126EFBEF17F0D89010361136122A2A
:102FF60011AE00EF18F002EF18F0F7EF17F0D890C7
:103006001336143610500E5C11500F58D8A00EEF20
:1030160018F010EF18F015EF18F010500E5E115062
:103026000F5A1380D89011321032122E02EF18F078
:1030360013C00EF014C00FF012001750D96EDA6AE2
:1030460018C00EF00F6A116A180E106EFBEC12F023
:103056000E50DF6E1750D96EDA6A010ED92619C0E6
:103066000EF00F6A116A3C0E106EFBEC12F00E5059
:10307600DF6E1750D96EDA6A020ED9261AC00EF024
:103086000F6A116A3C0E106EFBEC12F00E50DF6EEA
:1030960017C014F01728156E1750020F166EADECF8
:1030A60015F012001C50D96EDA6A1DC0DFFF1C50E5
:1030B600D96EDA6A010ED926DF6ACB0E166E176A4A
:1030C600670E186E010E196E000E1A6E190E1B6E23
:1030D60036EC16F04C0E166E176A600E186E010E60
:1030E600196E000E1A6E190E1B6E36EC16F0B60E21
:1030F600166E010E176E590E186E010E196E000E21
:103106001A6E190E1B6E36EC16F012001650D96E9A
:10311600DA6ADECF0EF0DDCF0FF0010E106EF6ECA0
:1031260013F01650D96EDA6A020ED926DECF0EF0EB
:10313600DDCF0FF0010E106EF6EC13F0A00E0E6E42
:10314600010E0F6E86EC1AF08A0E0E6E010E0F6ED1
:1031560086EC1AF0AB8EAC8AAB889E989D989EAA98
:10316600B7EF18F0B9EF18F0BAEF18F0AE509D8A25
:10317600120010501110D8B4C3EF18F0C5EF18F0B4
:10318600E9EF18F0010E126ECDEF18F0D890103658
:103196001136122A11AED2EF18F0D4EF18F0C9EF9B
:1031A60018F010500E5C11500F58D8A0DDEF18F033
:1031B600DFEF18F0E3EF18F010500E5E11500F5AC3
:1031C600D89011321032122ED4EF18F00EC00EF035
:1031D6000FC00FF0120020EE04F00E50D9260F504B
:1031E600DA22DECF10F0DDCF11F010C0D9FF11C00A
:1031F600DAFFDF50126E20EE06F00E50D9260F5081
:10320600DA22DF50136E010E146E132A0DEF19F039
:10321600D8901436132E0BEF19F01450121400091F
:10322600D8B418EF19F01AEF19F01DEF19F0010EC6
:103236001EEF19F0000E1200186A42EF19F015C0C1
:103246000EF016C00FF0116A0A0E106EBCEC18F0E4
:103256000E50176E1850C1084624D96EDA6A17C088
:10326600DFFF15C00EF016C00FF0116A0A0E106EC1
:10327600E7EC17F00EC015F00FC016F0182A4650EE
:10328600185CD8A049EF19F04BEF19F022EF19F0AE
:1032960012000B0E0101EA6F3B50D96EDA6ADF505D
:1032A6000001BB6FBB510101EB6FEC6B3B50D96E5C
:1032B600DA6A010ED926DF500001BC6FBC5101014C
:1032C600ED6FEE6B3B50D96EDA6A020ED926DF50EF
:1032D6000001BD6FBD510101EF6FF06B12EC1AF0EA
:1032E60012000EC012F00FC013F07CEF19F0124A54
:1032F600132A12C0D9FF13C0DAFFDF50D8B486EF05
:1033060019F088EF19F095EF19F01006D8A01106FC
:10331600102806E11128D8A493EF19F095EF19F0BB
:103326007AEF19F00E50125C0E6E0F5013580F6E96
:103336001200B4EF19F04B06010E496E0001C84B9E
:10334600C92BE80EC85D030EC959D8A0ADEF19F018
:10335600AFEF19F0B4EF19F0C96B000EC86F010E8C
:103366004A6E4B50D8A4BAEF19F0BCEF19F09EEF95
:1033760019F012000F6E000EF2BE010E106E0FC095
:10338600A9FF0EC0A8FFA69EA69CA684F29E550E77
:10339600A76EAA0EA76EA68210B002D0F29E01D02A
:1033A600F28EA6B2D9EF19F0DBEF19F0D4EF19F0CF
:1033B600A6941200AC9CAB9CAC980E50D96EDA6AFF
:1033C600040ED926800EDE1809E1250EDE18DE1061
:1033D600DE10D8A4F1EF19F0F3EF19F0F8EF19F0B9
:1033E600AC84B896B06A810EAF6E12000E50D96EDC
:1033F600DA6A010ED926DF50106E0E50D96EDA6ADF
:10340600DF50116E1150640DF3CF12F0F4CF13F0AC
:10341600105012240E6E000E13200F6E1200EB0ECB
:10342600396E010E3A6E7C0E0001B26F350EB36F27
:10343600380EB46FB56BFF0EB76FB669EAC1B8F058
:10344600390EB96FBA6B13EC04F012000F6E0E6AE8
:103456002F0E0F6431EF1AF033EF1AF03DEF1AF02A
:103466003A0E0F6039EF1AF03BEF1AF03DEF1AF003
:10347600010E0E6E0E5012001950175C1A50185895
:10348600D8B048EF1AF04AEF1AF052EF1AF0175078
:103496001524D96E18501620DA6E14C0DFFF1200FC
:1034A600CB0E156E166A20EC0FF04C0E156E166AD2
:1034B60020EC0FF0B60E156E010E166E20EC0FF016
:1034C600120020EE07F00E50D9260F50DA22DF50F8
:1034D600106E20EE07F00E50D9260F50DA22DF6A62
:1034E60010501200136E13C00EF0010EBDEC19F051
:1034F60011C00EF0020EBDEC19F012C00EF0030E54
:10350600BDEC19F0120020EE14F00E50D9260F5023
:10351600DA22DF6A20EE15F00E50D9260F50DA2295
:10352600DF6A12004A50D8B49BEF1AF09DEF1AF0EA
:10353600A1EF1AF04A6A010EA2EF1AF0000E12006D
:103546004950D8B4A9EF1AF0ABEF1AF0AFEF1AF062
:10355600496A010EB0EF1AF0000E1200D56AD59C2A
:10356600D59AD596D550F80B0109D56EF5EC1AF01B
:10357600F294F28A12001450D8B4C4EF1AF0C6EFCF
:103586001AF0C9EF1AF01450CAEC1AF01200136EB2
:10359600A00E0E6E010E0F6E13C010F0F6EC16F0B4
:1035A6009D8812004B28D8B4DBEF1AF0DDEF1AF035
:1035B600DEEF1AF04B2A12008A0E0E6E010E0F6E07
:1035C60013C010F044EC14F012000E6E0EC0A9FFEA
:1035D600A69EA69CA680A8501200010075016E0149
:1035E60080250000FB0ED76E1E0ED66E12000EC092
:1035F600D8F00FC0D9F01200D09EF28CF28E1200D5
:08360600D58E12001200120023
:020000040030CA
:08000000000C1E1EFF8181FFB0
:00000001FF
