:0400000007EF00F016
:0A000800018282ED0CF0B3EF09F065
:10080000003F065B4F666D7D077F67253032753A86
:0D081000253032753A253032750D0A000092
:10081E002A0E4D6E3CEC0CF0020AD8A419EF04F02F
:10082E001BEF04F072EF04F054EF04F05350D96E46
:10083E00DA6A010ED926010EDF6E72EF04F0535004
:10084E00D96EDA6A010ED926020EDF6E72EF04F04F
:10085E005350D96EDA6A010ED926DF6A5350D96E1B
:10086E00DA6ADF50D96EDA6A010ED926DF50506E81
:10087E005350D96EDA6ADF50D96EDA6A020ED92673
:10088E00DF50516E5350D96EDA6ADF50D96EDA6A84
:10089E00DF502BEC0CF072EF04F05350D96EDA6A85
:1008AE00010ED926DF50546E556A5550000AD8B441
:1008BE0063EF04F072EF04F05450000AD8B41DEF49
:1008CE0004F0010AD8B426EF04F0030AD8B42FEFCF
:1008DE0004F072EF04F0230E4D6E3CEC0CF0020AA5
:1008EE00D8A47CEF04F07EEF04F0D9EF04F053505F
:1008FE00D96EDA6A010ED926DE04D8A489EF04F087
:10090E008BEF04F0A8EF04F05350D96EDA6ADF5083
:10091E00D96EDA6ADF2A5350D96EDA6ADF50D96E91
:10092E00DA6A180EDE18D8A49FEF04F0A1EF04F0D7
:10093E00A8EF04F05350D96EDA6ADF50D96EDA6A36
:10094E00DF6A5350D96EDA6A010ED926020EDE180E
:10095E00D8A4B4EF04F0B6EF04F0D9EF04F053507E
:10096E00D96EDA6ADF50D96EDA6A010ED926DF2A1D
:10097E005350D96EDA6ADF50D96EDA6A010ED92673
:10098E003C0EDE18D8A4CEEF04F0D0EF04F0D9EF71
:10099E0004F05350D96EDA6ADF50D96EDA6A010E5E
:1009AE00D926DF6A1C0E4D6E3CEC0CF0020AD8A460
:1009BE00E3EF04F0E5EF04F040EF05F05350D96E8D
:1009CE00DA6A010ED926DE04D8A4F0EF04F0F2EFB5
:1009DE0004F00FEF05F05350D96EDA6ADF50D96E7E
:1009EE00DA6ADF50D8A4FEEF04F000EF05F008EF4E
:1009FE0005F05350D96EDA6ADF50D96EDA6A180EE6
:100A0E00DF6E5350D96EDA6ADF50D96EDA6ADF06BE
:100A1E005350D96EDA6A010ED926020EDE18D8A40A
:100A2E001BEF05F01DEF05F040EF05F05350D96EAA
:100A3E00DA6ADF50D96EDA6A010ED926DF50D8A4F1
:100A4E002BEF05F02DEF05F037EF05F05350D96E73
:100A5E00DA6ADF50D96EDA6A010ED9263C0EDF6EE5
:100A6E005350D96EDA6ADF50D96EDA6A010ED92682
:100A7E00DF0612001250070D1650F3245A6E5AC09C
:100A8E0055F0566A000E576E000E586EF6EC09F0D1
:100A9E000001DC6BDC51070D1650F3245A6E5AC060
:100AAE0055F0566A000E576E000E586EF6EC09F0B1
:100ABE000001DC2B030EDC6567EF05F069EF05F036
:100ACE0051EF05F00A4A0B2A36C05AF037C05BF0D8
:100ADE00D8905A365B365A500A5C5B500B58D8A0E9
:100AEE007BEF05F07DEF05F080EF05F00B6A000E51
:100AFE000A6E1904D8A486EF05F088EF05F0B9EF59
:100B0E0005F015C055F0566A010E576E000E586E60
:100B1E00F6EC09F014C055F0566A000E576E010E31
:100B2E00586EF6EC09F036500A5C37500B58D8B0B8
:100B3E00A3EF05F0A5EF05F0B0EF05F014C055F0EA
:100B4E00566A010E576E010E586EF6EC09F0B9EFAB
:100B5E0005F014C055F0566A000E576E010E586E11
:100B6E00F6EC09F0122A1350125CD8A0C1EF05F072
:100B7E00C3EF05F0C4EF05F0126A0001DD6B1250F1
:100B8E00060FD96EDA6ADF505A6E5A50010F5B6E3D
:100B9E005BC0F6FF080EF76E0800F5CF5CF0DDC007
:100BAE005DF0010E5E6E5D2ADFEF05F0D8905E36C9
:100BBE005D2EDDEF05F05E505C140009D8B4EAEF4F
:100BCE0005F0ECEF05F001EF06F00001DD51070D29
:100BDE00F3CF5AF0F4CF5BF05A50AE25556E5B5002
:100BEE00AF21566E010E576E010E586EF6EC09F0DF
:100BFE0014EF06F00001DD51070DF3CF5AF0F4CFDC
:100C0E005BF05A50AE25556E5B50AF21566E000EFE
:100C1E00576E010E586EF6EC09F00001DD2B060E34
:100C2E00DD651CEF06F01EEF06F0C6EF05F0125064
:100C3E00070D1650F3245A6E5AC055F0566A010E1F
:100C4E00576E000E586EF6EC09F012005350D96E26
:100C5E00DA6A010ED926DE04D8A438EF06F03AEF90
:100C6E0006F04EEF06F05350D96EDA6ADF504D6E35
:100C7E000BEC0BF0E806D8B447EF06F04AEF06F09F
:100C8E00010E4BEF06F0000E566E60EF06F053505D
:100C9E00D96EDA6ADF504D6E0BEC0BF0E806D8A475
:100CAE005BEF06F05EEF06F0010E5FEF06F0000E52
:100CBE00566E5350D96EDA6A020ED9265650DE1889
:100CCE00D8A46CEF06F06EEF06F076EF06F05350F8
:100CDE00D96EDA6A040ED926DF6AECEF06F05350AD
:100CEE00D96EDA6A040ED926DF2A5350D96EDA6A23
:100CFE00050ED9265350E16EE26A040EE126DE504F
:100D0E00E65CD8A08DEF06F08FEF06F0ECEF06F064
:100D1E005350D96EDA6A020ED9265350E16EE26A4A
:100D2E00030EE126DFCFE7FF5350D96EDA6A020ECB
:100D3E00D92656C0DFFF5350D96EDA6A030ED92674
:100D4E00DF50D8A4ADEF06F0AFEF06F0C5EF06F01A
:100D5E005350D96EDA6A020ED926DE04D8A4BAEF41
:100D6E0006F0BCEF06F0C5EF06F05350D96EDA6A06
:100D7E00060ED926010EDF6EE6EF06F05350D96E41
:100D8E00DA6A030ED926DE04D8A4D0EF06F0D2EF2D
:100D9E0006F0E6EF06F05350D96EDA6A020ED92647
:100DAE00DF50D8A4DDEF06F0DFEF06F0E6EF06F039
:100DBE005350D96EDA6A060ED926020EDF6E5350E4
:100DCE00D96EDA6A040ED926DF6A12005A50D96E2D
:100DDE00DA6A040ED926DECFAEF0DDCFAFF05A5070
:100DEE00D96EDA6A060ED926DF50166E5A50D96EB3
:100DFE00DA6A080ED926DF50156E5A50D96EDA6AA5
:100E0E00070ED926DF50146E5A50D96EDA6ADF50AB
:100E1E00196E5A50D96EDA6A010ED926DF50186E45
:100E2E005A50D96EDA6A020ED926DF50176E5A5012
:100E3E00D96EDA6A030ED926DF50136E5E6A5E50E3
:100E4E00070DF3CF5BF0F4CF5CF05B500001AE25E5
:100E5E004D6E5C50AF214E6E000E4F6EDAEC08F008
:100E6E005E50070DF3CF5BF0F4CF5CF05B500001EA
:100E7E00AE25556E5C50AF21566E000E576E010EAC
:100E8E00586EF6EC09F05E2A060E5E6451EF07F01E
:100E9E0053EF07F026EF07F05D6A71EF07F05D5034
:100EAE00070D1650F3245B6E5BC04DF04E6A000EBC
:100EBE004F6EDAEC08F05D50070D1650F3245B6EA2
:100ECE005BC055F0566A000E576E000E586EF6EC6B
:100EDE0009F05D2A13505D5CD8A078EF07F07AEF29
:100EEE0007F056EF07F01904D8A480EF07F082EF51
:100EFE0007F0A2EF07F014C04DF04E6A000E4F6ED1
:100F0E00DAEC08F014C055F0566A000E576E010E5A
:100F1E00586EF6EC09F015C04DF04E6A000E4F6E8D
:100F2E00DAEC08F015C055F0566A000E576E000E3A
:100F3E00586EF6EC09F01200340E5A6E310E5B6EDE
:100F4E0067EC0BF04BEC0CF0B9EC0CF0820E5A6E19
:100F5E00EDEC06F0B5EC0CF0310E566E000E576E41
:100F6E00000E586E000E596EA4EC0AF0460E4D6E31
:100F7E004E6A000E4F6EDAEC08F0B8EC0BF0340E41
:100F8E00536E0FEC04F067EC0CF00009D8B4D2EFFE
:100F9E0007F0D4EF07F0D8EF07F075EC0CF041EC4A
:100FAE0005F059EC0CF00009D8B4E0EF07F0E2EFD1
:100FBE0007F0FEEF07F0310E4D6E28EC09F03550BC
:100FCE00D8A4ECEF07F0EEEF07F0FEEF07F0310ECE
:100FDE004D6EF9EC0BF04DC054F04EC055F03AEC9E
:100FEE000BF0010E4E6EF40E4D6EB0EC0CF035049F
:100FFE00D8A404EF08F006EF08F015EF08F04E6ADB
:10100E00960E4D6EB0EC0CF0310E4D6EF9EC0BF001
:10101E004DC054F04EC055F03AEC0BF0020E3518A0
:10102E00D8A41CEF08F01EEF08F0C4EF07F04E6ACC
:10103E00960E4D6EB0EC0CF0310E4D6EF9EC0BF0D1
:10104E004DC054F04EC055F03AEC0BF0C4EF07F023
:10105E0007EF00F0526A4EBE39EF08F037EF08F096
:10106E003FEF08F04D6C4E1ED8B04E2A010E526E58
:10107E0050BE46EF08F044EF08F04AEF08F04F6C10
:10108E00501ED8B0502A4F505010D8B451EF08F01F
:10109E0053EF08F077EF08F0010E516E5BEF08F09A
:1010AE00D8904F365036512A50AE60EF08F062EFAE
:1010BE0008F057EF08F04F504D5C50504E58D8A0E6
:1010CE006BEF08F06DEF08F071EF08F04F504D5ECA
:1010DE0050504E5AD89050324F32512E62EF08F087
:1010EE005250D8B47DEF08F07FEF08F083EF08F090
:1010FE004D6C4E1ED8B04E2A4DC04DF04EC04EF027
:10110E0012004F04D8A48EEF08F090EF08F0B4EF61
:10111E0008F020EE06F04D50D9264E50DA22DF5060
:10112E00506E010E516E502A9FEF08F0D890513636
:10113E00502E9DEF08F020EE02F04D50D9264E5065
:10114E00DA22DECF52F0DDCF53F052C0D9FF53C0BA
:10115E00DAFF5150DF12D9EF08F020EE06F04D50B5
:10116E00D9264E50DA22DF50506E010E516E502AA3
:10117E00C3EF08F0D8905136502EC1EF08F0515001
:10118E00FF0A526E20EE02F04D50D9264E50DA2252
:10119E00DECF53F0DDCF54F053C0D9FF54C0DAFF89
:1011AE005250DF1612004F50D8A4E0EF08F0E2EFD5
:1011BE0008F007EF09F020EE06F04D50D9264E50FC
:1011CE00DA22DF50506E010E516E502AF1EF08F008
:1011DE00D8905136502EEFEF08F05150FF0A526E54
:1011EE004DC0D9FF4EC0DAFFDECF53F0DDCF54F045
:1011FE0053C0D9FF54C0DAFF5250DF1627EF09F063
:10120E0020EE06F04D50D9264E50DA22DF50506EA9
:10121E00010E516E502A16EF09F0D8905136502E0D
:10122E0014EF09F04DC0D9FF4EC0DAFFDECF52F0F9
:10123E00DDCF53F052C0D9FF53C0DAFF5150DF1249
:10124E0012004D50D96EDA6A020ED926DF2A4D50A1
:10125E00D96EDA6A020ED9263B0EDF6439EF09F039
:10126E003BEF09F06DEF09F04D50D96EDA6A020EC0
:10127E00D926DF6A4D50D96EDA6A010ED926DF2AD9
:10128E004D50D96EDA6A010ED9263B0EDF6452EF4D
:10129E0009F054EF09F06DEF09F04D50D96EDA6A8E
:1012AE00010ED926DF6A4D50D96EDA6ADF2A4D500B
:1012BE00D96EDA6A170EDF6467EF09F069EF09F08D
:1012CE006DEF09F04D50D96EDA6ADF6A1200000E2A
:1012DE00A8EC0CF0A50AD8B477EF09F079EF09F075
:1012EE009DEF09F05350D96EDA6A0C0EDF6E545032
:1012FE00D96EDA6ADF6A5550D96EDA6ADF6A5450EF
:10130E00D96EDA6ADF50506E5550D96EDA6ADF50F8
:10131E00516E5350D96EDA6ADF502BEC0CF0A50EDD
:10132E004D6E000ED9EC0BF0B2EF09F05350D96EA2
:10133E00DA6A010EA8EC0CF0DF6E5450D96EDA6A40
:10134E00020EA8EC0CF0DF6E5550D96EDA6A030E61
:10135E00A8EC0CF0DF6E1200240EF66E180EF76E6F
:10136E00000EF86E01EE00F010EE31F00900F5CF30
:10137E00EEFFE550E150FAE1220EF66E170EF76E13
:10138E00000EF86E00EE60F010EE4EF00900F5CF94
:10139E00EEFFE550E150FAE1380EF66E190EF76EDB
:1013AE00000EF86E00EE36F010EE17F00900F5CFD5
:1013BE00EEFFE550E150FAE100EEAEF02E0EEE6AD1
:1013CE00E806FDE100EE02F0340EEE6AE806FDE1FD
:1013DE0001900192000EF86E0001A3EF07F0585035
:1013EE00D8A4FCEF09F0FEEF09F020EF0AF0170485
:1013FE00D8A404EF0AF006EF0AF013EF0AF0570430
:10140E00D8B40CEF0AF00FEF0AF0010E10EF0AF04D
:10141E00000E596E2AEF0AF05750D8B419EF0AF0A1
:10142E001CEF0AF0010E1DEF0AF0000E596E2AEFA6
:10143E000AF01804D8A426EF0AF028EF0AF013EFEA
:10144E000AF006EF0AF055C04DF056C04EF059C0E6
:10145E004FF088EC08F01200526A000E516E4F5099
:10146E005010D8B43DEF0AF03FEF0AF067EF0AF0E4
:10147E00010E536E47EF0AF0D8904F365036532A6E
:10148E0050AE4CEF0AF04EEF0AF043EF0AF0D89050
:10149E00513652364F504D5C50504E58D8A05AEFE0
:1014AE000AF05CEF0AF061EF0AF04F504D5E5050BB
:1014BE004E5A5180D89050324F32532E4EEF0AF082
:1014CE0051C04DF052C04EF012005550D96EDA6A2E
:1014DE0056C0DFFF5550D96EDA6A010ED92657C0B5
:1014EE00DFFF5550D96EDA6A020ED926DF6A5550E3
:1014FE00D96EDA6A030ED926DF6A5550D96EDA6ACA
:10150E00040ED926DF6A5550D96EDA6A050ED92631
:10151E0058C0DFFF5550D96EDA6A060ED926DF6A3B
:10152E005550D96EDA6ADF50596E59C04DF04E6A79
:10153E00010E4F6EDAEC08F012005650D96EDA6AD0
:10154E0057C04DF04E6A506A180E4F6E31EC08F0CF
:10155E004D50DF6E5650D96EDA6A010ED92658C03C
:10156E004DF04E6A506A3C0E4F6E31EC08F04D5005
:10157E00DF6E5650D96EDA6A020ED92659C04DF07A
:10158E004E6A506A3C0E4F6E31EC08F04D50DF6ED5
:10159E0056C053F05628546E5650020F556E6EECD0
:1015AE0009F012004F505010D8B4E0EF0AF0E2EFFD
:1015BE000AF006EF0BF0010E516EEAEF0AF0D8902A
:1015CE004F365036512A50AEEFEF0AF0F1EF0AF0D7
:1015DE00E6EF0AF04F504D5C50504E58D8A0FAEF3F
:1015EE000AF0FCEF0AF000EF0BF04F504D5E50503A
:1015FE004E5AD89050324F32512EF1EF0AF04DC064
:10160E004DF04EC04EF012004D50D96EDA6A040EF7
:10161E00D926DECF4EF0DDCF4FF04EC0D9FF4FC0F2
:10162E00DAFFDF50506E4D50D96EDA6A060ED926AB
:10163E00DF50516E010E526E512A28EF0BF0D890EA
:10164E005236512E26EF0BF0525050140009D8B4DA
:10165E0033EF0BF035EF0BF038EF0BF0010E39EFE7
:10166E000BF0000E1200576A5DEF0BF054C04DF0F8
:10167E0055C04EF0506A0A0E4F6ED9EC0AF04D501E
:10168E00566E575005081324D96EDA6A56C0DFFF1E
:10169E0054C04DF055C04EF0506A0A0E4F6E33ECEA
:1016AE000AF04DC054F04EC055F0572A1350575CF7
:1016BE00D8A064EF0BF066EF0BF03DEF0BF01200CD
:1016CE005A50D96EDA6A5BC0DFFF5A50D96EDA6AA9
:1016DE00010ED926DF6A2A0E556E3F0E566E000E8B
:1016EE00576E190E586E6CEC0AF0230E556E380EAE
:1016FE00566E000E576E190E586E6CEC0AF01C0EDC
:10170E00556E8B0E566E000E576E190E586E6CEC93
:10171E000AF01200999280250000930F8A0F810F14
:10172E0004930F8A0F810F05930F8A0F810F069373
:10173E000F8A0F810F0701010104000166A7A09314
:10174E000F8A0F810F02940F8B0F820F06940F8B4F
:10175E000F820F07960F8D0F840F00950F8C0F833E
:10176E000F070E500F10D8B4BFEF0BF0C1EF0BF0F8
:10177E00D8EF0BF00E06D8A00F06010E1A6E0C4A0B
:10178E000D2AE80E0C5C030E0D58D8A0D1EF0BF00D
:10179E00D3EF0BF0D8EF0BF00D6A000E0C6E010EAE
:1017AE001B6E12004E6E000EF2BE010E4F6E4EC03C
:1017BE00A9FF4DC0A8FFA69EA69CA684F29E550E1C
:1017CE00A76EAA0EA76EA6824FB002D0F29E01D0CF
:1017DE00F28EA6B2F5EF0BF0F7EF0BF0F0EF0BF089
:1017EE00A69412004D50D96EDA6A010ED926DF503A
:1017FE004F6E4D50D96EDA6ADF50506E5050640DF8
:10180E00F3CF51F0F4CF52F04F5051244D6E000EE5
:10181E0052204E6E1200950F8C0F830F00950F8C79
:10182E000F830F01950F8C0F830F02950F8C0F8373
:10183E000F03950F8C0F830F04950F8C0F830F05DD
:07184E00950F8C0F830F06BC
:10185600526E52C04DF0010ED9EC0BF050C04DF057
:10186600020ED9EC0BF051C04DF0030ED9EC0BF083
:1018760012004D50D96EDA6A060ED926DF504E6E2A
:101886004D50D96EDA6A060ED926DF6A4E5012001E
:10189600CA50FC0B0109CA6ECA50870B4809CA6EAA
:1018A6007C0ECB6E9E929D82CA8412001B50D8B4C9
:1018B6005FEF0CF061EF0CF065EF0CF01B6A010EA8
:1018C60066EF0CF0000E12001A50D8B46DEF0CF053
:1018D6006FEF0CF073EF0CF01A6A010E74EF0CF058
:1018E600000E12002A0E536E2DEC06F0230E536ED8
:1018F6002DEC06F01C0E536E2DEC06F012000600C1
:101906009EA288EF0CF08AEF0CF08DEF0CF09E9201
:101916008FEC0CF0019211000F5006E10E28D8B0A2
:1019260097EF0CF099EF0CF09BEF0CF00E4A0F2A94
:1019360012000100930F8A0F810F01930F8A0F8106
:091946000F00940F8B0F820F00BB
:101950004D6E4DC0A9FFA69EA69CA680A850120061
:101960004DC036F04EC037F01200D09EF28CF28E91
:061970001200CA841200FF
:020000040030CA
:08000000040C1E1EFF8181FFAC
:00000001FF
