:04000000FEEF3FF0E0
:1008000000001A04D8A407EF04F009EF04F02BEF5E
:1008100004F01950D96EDA6A060ED926DF501B6E25
:10082000010E1C6E1B2A17EF04F0D8901C361B2EED
:1008300015EF04F01950D96EDA6A020ED926DECF10
:100840001DF0DDCF1EF01DC0D9FF1EC0DAFF1C5009
:10085000DF124EEF04F01950D96EDA6A060ED9266F
:10086000DF501B6E010E1C6E1B2A39EF04F0D8906E
:100870001C361B2E37EF04F01C50FF0A1D6E19505A
:10088000D96EDA6A020ED926DECF1EF0DDCF1FF058
:100890001EC0D9FF1FC0DAFF1D50DF1612001A500C
:1008A000D8A455EF04F057EF04F07AEF04F0195094
:1008B000D96EDA6A060ED926DF501B6E010E1C6E49
:1008C0001B2A65EF04F0D8901C361B2E63EF04F052
:1008D0001C50FF0A1D6E1950D96EDA6ADECF1EF069
:1008E000DDCF1FF01EC0D9FF1FC0DAFF1D50DF167D
:1008F00098EF04F01950D96EDA6A060ED926DF5047
:100900001B6E010E1C6E1B2A88EF04F0D8901C365B
:100910001B2E86EF04F01950D96EDA6ADECF1DF077
:10092000DDCF1EF01DC0D9FF1EC0DAFF1C50DF1244
:1009300012001950D96EDA6A040ED926DECF1AF0E9
:10094000DDCF1BF01AC0D9FF1BC0DAFFDF501C6ED1
:100950001950D96EDA6A060ED926DF501D6E010EC7
:100960001E6E1D2AB6EF04F0D8901E361D2EB4EF71
:1009700004F01E501C140009D8B4C1EF04F0C3EFFA
:1009800004F0C6EF04F0010EC7EF04F0000E1200F1
:10099000080E196E000E1A6E4FEC04F0010E196E5F
:1009A000010E1A6E4FEC04F0010E196E99EC04F072
:1009B000206E2004D8A4DFEF04F0E1EF04F0E7EFAD
:1009C00004F0080E196E010E1A6E01EC04F0080E08
:1009D000196E000E1A6E01EC04F0D4EF04F0FEEF75
:1009E0003FF0140EF66E0A0EF76E000EF86E00EE73
:1009F00001F010EE0EF00900F5CFEEFFE550E150EA
:100A0000FAE100EE0FF00A0EEE6AE806FDE10001E1
:100A1000C8EF04F0930F8A0F810F00950F8C0F839E
:020A20000F00C5
:047FFC00F1EF04F0AD
:020000040030CA
:08000000000C1E1EFF8181FFB0
:00000001FF
