:0400000007EF00F016
:0A0008000182CFED10F078EF12F046
:1008000000253032753A253032753A253032750D73
:0D0810000A00435249532025640A0D0000E0
:10081E000001CF6B000ECE6FA051A111D8A41AEF1C
:10082E0004F01CEF04F055EF0AF03C0E9E6F270EFD
:10083E009F6F55EF0AF0A4C0F6FF080EF76E080082
:10084E00F550250AD8B42EEF04F030EF04F056EF31
:10085E0004F0A4C0F6FF080EF76E0800F5CF14F0F2
:10086E00A0C015F0A1C016F0CEC017F0CFC018F082
:10087E00A2C019F0A3C01AF002D84FEF04F0050081
:10088E00FA6E9E51FD6E9F51FE6EFF6AFA50120077
:10089E000001CE4BCF2B0001A42B55EF0AF0A42B59
:1008AE00D16B000ED06F78EF04F0D081A42BBC6B0F
:1008BE00010EBB6F94EF04F0D083A42B5EEF04F017
:1008CE00D085A42B5EEF04F0D087A42B5EEF04F04E
:1008DE00D089A42B5EEF04F0BC6B000EBB6F94EFBF
:1008EE0004F0A4C0F6FF080EF76E0800F550200ABB
:1008FE00D8B46BEF04F0030AD8B46FEF04F0080A13
:10090E00D8B467EF04F0060AD8B463EF04F01D0AFA
:10091E00D8B45CEF04F073EF04F0BB51BC11D8A453
:10092E009BEF04F09DEF04F078EF04F0CB6B000E1C
:10093E00CA6FA4C0F6FF080EF76E0800F550DFEC84
:10094E0012F00009D8B4AEEF04F0B0EF04F0BAEF35
:10095E0004F0A40E106E8AEC11F010C0CAF011C093
:10096E00CBF0F1EF04F0A4C0F6FF080EF76E08000E
:10097E00F5502A0AD8A4C6EF04F0C8EF04F0F1EF40
:10098E0004F0A5C0D9FFA6C0DAFF020EDF26DF5C99
:10099E00D96EDA6ADECFBDF0DECFBEF00001BEBF8B
:1009AE00DDEF04F0DBEF04F0ECEF04F0D083BDC01C
:1009BE0048F0BEC049F0481E491E484A492A48C060
:1009CE00CAF049C0CBF0F0EF04F0BDC0CAF0BEC013
:1009DE00CBF0A42B0001CD6B000ECC6FA4C0F6FFA4
:1009EE00080EF76E0800F5502E0AD8A401EF05F098
:1009FE0003EF05F083EF05F0D185A42BA4C0F6FF1D
:100A0E00080EF76E0800F550DFEC12F00009D8B4AE
:100A1E0013EF05F015EF05F01FEF05F0A40E106EA5
:100A2E008AEC11F010C0CCF011C0CDF083EF05F0C0
:100A3E00A4C0F6FF080EF76E0800F5502A0AD8A4D7
:100A4E002BEF05F02DEF05F083EF05F0A5C0D9FFD4
:100A5E00A6C0DAFF020EDF26DF5CD96EDA6ADECFC1
:100A6E00B7F0DECFB8F00001B8BF48EF05F0B851CF
:100A7E0006E1B705D8B046EF05F048EF05F04DEFAB
:100A8E0005F0CD6B000ECC6F51EF05F0B7C0CCF07A
:100A9E00B8C0CDF0A42B83EF05F00001D181A42BBB
:100AAE00A4C0F6FF080EF76E0800F5506C0AD8A425
:100ABE0063EF05F065EF05F021EF0AF0D183A42B6B
:100ACE0021EF0AF00001D08FA42BA4C0F6FF080E70
:100ADE00F76E0800F550680AD8A478EF05F07AEFA3
:100AEE0005F021EF0AF0D08DA42B21EF0AF00001C2
:100AFE00D183A42B21EF0AF0A4C0F6FF080EF76EE7
:100B0E000800F550680AD8B469EF05F0020AD8B4A7
:100B1E007EEF05F0060AD8B454EF05F0160AD8B4E5
:100B2E007EEF05F021EF0AF0A4C0F6FF080EF76E77
:100B3E000800F550780AD8B4A7EF05F0A9EF05F034
:100B4E00B7EF05F0A4C0F6FF080EF76E0800F550DB
:100B5E00580AD8A4B5EF05F0B7EF05F0BDEF05F0D4
:100B6E000001C96B100EC86FEAEF05F0A4C0F6FFC6
:100B7E00080EF76E0800F5506F0AD8A4C9EF05F0FD
:100B8E00CBEF05F0D1EF05F00001C96B080EC86F71
:100B9E00EAEF05F0A4C0F6FF080EF76E0800F55058
:100BAE00620AD8A4DDEF05F0DFEF05F0E5EF05F002
:100BBE000001C96B020EC86FEAEF05F00001C96BA8
:100BCE000A0EC86FD099A4C0F6FF080EF76E080083
:100BDE00F550580AD8A4F6EF05F0F8EF05F0F9EF46
:100BEE0005F0D08BA4C0F6FF080EF76E0800F55086
:100BFE00690AD8B405EF06F007EF06F019EF06F014
:100C0E00A4C0F6FF080EF76E0800F550640AD8B4BB
:100C1E0013EF06F015EF06F019EF06F0F30ED017EE
:100C2E00FF0ED117D1A51EEF06F020EF06F021EF33
:100C3E0006F0D091A4C0F6FF080EF76E0800F5502E
:100C4E00690AD8B42DEF06F02FEF06F03DEF06F04F
:100C5E00A4C0F6FF080EF76E0800F550640AD8A47B
:100C6E003BEF06F03DEF06F052EF07F0D1A342EF57
:100C7E0006F044EF06F046EF06F052EF04F0D1A175
:100C8E004BEF06F04DEF06F0BFEF06F0A5C0D9FF13
:100C9E00A6C0DAFF040EDF26DF5CD96EDA6ADECF7D
:100CAE00C2F0DECFC3F0DECFC4F0DECFC5F0C5BFDD
:100CBE006DEF06F0C551C411C31106E1C205D8B0DF
:100CCE006BEF06F06DEF06F07BEF06F0C2510008F9
:100CDE00A76F000EC355A86F000EC455A96F000E66
:100CEE00C555AA6F83EF06F0C2C0A7F0C3C0A8F027
:100CFE00C4C0A9F0C5C0AAF09EC060F09FC061F04C
:100D0E00A0C062F0A1C063F0CEC064F0CFC065F0A9
:100D1E00A2C066F0A3C067F0A7C068F0A8C069F0D3
:100D2E00A9C06AF0AAC06BF0C5BFA0EF06F0A3EF92
:100D3E0006F0010EA4EF06F0000E6C6FC8C06DF049
:100D4E00C9C06EF06F6B706BCCC071F0CDC072F01D
:100D5E00CAC073F0CBC074F0D0C075F0D1C076F0BD
:100D6E0033EC0CF060C0CEF061C0CFF052EF04F067
:100D7E00D0BDC4EF06F0C6EF06F0EFEF06F0D0BF21
:100D8E00CBEF06F0CDEF06F0DCEF06F0A5C0D9FFF5
:100D9E00A6C0DAFF020EDF26DF5CD96EDA6ADECF7E
:100DAE00ABF0DECFACF0E9EF06F0A5C0D9FFA6C0E0
:100DBE00DAFF020EDF26DF5CD96EDA6ADECFABF029
:100DCE00DECFACF0ABC0C6F0ACC0C7F0FDEF06F0A6
:100DDE00A5C0D9FFA6C0DAFFDF50DF2ADF2AD96E01
:100DEE00DA6ADF50486E4850C66FC76BC7BF0AEF4E
:100DFE0007F0C75106E1C605D8B008EF07F00AEFB5
:100E0E0007F014EF07F0C6510008AD6FC751D8A018
:100E1E00E82A0008AE6F18EF07F0C6C0ADF0C7C0E5
:100E2E00AEF09EC060F09FC061F0A0C062F0A1C0A5
:100E3E0063F0CEC064F0CFC065F0A2C066F0A3C070
:100E4E0067F0ADC068F0AEC069F06A6B6B6BC7BF80
:100E5E0033EF07F036EF07F0010E37EF07F0000E15
:100E6E006C6FC8C06DF0C9C06EF06F6B706BCCC08C
:100E7E0071F0CDC072F0CAC073F0CBC074F0D0C0A8
:100E8E0075F0D1C076F033EC0CF060C0CEF061C0DE
:100E9E00CFF052EF04F0D1A357EF07F059EF07F060
:100EAE005BEF07F052EF04F0D1A160EF07F062EFB5
:100EBE0007F09FEF07F09EC060F09FC061F0A0C0EA
:100ECE0062F0A1C063F0CEC064F0CFC065F0A2C0E6
:100EDE0066F0A3C067F0A5C0D9FFA6C0DAFF040E66
:100EEE00DF26DF5CD96EDA6ADECF68F0DECF69F01E
:100EFE00DECF6AF0DECF6BF0000E6C6FC8C06DF007
:100F0E00C9C06EF06F6B706BCCC071F0CDC072F05B
:100F1E00CAC073F0CBC074F0D0C075F0D1C076F0FB
:100F2E0033EC0CF060C0CEF061C0CFF052EF04F0A5
:100F3E00D0BDA4EF07F0A6EF07F0CFEF07F0D0BFBC
:100F4E00ABEF07F0ADEF07F0BCEF07F0A5C0D9FF90
:100F5E00A6C0DAFF020EDF26DF5CD96EDA6ADECFBC
:100F6E00B1F0DECFB2F0C9EF07F0A5C0D9FFA6C031
:100F7E00DAFF020EDF26DF5CD96EDA6ADECFB1F061
:100F8E00DECFB2F0B1C0AFF0B2C0B0F0DDEF07F01F
:100F9E00A5C0D9FFA6C0DAFFDF50DF2ADF2AD96E3F
:100FAE00DA6ADF50486E4850AF6FB06B9EC060F08B
:100FBE009FC061F0A0C062F0A1C063F0CEC064F02B
:100FCE00CFC065F0A2C066F0A3C067F0AFC068F0F6
:100FDE00B0C069F06A6B6B6B000E6C6FC8C06DF0C1
:100FEE00C9C06EF06F6B706BCCC071F0CDC072F07B
:100FFE00CAC073F0CBC074F0D0C075F0D1C076F01B
:10100E0033EC0CF060C0CEF061C0CFF052EF04F0C4
:10101E000001BA6B010EB96FD0B318EF08F01AEFDA
:10102E0008F04AEF08F039EF08F0200E146EA0C059
:10103E0015F0A1C016F0CEC017F0CFC018F0A2C0A8
:10104E0019F0A3C01AF002D836EF08F00500FA6EB8
:10105E009E51FD6E9F51FE6EFF6AFA501200000106
:10106E00CE4BCF2BB951486EBA51496EB94BBA2BF4
:10107E00CA51485CCB514958D8A048EF08F04AEF06
:10108E0008F01CEF08F0A5C0D9FFA6C0DAFFDF50AC
:10109E00DF2ADF2AD96EDA6ADF50146EA0C015F08F
:1010AE00A1C016F0CEC017F0CFC018F0A2C019F034
:1010BE00A3C01AF002D86DEF08F00500FA6E9E512B
:1010CE00FD6E9F51FE6EFF6AFA5012000001CE4B6C
:1010DE00CF2BD0A375EF08F077EF08F052EF04F0A6
:1010EE0096EF08F0200E146EA0C015F0A1C016F0F9
:1010FE00CEC017F0CFC018F0A2C019F0A3C01AF0DE
:10110E0002D893EF08F00500FA6E9E51FD6E9F51C6
:10111E00FE6EFF6AFA5012000001CE4BCF2BB95172
:10112E00486EBA51496EB94BBA2BCA51485CCB5175
:10113E004958D8A0A5EF08F0A7EF08F079EF08F00E
:10114E0052EF04F0A5C0D9FFA6C0DAFF020EDF26CB
:10115E00DF5CD96EDA6ADECFC1F00001CC51CD1161
:10116E00D8A4BCEF08F0BEEF08F0C2EF08F0B369E8
:10117E00B469C6EF08F0CCC0B3F0CDC0B4F0C1C0B6
:10118E000EF0B3C00FF0B4C010F09FEC12F00EC012
:10119E00BFF00FC0C0F00001D1A5D8EF08F0DAEF14
:1011AE0008F0E9EF08F0CC51BF5DCD51C059D8A081
:1011BE00E3EF08F0E5EF08F0E9EF08F0CCC0BFF080
:1011CE00CDC0C0F0D0B3EEEF08F0F0EF08F043EF73
:1011DE0009F00FEF09F0200E146EA0C015F0A1C09B
:1011EE0016F0CEC017F0CFC018F0A2C019F0A3C0F1
:1011FE001AF002D80CEF09F00500FA6E9E51FD6E42
:10120E009F51FE6EFF6AFA5012000001CE4BCF2B9B
:10121E00BF51486EC051496EBF4BC02BCA51485C7E
:10122E00CB514958D8A01EEF09F020EF09F0F2EF8C
:10123E0008F043EF09F0C151D96EDA6ADF50146E2F
:10124E00A0C015F0A1C016F0CEC017F0CFC018F098
:10125E00A2C019F0A3C01AF002D83FEF09F00500A2
:10126E00FA6E9E51FD6E9F51FE6EFF6AFA5012008D
:10127E000001CE4BCF2BC12BC151D96EDA6ADF5094
:10128E00D8B44CEF09F04EEF09F062EF09F0D1A59A
:10129E0053EF09F055EF09F022EF09F0CC07D8A073
:1012AE00CD07CC2906E1CD29D8A460EF09F062EF75
:1012BE0009F022EF09F0D0A367EF09F069EF09F00A
:1012CE0052EF04F088EF09F0200E146EA0C015F056
:1012DE00A1C016F0CEC017F0CFC018F0A2C019F002
:1012EE00A3C01AF002D885EF09F00500FA6E9E51E0
:1012FE00FD6E9F51FE6EFF6AFA5012000001CE4B3A
:10130E00CF2BBF51486EC051496EBF4BC02BCA5137
:10131E00485CCB514958D8A097EF09F099EF09F0E6
:10132E006BEF09F052EF04F00001CB6B040ECA6FA5
:10133E00210ED0139EC060F09FC061F0A0C062F07D
:10134E00A1C063F0CEC064F0CFC065F0A2C066F05D
:10135E00A3C067F0A5C0D9FFA6C0DAFFDF50DF2A11
:10136E00DF2AD96EDA6ADECF48F0DDCF49F048C009
:10137E0068F049C069F06A6B6B6B000E6C6F100EF3
:10138E006D6F000E6E6F000E6F6F000E706FCCC023
:10139E0071F0CDC072F0CAC073F0CBC074F0D0C083
:1013AE0075F0D1C076F033EC0CF060C0CEF061C0B9
:1013BE00CFF052EF04F0250E146EA0C015F0A1C0B0
:1013CE0016F0CEC017F0CFC018F0A2C019F0A3C00F
:1013DE001AF002D8FDEF09F005000001FA6E9E51D9
:1013EE00FD6E9F51FE6EFF6AFA5012004FEF04F031
:1013FE00A4C0F6FF080EF76E0800F5CF14F0A0C0DB
:10140E0015F0A1C016F0CEC017F0CFC018F0A2C0D4
:10141E0019F0A3C01AF002D81FEF0AF00500000160
:10142E00FA6E9E51FD6E9F51FE6EFF6AFA501200CB
:10143E004FEF04F0A4C0F6FF080EF76E0800F5504B
:10144E00250AD8B4E2EF09F07D0AD8B49BEF05F077
:10145E003A0AD8B49BEF05F0010AD8B40FEF08F0A2
:10146E00070AD8B49BEF05F00D0AD8B49BEF05F030
:10147E00060AD8B49BEF05F01F0AD8B49BEF09F00B
:10148E00030AD8B4A9EF08F0060AD8B49BEF05F00A
:10149E000D0AD8B49BEF05F0FFEF09F0A4C0F6FFDC
:1014AE00080EF76E0800F5500009D8A461EF0AF097
:1014BE0063EF0AF022EF04F0A251CE5DA351CF5993
:1014CE00D8A06CEF0AF06EEF0AF076EF0AF0FF0E7E
:1014DE00A225B56FFF0EA321B66F7AEF0AF0CEC02C
:1014EE00B5F0CFC0B6F0000E146EA0C015F0A1C0BE
:1014FE0016F0B5C017F0B6C018F0A2C019F0A3C010
:10150E001AF002D894EF0AF00500FA6E9E51FD6EA5
:10151E009F51FE6EFF6AFA501200CEC09EF0CFC0F1
:10152E009FF0120042B29EEF0AF0A0EF0AF011EF08
:10153E000BF040504110D8B4A7EF0AF0A9EF0AF013
:10154E00D4EF0AF042A0AEEF0AF0B0EF0AF0D4EFFB
:10155E000AF03B50D8A4B6EF0AF0B8EF0AF0C7EF86
:10156E000AF00C0E4214446E000E4314456E4450A5
:10157E004510D8B4C5EF0AF0C7EF0AF0D4EF0AF061
:10158E004006D8A04106D4EF0AF038503924D96E5F
:10159E00DA6A300EDF6E394A3A2A3E50395C3F50D5
:1015AE003A58D8B0DDEF0AF0DFEF0AF0F4EF0AF0A8
:1015BE003A5009E1200E395CD8A0E8EF0AF0EAEFC4
:1015CE000AF0CCEF0AF0F4EF0AF038503924D96E55
:1015DE00DA6A300EDF6E394A3A2A42A0F9EF0AF083
:1015EE00FBEF0AF011EF0BF04050395C41503A58C6
:1015FE00D8B004EF0BF006EF0BF011EF0BF03A50F2
:10160E0009E1200E395CD8A00FEF0BF011EF0BF0B3
:10161E00ECEF0AF042A816EF0BF018EF0BF0D3EF39
:10162E000BF043B41DEF0BF01FEF0BF059EF0BF067
:10163E0039503A10D8B426EF0BF028EF0BF059EFD3
:10164E000BF03E50391809E13F503A18D8B432EF3A
:10165E000BF034EF0BF040EF0BF04050391807E170
:10166E0041503A18D8A43EEF0BF040EF0BF059EF73
:10167E000BF03906D8A03A0639503A10D8B44AEFD2
:10168E000BF04CEF0BF059EF0BF0100E3C183D1019
:10169E00D8A454EF0BF056EF0BF059EF0BF03906C0
:1016AE00D8A03A06100E3C183D10D8A461EF0BF0EE
:1016BE0063EF0BF07FEF0BF042BA68EF0BF06AEFBF
:1016CE000BF07FEF0BF03A5007E1200E395CD8B0EB
:1016DE0073EF0BF075EF0BF07FEF0BF038503924F2
:1016EE00D96EDA6A780EDF6E394A3A2AC0EF0BF0FD
:1016FE00100E3C183D10D8A487EF0BF089EF0BF0BD
:10170E00A3EF0BF042AA8EEF0BF090EF0BF0A3EFCE
:10171E000BF03A5007E1200E395CD8B099EF0BF080
:10172E009BEF0BF0A3EF0BF038503924D96EDA6A29
:10173E00580EDF6E7BEF0BF0020E3C183D10D8A456
:10174E00ABEF0BF0ADEF0BF0C0EF0BF03A5007E143
:10175E00200E395CD8B0B6EF0BF0B8EF0BF0C0EF3F
:10176E000BF038503924D96EDA6A620EDF6E7BEFD9
:10177E000BF03A5007E1200E395CD8B0C9EF0BF0F0
:10178E00CBEF0BF0D3EF0BF038503924D96EDA6A69
:10179E00300EDF6E394A3A2A3A5007E1200E395C94
:1017AE00D8B0DCEF0BF0DEEF0BF00EEF0CF03B5091
:1017BE00D8B4E4EF0BF0E6EF0BF0F0EF0BF038508F
:1017CE003924D96EDA6A2D0EDF6E394A3A2A0EEFB7
:1017DE000CF042A4F5EF0BF0F7EF0BF0FFEF0BF070
:1017EE0038503924D96EDA6A2B0EDF6EECEF0BF01F
:1017FE0042A604EF0CF006EF0CF00EEF0CF0385092
:10180E003924D96EDA6A200EDF6EECEF0BF030C0A1
:10181E001BF031C01CF032C01DF033C01EF034C0BE
:10182E001FF035C020F036C021F037C022F038C08E
:10183E0023F039C024F03AC025F040C026F041C054
:10184E0027F042C028F043C029F0FDEC0CF01BC07D
:10185E0030F01CC031F0120000019D6B000E9C6F29
:10186E00685169116A116B11D8A440EF0CF042EF68
:10187E000CF043EF0CF0759976A548EF0CF04AEF9B
:10188E000CF055EF0CF0685169116A116B11D8B458
:10189E0053EF0CF055EF0CF0CEEF0CF068C00EF0DD
:1018AE0069C00FF06AC010F06BC011F06DC012F07D
:1018BE006EC013F06FC014F070C015F08BEC10F00A
:1018CE000E5000019B6F090E9B6570EF0CF072EFCE
:1018DE000CF08FEF0CF075BB77EF0CF079EF0CF08E
:1018EE007EEF0CF09A6B610E996F81EF0CF09A6B94
:1018FE00410E996F9B519925466E000E9A21476EA7
:10190E00F60E4624976FFF0E4720986F95EF0CF05A
:10191E00300E9B25976F986B000E98239C51770F76
:10192E00D96EDA6A97C0DFFF9C4B9D2B68C00EF014
:10193E0069C00FF06AC010F06BC011F06DC012F0EC
:10194E006EC013F06FC014F070C015F07DEC0EF089
:10195E000EC068F00FC069F010C06AF011C06BF0D5
:10196E000001685169116A116B11D8B4C1EF0CF006
:10197E00C3EF0CF0CEEF0CF09D5109E1200E9C5DF3
:10198E00D8A0CCEF0CF0CEEF0CF055EF0CF060C001
:10199E0030F061C031F062C032F063C033F064C029
:1019AE0034F065C035F066C036F067C037F0770E9C
:1019BE00386E9CC039F09DC03AF06CC03BF06DC0E3
:1019CE003CF06EC03DF071C03EF072C03FF073C08F
:1019DE0040F074C041F075C042F076C043F099EC0F
:1019EE000AF030C060F031C061F012001FC02CF060
:1019FE0020C02DF028B206EF0DF008EF0DF063EFCA
:101A0E000DF028B00DEF0DF00FEF0DF063EF0DF0B0
:101A1E0024C02EF025C02FF033EF0DF0200E146EE3
:101A2E001DC015F01EC016F01FC017F020C018F014
:101A3E0021C019F022C01AF002D82FEF0DF00500C8
:101A4E00FA6E1B50FD6E1C50FE6EFF6AFA501200AD
:101A5E001F4A202A2E4A2F2A26502E5C27502F58F6
:101A6E00D8A03CEF0DF03EEF0DF015EF0DF063EF4B
:101A7E000DF02406D8A0250623502424D96EDA6A48
:101A8E00DF50146E1DC015F01EC016F01FC017F0EB
:101A9E0020C018F021C019F022C01AF002D861EF50
:101AAE000DF00500FA6E1B50FD6E1C50FE6EFF6AA7
:101ABE00FA5012001F4A202A24502510D8A46AEF8B
:101ACE000DF06CEF0DF040EF0DF028A271EF0DF060
:101ADE0073EF0DF0A2EF0DF091EF0DF0200E146EDE
:101AEE001DC015F01EC016F01FC017F020C018F054
:101AFE0021C019F022C01AF002D88FEF0DF00500A8
:101B0E00FA6E1B50FD6E1C50FE6EFF6AFA501200EC
:101B1E001F4A202A2C501F5C2A6E2D5020582B6EE7
:101B2E0026502A5C27502B58D8A0A0EF0DF0A2EF1C
:101B3E000DF075EF0DF01FC01BF020C01CF0120051
:101B4E00F00E0E6E000E0F6E1DEC0FF0E90E0E6E07
:101B5E00010E0F6E1DEC0FF0F70E0E6EC3EC12F0B1
:101B6E00F70E156EC6EC11F05DEC13F09BEC13F056
:101B7E0094EC13F0FD0E146E170E156E3B0E166ED2
:101B8E00370E176E24EC12F0F00E0E6E000E0F6E66
:101B9E00CFEC0EF02FEC13F04FEC13F00009D8B48D
:101BAE00DBEF0DF0DDEF0DF0E5EF0DF0FD0E0E6E3F
:101BBE0045EC10F0FD0E4C6E50EC12F0E90E0E6E70
:101BCE00F5EC11F00001D96FD951D8A4F1EF0DF059
:101BDE00F3EF0DF0FBEF0DF0120ED26F070ED46F78
:101BEE00EA0ED36FF5EC12F0DA0E136E81EC13F0F1
:101BFE000009D8B405EF0EF007EF0EF0D1EF0DF09F
:101C0E00410E0001DA19D8A40FEF0EF011EF0EF00D
:101C1E0019EF0EF0F00E0E6E010E0F6ECFEC0EF0F1
:101C2E00D1EF0DF0420EDA19D8A420EF0EF022EF0C
:101C3E000EF0D1EF0DF0CBEF0DF007EF00F0136AC1
:101C4E000FBE2EEF0EF02CEF0EF034EF0EF00E6CEA
:101C5E000F1ED8B00F2A010E136E11BE3BEF0EF001
:101C6E0039EF0EF03FEF0EF0106C111ED8B0112AA6
:101C7E0010501110D8B446EF0EF048EF0EF06CEF86
:101C8E000EF0010E126E50EF0EF0D8901036113687
:101C9E00122A11AE55EF0EF057EF0EF04CEF0EF07C
:101CAE0010500E5C11500F58D8A060EF0EF062EF7E
:101CBE000EF066EF0EF010500E5E11500F5AD890C7
:101CCE0011321032122E57EF0EF01350D8B472EFAD
:101CDE000EF074EF0EF078EF0EF00E6C0F1ED8B003
:101CEE000F2A0EC00EF00FC00FF01200000E166E6F
:101CFE00000E176E000E186E000E196E1250131095
:101D0E0014101510D8B48EEF0EF090EF0EF0C6EF43
:101D1E000EF0010E1A6E9AEF0EF0D89012361336A0
:101D2E00143615361A2A15AE9FEF0EF0A1EF0EF0EF
:101D3E0094EF0EF0D8901636173618361936125014
:101D4E000E5C13500F581450105815501158D8A03F
:101D5E00B3EF0EF0B5EF0EF0BEEF0EF012500E5EBA
:101D6E0013500F5A1450105A1550115A1680D890FD
:101D7E0015321432133212321A2EA1EF0EF016C093
:101D8E000EF017C00FF018C010F019C011F01200AD
:101D9E000F04D8A4D5EF0EF0D7EF0EF0F9EF0EF03A
:101DAE000E50D96EDA6A060ED926DF50106E010E6D
:101DBE00116E102AE5EF0EF0D8901136102EE3EFCB
:101DCE000EF00E50D96EDA6A020ED926DECF12F060
:101DDE00DDCF13F012C0D9FF13C0DAFF1150DF129E
:101DEE001CEF0FF00E50D96EDA6A060ED926DF50B0
:101DFE00106E010E116E102A07EF0FF0D8901136EB
:101E0E00102E05EF0FF01150FF0A126E0E50D96E04
:101E1E00DA6A020ED926DECF13F0DDCF14F013C02E
:101E2E00D9FF14C0DAFF1250DF1612000F50D8A4DB
:101E3E0023EF0FF025EF0FF048EF0FF00E50D96E95
:101E4E00DA6A060ED926DF50106E010E116E102AB8
:101E5E0033EF0FF0D8901136102E31EF0FF01150E6
:101E6E00FF0A126E0E50D96EDA6ADECF13F0DDCF96
:101E7E0014F013C0D9FF14C0DAFF1250DF1666EF4C
:101E8E000FF00E50D96EDA6A060ED926DF50106E9C
:101E9E00010E116E102A56EF0FF0D8901136102E3B
:101EAE0054EF0FF00E50D96EDA6ADECF12F0DDCF9E
:101EBE0013F012C0D9FF13C0DAFF1150DF12120057
:101ECE0020EE15F00E50D9260F50DA2210EE14F037
:101EDE000E50E1260F50E222DE50E618D8A47AEF1B
:101EEE000FF07CEF0FF07FEF0FF0000EB0EF0FF062
:101EFE0020EE15F00E50D9260F50DA22DF50116E5B
:101F0E0011500E24D96E000E0F20DA6E1050E16EB5
:101F1E00E26ADFCFE7FF20EE15F00E50D9260F5004
:101F2E00DA22DF2A20EE15F00E50D9260F50DA22D3
:101F3E00140EDE18D8A4A6EF0FF0A8EF0FF0AFEF37
:101F4E000FF020EE15F00E50D9260F50DA22DF6A70
:101F5E00010E12009EAAB6EF0FF0B8EF0FF0D7EFFA
:101F6E000FF0ABA2BDEF0FF0BFEF0FF0C3EF0FF00E
:101F7E00AB98AB88FAEF0FF0ABA4C8EF0FF0CAEF37
:101F8E000FF0CDEF0FF0AE50FAEF0FF0AECF07F02F
:101F9E00000E026E010E036E07C004F04CEC11F041
:101FAE009EA8DCEF0FF0DEEF0FF0FAEF0FF09DA81A
:101FBE00E3EF0FF0E5EF0FF0FAEF0FF0160E026EF3
:101FCE00010E036E080E046EFBEC0FF00009D8B480
:101FDE00F3EF0FF0F5EF0FF0F9EF0FF008C0ADFFD4
:101FEE00FAEF0FF09D98120020EE15F00250D92650
:101FFE000350DA2210EE14F00250E1260350E222D2
:10200E00DE50E618D8A40EEF10F010EF10F013EF1C
:10201E0010F0000E44EF10F020EE15F00250D9260D
:10202E000350DA22DF50056E05500224D96E000EE1
:10203E000320DA6E0450E16EE26ADFCFE7FF20EE96
:10204E0015F00250D9260350DA22DF2A20EE15F0C1
:10205E000250D9260350DA22140EDE18D8A43AEF15
:10206E0010F03CEF10F043EF10F020EE15F00250A0
:10207E00D9260350DA22DF6A010E12000E50D96EF5
:10208E00DA6A020ED926DF2A0E50D96EDA6A020EED
:10209E00D9263B0EDF6456EF10F058EF10F08AEFA2
:1020AE0010F00E50D96EDA6A020ED926DF6A0E5083
:1020BE00D96EDA6A010ED926DF2A0E50D96EDA6A87
:1020CE00010ED9263B0EDF646FEF10F071EF10F0AA
:1020DE008AEF10F00E50D96EDA6A010ED926DF6A39
:1020EE000E50D96EDA6ADF2A0E50D96EDA6A170EE2
:1020FE00DF6484EF10F086EF10F08AEF10F00E50D0
:10210E00D96EDA6ADF6A120012501310141015100D
:10211E00D8B494EF10F096EF10F0C6EF10F0010E59
:10212E00166EA0EF10F0D890123613361436153600
:10213E00162A15AEA5EF10F0A7EF10F09AEF10F0DB
:10214E0012500E5C13500F58145010581550115851
:10215E00D8A0B4EF10F0B6EF10F0BEEF10F01250A2
:10216E000E5E13500F5A1450105A1550115AD89023
:10217E001532143213321232162EA7EF10F00EC093
:10218E000EF00FC00FF010C010F011C011F01200C1
:10219E000600E1CF0AF0E2CF0BF0D9CF0CF0DACF88
:1021AE000DF0000E9EBA010E9EB8010EE8B0E2EFE1
:1021BE0010F0E6EF10F0096A092AE7EF10F0096A4D
:1021CE000950D8B4EDEF10F0EFEF10F0F1EF10F082
:1021DE00B1EC0FF0F2A4F6EF10F0F8EF10F004EF00
:1021EE0011F0F2AAFDEF10F0FFEF10F004EF11F076
:1021FE008FEC13F0F29498EC13F00DC0DAFF0CC0D4
:10220E00D9FF0BC0E2FF0AC0E1FF0192110020EEE0
:10221E0014F00E50D9260F50DA22DF50116E11280D
:10222E00126E140E1218D8A41FEF11F021EF11F038
:10223E0022EF11F0126A20EE15F00E50D9260F5033
:10224E00DA221250DE18D8A42FEF11F031EF11F070
:10225E0033EF11F04BEF11F020EE14F00E50D926A3
:10226E000F50DA22DF50116E11500E24D96E000E6F
:10227E000F20DA6E10C0DFFF20EE14F00E50D926BC
:10228E000F50DA2212C0DFFF120020EE14F00250BF
:10229E00D9260350DA22DF50056E0528066E140E7D
:1022AE000618D8A45DEF11F05FEF11F060EF11F09A
:1022BE00066A20EE15F00250D9260350DA22065097
:1022CE00DE18D8A46DEF11F06FEF11F071EF11F071
:1022DE0089EF11F020EE14F00250D9260350DA22C5
:1022EE00DF50056E05500224D96E000E0320DA6E03
:1022FE0004C0DFFF20EE14F00250D9260350DA227C
:10230E0006C0DFFF1200166A000E156EAEEF11F05A
:10231E000A0E1502F3CF12F0F4CF13F01602F3509B
:10232E0013261050D96EDA6ADFCF14F0010EDF26B5
:10233E0014C0F6FF080EF76E0800F5501226000EB8
:10234E001322D00E1224156EFF0E1320166E10508F
:10235E00D96EDA6ADFCFF6FF080EF76E0800F55079
:10236E00DFEC12F00009D8A4BFEF11F0C1EF11F0AD
:10237E008FEF11F015C010F016C011F012001550AD
:10238E00D96EDA6ADF500E6E010E0F6E1DEC0FF075
:10239E001550D96EDA6A010ED926DF500E6E010E77
:1023AE000F6E1DEC0FF0160E0E6E010E0F6E40EC42
:1023BE0013F0000E0E6E010E0F6E40EC13F0AB8E8E
:1023CE00AC8AAB889E989D989EAAF0EF11F0F2EF22
:1023DE0011F0F3EF11F0AE509D8A12000E50D96E2F
:1023EE00DA6A040ED926DECF0FF0DDCF10F00FC063
:1023FE00D9FF10C0DAFFDF50116E0E50D96EDA6AB7
:10240E00060ED926DF50126E010E136E122A12EF2F
:10241E0012F0D8901336122E10EF12F01350111432
:10242E000009D8B41DEF12F01FEF12F022EF12F0D8
:10243E00010E23EF12F0000E12001450D96EDA6A5C
:10244E0015C00EF00F6A116A180E106E26EC0EF003
:10245E000E50DF6E1450D96EDA6A010ED92616C0F0
:10246E000EF00F6A116A3C0E106E26EC0EF00E5036
:10247E00DF6E1450D96EDA6A020ED92617C00EF02E
:10248E000F6A116A3C0E106E26EC0EF00E50DF6EC7
:10249E001200010E0001D26F4C50D96EDA6ADF5075
:1024AE0001012C6F2C510001D36FD46B4C50D96E9F
:1024BE00DA6A010ED926DF5001012D6F2D51000170
:1024CE00D56FD66B4C50D96EDA6A020ED926DF5014
:1024DE0001012E6F2E510001D76FD86BF5EC12F063
:1024EE0012003C0EF66E260EF76E000EF86E00EE23
:1024FE00DBF010EE22F00900F5CFEEFFE550E150D3
:10250E00FAE101EE00F02C0EEE6AE806FDE10001A4
:10251E00FF6BFE6BFD6B00EE4DF0070EEE6AE806EC
:10252E00FDE101900192000EF86E0001A7EF0DF093
:10253E000EC011F0A4EF12F0112A1150D96EDA6A02
:10254E00DF50D8B4ADEF12F0AFEF12F0BCEF12F0D7
:10255E000F06D8A010060F2806E11028D8A4BAEF4F
:10256E0012F0BCEF12F0A3EF12F00E50115C0E6ED3
:10257E000F6A0EBE0F061200AC9CAB9CAC980E50B0
:10258E00D96EDA6A020ED926800EDE1809E1250E02
:10259E00DE18DE10DE10D8A4D7EF12F0D9EF12F04D
:1025AE00DEEF12F0AC84B896B06A810EAF6E1200F8
:1025BE000F6E0E6A2F0E0F64E7EF12F0E9EF12F0B6
:1025CE00F3EF12F03A0E0F60EFEF12F0F1EF12F0A0
:1025DE00F3EF12F0010E0E6E0E501200D30E4B6E74
:1025EE00D40E00019E6F260E9F6F4A0EA06FA16B38
:1025FE00FF0EA36FA269D2C0A4F04B0EA56FA66BFF
:10260E000FEC04F012001950175C1A501858D8B07D
:10261E0013EF13F015EF13F01DEF13F017501524F1
:10262E00D96E18501620DA6E14C0DFFF1200940F08
:10263E008B0F820F06940F8B0F820F07930F8A0F4B
:10264E00810F00950F8C0F830F00E2DB80250000B9
:10265E00E80E515C030E5258D8A038EF13F03AEF43
:10266E0013F03FEF13F0526A000E516E010E536ECF
:10267E00120020EE14F00E50D9260F50DA22DF6A27
:10268E0020EE15F00E50D9260F50DA22DF6A120016
:10269E005350D8B455EF13F057EF13F05BEF13F020
:1026AE00536A010E5CEF13F0000E1200D56AD59C32
:1026BE00D59AD596D550F80B0109D56E8AEC13F044
:1026CE00F294F28A12001450D8B470EF13F072EF35
:1026DE0013F075EF13F0145076EC13F01200136E26
:1026EE00160E0E6E010E0F6E13C010F00EEC11F0E2
:1026FE009D881200000E0E6E010E0F6E13C010F0AC
:10270E0067EC0FF01200FB0ED76E1E0ED66E120087
:10271E00FB0ED76E1E0ED66E1200D09EF28CF28E6F
:10272E001200514A522A1200D58E120012001200C7
:020000040030CA
:08000000000C1E1EFF8181FFB0
:00000001FF
