:0400000007EF00F016
:0A0008000182AAED11F016EF11F0CD
:1008000000435249532025640A0D00000101286B62
:10081000000E276F0001A051A111D8A412EF04F01F
:1008200014EF04F089EF0AF02C0E9E6F250E9F6FD7
:1008300089EF0AF0A4C0F6FF080EF76E0800F55025
:10084000250AD8B426EF04F028EF04F04EEF04F0A8
:10085000A4C0F6FF080EF76E0800F5CF14F0A0C094
:1008600015F0A1C016F027C117F028C118F0A2C0DA
:1008700019F0A3C01AF002D847EF04F00500FA6E91
:100880009E51FD6E9F51FE6EFF6AFA5012000101EB
:10089000274B282B0001A42B89EF0AF0A42B010180
:1008A0002A6B000E296F77EF04F029810001A42B39
:1008B0000101156B010E146F93EF04F02983000101
:1008C000A42B58EF04F029850001A42B58EF04F065
:1008D00029870001A42B58EF04F029890001A42BDB
:1008E00058EF04F0156B000E146F93EF04F0A4C0E2
:1008F000F6FF080EF76E0800F550200AD8B468EF2E
:1009000004F0030AD8B46DEF04F0080AD8B463EF1A
:1009100004F0060AD8B45EEF04F01D0AD8B455EF0F
:1009200004F072EF04F014511511D8A49AEF04F0FA
:100930009CEF04F077EF04F0246B000E236FA4C04B
:10094000F6FF080EF76E0800F55016EC12F00009DD
:10095000D8B4ADEF04F0AFEF04F0B9EF04F0A40E9B
:10096000106EDAEC10F010C023F111C024F1F2EF98
:1009700004F0A4C0F6FF080EF76E0800F5502A0A2E
:10098000D8A4C5EF04F0C7EF04F0F2EF04F0A5C05F
:10099000D9FFA6C0DAFF020EDF26DF5CD96EDA6A65
:1009A000DECF16F1DECF17F1010117BFDCEF04F047
:1009B000DAEF04F0ECEF04F0298316C1A7F017C1B9
:1009C000A8F00001A71FA81FA74BA82BA7C023F1C1
:1009D000A8C024F1F0EF04F016C123F117C124F1EF
:1009E0000001A42B0101266B000E256FA4C0F6FFA9
:1009F000080EF76E0800F5502E0AD8A402EF05F095
:100A000004EF05F08DEF05F02A850001A42BA4C0AA
:100A1000F6FF080EF76E0800F55016EC12F000090C
:100A2000D8B415EF05F017EF05F021EF05F0A40E8F
:100A3000106EDAEC10F010C025F111C026F18DEF28
:100A400005F0A4C0F6FF080EF76E0800F5502A0A5C
:100A5000D8A42DEF05F02FEF05F08DEF05F0A5C020
:100A6000D9FFA6C0DAFF020EDF26DF5CD96EDA6A94
:100A7000DECF10F1DECF11F1010111BF4AEF05F019
:100A8000115106E11005D8B048EF05F04AEF05F026
:100A90004FEF05F0266B000E256F53EF05F010C1E8
:100AA00025F111C126F10001A42B8DEF05F0010104
:100AB0002A810001A42BA4C0F6FF080EF76E0800DF
:100AC000F5506C0AD8A467EF05F069EF05F055EF13
:100AD0000AF001012A830001A42B55EF0AF001015D
:100AE000298F0001A42BA4C0F6FF080EF76E0800A2
:100AF000F550680AD8A47FEF05F081EF05F055EFB7
:100B00000AF00101298D0001A42B55EF0AF0010123
:100B10002A830001A42B55EF0AF0A4C0F6FF080EAB
:100B2000F76E0800F550680AD8B46FEF05F0020AB6
:100B3000D8B487EF05F0060AD8B457EF05F0160AC7
:100B4000D8B487EF05F055EF0AF0A4C0F6FF080E01
:100B5000F76E0800F550780AD8B4B1EF05F0B3EF9E
:100B600005F0C1EF05F0A4C0F6FF080EF76E08000F
:100B7000F550580AD8A4BFEF05F0C1EF05F0C7EF54
:100B800005F00101226B100E216FF4EF05F0A4C0F7
:100B9000F6FF080EF76E0800F5506F0AD8A4D3EFE1
:100BA00005F0D5EF05F0DBEF05F00101226B080E33
:100BB000216FF4EF05F0A4C0F6FF080EF76E0800F1
:100BC000F550620AD8A4E7EF05F0E9EF05F0EFEF82
:100BD00005F00101226B020E216FF4EF05F0010117
:100BE000226B0A0E216F2999A4C0F6FF080EF76E3A
:100BF0000800F550580AD8A400EF06F002EF06F0FE
:100C000003EF06F0298BA4C0F6FF080EF76E08006C
:100C1000F550690AD8B40FEF06F011EF06F023EF94
:100C200006F0A4C0F6FF080EF76E0800F550640A3F
:100C3000D8B41DEF06F01FEF06F023EF06F0F30E19
:100C40002917FF0E2A172AA528EF06F02AEF06F02B
:100C50002BEF06F02991A4C0F6FF080EF76E0800EE
:100C6000F550690AD8B437EF06F039EF06F047EFD0
:100C700006F0A4C0F6FF080EF76E0800F550640AEF
:100C8000D8A445EF06F047EF06F062EF07F02AA37D
:100C90004CEF06F04EEF06F050EF06F04AEF04F08E
:100CA0002AA155EF06F057EF06F0CAEF06F0A5C0EF
:100CB000D9FFA6C0DAFF040EDF26DF5CD96EDA6A40
:100CC000DECF1BF1DECF1CF1DECF1DF1DECF1EF13A
:100CD0001EBF77EF06F01E511D111C1106E11B050A
:100CE000D8B075EF06F077EF06F085EF06F01B51F0
:100CF0000008006F000E1C55016F000E1D55026F9D
:100D0000000E1E55036F8DEF06F01BC100F11CC1D4
:100D100001F11DC102F11EC103F19EC060F09FC030
:100D200061F0A0C062F0A1C063F027C164F028C1E7
:100D300065F0A2C066F0A3C067F000C168F001C111
:100D400069F002C16AF003C16BF01EBFAAEF06F0A2
:100D5000ADEF06F0010EAEEF06F0000E00016C6F75
:100D600021C16DF022C16EF06F6B706B25C171F007
:100D700026C172F023C173F024C174F029C175F04B
:100D80002AC176F06FEC0CF060C027F161C028F149
:100D90004AEF04F029BDCFEF06F0D1EF06F0FAEFED
:100DA00006F029BFD6EF06F0D8EF06F0E7EF06F021
:100DB000A5C0D9FFA6C0DAFF020EDF26DF5CD96E20
:100DC000DA6ADECF04F1DECF05F1F4EF06F0A5C05C
:100DD000D9FFA6C0DAFF020EDF26DF5CD96EDA6A21
:100DE000DECF04F1DECF05F104C11FF105C120F112
:100DF0000AEF07F0A5C0D9FFA6C0DAFFDF50DF2A4F
:100E0000DF2AD96EDA6ADF500001A76FA75101010E
:100E10001F6F206B20BF17EF07F0205106E11F0561
:100E2000D8B015EF07F017EF07F021EF07F01F51CB
:100E30000008066F2051D8A0E82A0008076F25EFA8
:100E400007F01FC106F120C107F19EC060F09FC0EE
:100E500061F0A0C062F0A1C063F027C164F028C1B6
:100E600065F0A2C066F0A3C067F006C168F007C1D4
:100E700069F000016A6B6B6B010120BF42EF07F064
:100E800045EF07F0010E46EF07F0000E00016C6F12
:100E900021C16DF022C16EF06F6B706B25C171F0D6
:100EA00026C172F023C173F024C174F029C175F01A
:100EB0002AC176F06FEC0CF060C027F161C028F118
:100EC0004AEF04F02AA367EF07F069EF07F06BEF32
:100ED00007F04AEF04F02AA170EF07F072EF07F075
:100EE000B0EF07F09EC060F09FC061F0A0C062F05C
:100EF000A1C063F027C164F028C165F0A2C066F00C
:100F0000A3C067F0A5C0D9FFA6C0DAFF040EDF2694
:100F1000DF5CD96EDA6ADECF68F0DECF69F0DECF53
:100F20006AF0DECF6BF0000E00016C6F21C16DF036
:100F300022C16EF06F6B706B25C171F026C172F02B
:100F400023C173F024C174F029C175F02AC176F071
:100F50006FEC0CF060C027F161C028F14AEF04F09B
:100F600029BDB5EF07F0B7EF07F0E0EF07F029BFB5
:100F7000BCEF07F0BEEF07F0CDEF07F0A5C0D9FF3B
:100F8000A6C0DAFF020EDF26DF5CD96EDA6ADECF9A
:100F90000AF1DECF0BF1DAEF07F0A5C0D9FFA6C04A
:100FA000DAFF020EDF26DF5CD96EDA6ADECF0AF1E5
:100FB000DECF0BF10AC108F10BC109F1F0EF07F028
:100FC000A5C0D9FFA6C0DAFFDF50DF2ADF2AD96E1D
:100FD000DA6ADF500001A76FA7510101086F096BA2
:100FE0009EC060F09FC061F0A0C062F0A1C063F03D
:100FF00027C164F028C165F0A2C066F0A3C067F005
:1010000008C168F009C169F000016A6B6B6B000EE2
:101010006C6F21C16DF022C16EF06F6B706B25C1DA
:1010200071F026C172F023C173F024C174F029C19C
:1010300075F02AC176F06FEC0CF060C027F161C04A
:1010400028F14AEF04F00101136B010E126F29B36E
:101050002CEF08F02EEF08F065EF08F04DEF08F0E8
:10106000200E146EA0C015F0A1C016F027C117F015
:1010700028C118F0A2C019F0A3C01AF002D84AEF94
:1010800008F00500FA6E9E51FD6E9F51FE6EFF6ADC
:10109000FA5012000101274B282B12510001A76FB3
:1010A000010113510001A86F0101124B132B2351B1
:1010B0000001A75D010124510001A859D8A063EFE8
:1010C00008F065EF08F030EF08F0A5C0D9FFA6C022
:1010D000DAFFDF50DF2ADF2AD96EDA6ADF50146EBA
:1010E000A0C015F0A1C016F027C117F028C118F054
:1010F000A2C019F0A3C01AF002D889EF08F00500C9
:101100000001FA6E9E51FD6E9F51FE6EFF6AFA500D
:1011100012000101274B282B29A391EF08F093EF30
:1011200008F04AEF04F0B2EF08F0200E146EA0C0F1
:1011300015F0A1C016F027C117F028C118F0A2C001
:1011400019F0A3C01AF002D8AFEF08F00500FA6E4C
:101150009E51FD6E9F51FE6EFF6AFA501200010112
:10116000274B282B12510001A76F010113510001D9
:10117000A86F0101124B132B23510001A75D010140
:1011800024510001A859D8A0C8EF08F0CAEF08F010
:1011900095EF08F04AEF04F0A5C0D9FFA6C0DAFF2A
:1011A000020EDF26DF5CD96EDA6ADECF1AF10101AA
:1011B00025512611D8A4DFEF08F0E1EF08F0E5EFA4
:1011C00008F00C690D69E9EF08F025C10CF126C1A2
:1011D0000DF11AC10EF00CC10FF00DC110F0D6ECDC
:1011E00011F00EC018F10FC019F101012AA5FBEF93
:1011F00008F0FDEF08F00CEF09F02551185D2651BD
:101200001959D8A006EF09F008EF09F00CEF09F022
:1012100025C118F126C119F129B311EF09F013EF17
:1012200009F06EEF09F032EF09F0200E146EA0C045
:1012300015F0A1C016F027C117F028C118F0A2C000
:1012400019F0A3C01AF002D82FEF09F00500FA6ECA
:101250009E51FD6E9F51FE6EFF6AFA501200010111
:10126000274B282B18510001A76F010119510001CC
:10127000A86F0101184B192B23510001A75D010133
:1012800024510001A859D8A048EF09F04AEF09F00D
:1012900015EF09F06EEF09F01A51D96EDA6ADF50D6
:1012A000146EA0C015F0A1C016F027C117F028C118
:1012B00018F0A2C019F0A3C01AF002D86AEF09F022
:1012C00005000001FA6E9E51FD6E9F51FE6EFF6A91
:1012D000FA5012000101274B282B1A2B01011A5139
:1012E000D96EDA6ADF50D8B478EF09F07AEF09F0F6
:1012F0008EEF09F02AA57FEF09F081EF09F04CEF9E
:1013000009F02507D8A02607252906E12629D8A413
:101310008CEF09F08EEF09F04CEF09F029A393EF61
:1013200009F095EF09F04AEF04F0B4EF09F0200E50
:10133000146EA0C015F0A1C016F027C117F028C187
:1013400018F0A2C019F0A3C01AF002D8B1EF09F04A
:101350000500FA6E9E51FD6E9F51FE6EFF6AFA50B7
:1013600012000101274B282B18510001A76F010122
:1013700019510001A86F0101184B192B23510001CD
:10138000A75D010124510001A859D8A0CAEF09F0B6
:10139000CCEF09F097EF09F04AEF04F00101246B5C
:1013A000040E236F210E29139EC060F09FC061F0D0
:1013B000A0C062F0A1C063F027C164F028C165F04D
:1013C000A2C066F0A3C067F0A5C0D9FFA6C0DAFF2F
:1013D000DF50DF2ADF2AD96EDA6ADECFA7F0DDCF51
:1013E000A8F0A7C068F0A8C069F000016A6B6B6B39
:1013F000000E6C6F100E6D6F000E6E6F000E6F6F33
:10140000000E706F25C171F026C172F023C173F018
:1014100024C174F029C175F02AC176F06FEC0CF08C
:1014200060C027F161C028F14AEF04F0250E146E68
:10143000A0C015F0A1C016F027C117F028C118F000
:10144000A2C019F0A3C01AF002D831EF0AF00500CB
:101450000001FA6E9E51FD6E9F51FE6EFF6AFA50BA
:10146000120047EF04F0A4C0F6FF080EF76E080064
:10147000F5CF14F0A0C015F0A1C016F027C117F0E9
:1014800028C118F0A2C019F0A3C01AF002D853EF77
:101490000AF005000001FA6E9E51FD6E9F51FE6E2E
:1014A000FF6AFA50120047EF04F0A4C0F6FF080EDE
:1014B000F76E0800F550250AD8B416EF0AF07D0A39
:1014C000D8B4A5EF05F03A0AD8B4A5EF05F0010AA3
:1014D000D8B423EF08F0070AD8B4A5EF05F00D0A39
:1014E000D8B4A5EF05F0060AD8B4A5EF05F01F0A99
:1014F000D8B4CEEF09F0030AD8B4CCEF08F0060A4E
:10150000D8B4A5EF05F00D0AD8B4A5EF05F033EF78
:101510000AF0A4C0F6FF080EF76E0800F5500009A7
:10152000D8A495EF0AF097EF0AF01AEF04F0A25151
:101530000101275D0001A35101012859D8A0A3EFA3
:101540000AF0A5EF0AF0B1EF0AF0FF0E0001A225A4
:1015500001010E6FFF0E0001A32101010F6FB5EF16
:101560000AF027C10EF128C10FF1000E146EA0C0C1
:1015700015F0A1C016F00EC117F00FC118F0A2C0EF
:1015800019F0A3C01AF002D8D0EF0AF0050000014C
:10159000FA6E9E51FD6E9F51FE6EFF6AFA50120068
:1015A00027C19EF028C19FF0120042B2DAEF0AF084
:1015B000DCEF0AF04DEF0BF040504110D8B4E3EFF0
:1015C0000AF0E5EF0AF010EF0BF042A0EAEF0AF0A4
:1015D000ECEF0AF010EF0BF03B50D8A4F2EF0AF05A
:1015E000F4EF0AF003EF0BF00C0E4214446E000E01
:1015F0004314456E44504510D8B401EF0BF003EF8F
:101600000BF010EF0BF04006D8A0410610EF0BF0E6
:1016100038503924D96EDA6A300EDF6E394A3A2AE8
:101620003E50395C3F503A58D8B019EF0BF01BEFE1
:101630000BF030EF0BF03A5009E1200E395CD8A0E6
:1016400024EF0BF026EF0BF008EF0BF030EF0BF070
:1016500038503924D96EDA6A300EDF6E394A3A2AA8
:1016600042A035EF0BF037EF0BF04DEF0BF0405091
:10167000395C41503A58D8B040EF0BF042EF0BF0D4
:101680004DEF0BF03A5009E1200E395CD8A04BEF3A
:101690000BF04DEF0BF028EF0BF042A852EF0BF0E0
:1016A00054EF0BF00FEF0CF043B459EF0BF05BEF7E
:1016B0000BF095EF0BF039503A10D8B462EF0BF005
:1016C00064EF0BF095EF0BF03E50391809E13F50F5
:1016D0003A18D8B46EEF0BF070EF0BF07CEF0BF014
:1016E0004050391807E141503A18D8A47AEF0BF06E
:1016F0007CEF0BF095EF0BF03906D8A03A06395085
:101700003A10D8B486EF0BF088EF0BF095EF0BF0A2
:10171000100E3C183D10D8A490EF0BF092EF0BF098
:1017200095EF0BF03906D8A03A06100E3C183D1084
:10173000D8A49DEF0BF09FEF0BF0BBEF0BF042BA7C
:10174000A4EF0BF0A6EF0BF0BBEF0BF03A5007E164
:10175000200E395CD8B0AFEF0BF0B1EF0BF0BBEF60
:101760000BF038503924D96EDA6A780EDF6E394AB8
:101770003A2AFCEF0BF0100E3C183D10D8A4C3EF32
:101780000BF0C5EF0BF0DFEF0BF042AACAEF0BF046
:10179000CCEF0BF0DFEF0BF03A5007E1200E395C95
:1017A000D8B0D5EF0BF0D7EF0BF0DFEF0BF03850E0
:1017B0003924D96EDA6A580EDF6EB7EF0BF0020EDD
:1017C0003C183D10D8A4E7EF0BF0E9EF0BF0FCEF6D
:1017D0000BF03A5007E1200E395CD8B0F2EF0BF075
:1017E000F4EF0BF0FCEF0BF038503924D96EDA6AC5
:1017F000620EDF6EB7EF0BF03A5007E1200E395C56
:10180000D8B005EF0CF007EF0CF00FEF0CF03850EC
:101810003924D96EDA6A300EDF6E394A3A2A3A50E4
:1018200007E1200E395CD8B018EF0CF01AEF0CF07D
:101830004AEF0CF03B50D8B420EF0CF022EF0CF044
:101840002CEF0CF038503924D96EDA6A2D0EDF6E89
:10185000394A3A2A4AEF0CF042A431EF0CF033EF48
:101860000CF03BEF0CF038503924D96EDA6A2B0EAD
:10187000DF6E28EF0CF042A640EF0CF042EF0CF0C8
:101880004AEF0CF038503924D96EDA6A200EDF6E38
:1018900028EF0CF030C01BF031C01CF032C01DF03E
:1018A00033C01EF034C01FF035C020F036C021F028
:1018B00037C022F038C023F039C024F03AC025F0F8
:1018C00040C026F041C027F042C028F043C029F0B4
:1018D00039EC0DF01BC030F01CC031F012000001DB
:1018E0009D6B000E9C6F685169116A116B11D8A431
:1018F0007CEF0CF07EEF0CF07FEF0CF0759976A585
:1019000084EF0CF086EF0CF091EF0CF06851691148
:101910006A116B11D8B48FEF0CF091EF0CF00AEF55
:101920000DF068C00EF069C00FF06AC010F06BC017
:1019300011F06DC012F06EC013F06FC014F070C0E3
:1019400015F01AEC10F00E5000019B6F090E9B650C
:10195000ACEF0CF0AEEF0CF0CBEF0CF075BBB3EFCF
:101960000CF0B5EF0CF0BAEF0CF09A6B610E996FBA
:10197000BDEF0CF09A6B410E996F9B519925466E05
:10198000000E9A21476EF60E4624976FFF0E4720F1
:10199000986FD1EF0CF0300E9B25976F986B000E6F
:1019A00098239C51770FD96EDA6A97C0DFFF9C4B62
:1019B0009D2B68C00EF069C00FF06AC010F06BC0BC
:1019C00011F06DC012F06EC013F06FC014F070C053
:1019D00015F053EC0EF00EC068F00FC069F010C0A7
:1019E0006AF011C06BF00001685169116A116B1146
:1019F000D8B4FDEF0CF0FFEF0CF00AEF0DF09D51A5
:101A000009E1200E9C5DD8A008EF0DF00AEF0DF063
:101A100091EF0CF060C030F061C031F062C032F084
:101A200063C033F064C034F065C035F066C036F092
:101A300067C037F0770E386E9CC039F09DC03AF021
:101A40006CC03BF06DC03CF06EC03DF071C03EF02C
:101A500072C03FF073C040F074C041F075C042F0F6
:101A600076C043F0D5EC0AF030C060F031C061F0D0
:101A700012001FC02CF020C02DF028B242EF0DF054
:101A800044EF0DF09FEF0DF028B049EF0DF04BEF54
:101A90000DF09FEF0DF024C02EF025C02FF06FEF5A
:101AA0000DF0200E146E1DC015F01EC016F01FC0E4
:101AB00017F020C018F021C019F022C01AF002D887
:101AC0006BEF0DF00500FA6E1B50FD6E1C50FE6EA4
:101AD000FF6AFA5012001F4A202A2E4A2F2A265047
:101AE0002E5C27502F58D8A078EF0DF07AEF0DF02C
:101AF00051EF0DF09FEF0DF02406D8A025062350DE
:101B00002424D96EDA6ADF50146E1DC015F01EC091
:101B100016F01FC017F020C018F021C019F022C025
:101B20001AF002D89DEF0DF00500FA6E1B50FD6E05
:101B30001C50FE6EFF6AFA5012001F4A202A2450E1
:101B40002510D8A4A6EF0DF0A8EF0DF07CEF0DF056
:101B500028A2ADEF0DF0AFEF0DF0DEEF0DF0CDEF01
:101B60000DF0200E146E1DC015F01EC016F01FC023
:101B700017F020C018F021C019F022C01AF002D8C6
:101B8000CBEF0DF00500FA6E1B50FD6E1C50FE6E83
:101B9000FF6AFA5012001F4A202A2C501F5C2A6E3E
:101BA0002D5020582B6E26502A5C27502B58D8A039
:101BB000DCEF0DF0DEEF0DF0B1EF0DF01FC01BF00C
:101BC00020C01CF01200C00E0E6E000E0F6EF3EC63
:101BD0000EF0B90E0E6E010E0F6EF3EC0EF0C70E86
:101BE0000E6EFAEC11F0C70E156E7CEC11F0F28E51
:101BF000F28CC00E0E6E000E0F6EA5EC0EF0B90E3C
:101C00000E6E4DEC11F00001B06FB051D8A40BEF87
:101C10000EF00DEF0EF022EF0EF0010EA96F070E81
:101C2000AB6FEA0EAA6F2CEC12F00D0E0001AF6F35
:101C3000AF0EAE6FB60EE82EFED7AE2FFCD7AF2F8D
:101C4000FAD70000B10E136E88EC12F00009D8B478
:101C50002CEF0EF02EEF0EF0FFEF0DF0410E000115
:101C6000B119D8A436EF0EF038EF0EF040EF0EF0B9
:101C7000C00E0E6E010E0F6EA5EC0EF0FFEF0DF014
:101C8000420EB119D8A447EF0EF049EF0EF0FFEF66
:101C90000DF0C00E0E6E000E0F6EA5EC0EF0FFEFF5
:101CA0000DF007EF00F0000E166E000E176E000E1E
:101CB000186E000E196E1250131014101510D8B4AF
:101CC00064EF0EF066EF0EF09CEF0EF0010E1A6E50
:101CD00070EF0EF0D89012361336143615361A2AD5
:101CE00015AE75EF0EF077EF0EF06AEF0EF0D890AC
:101CF000163617361836193612500E5C13500F5818
:101D00001450105815501158D8A089EF0EF08BEFD1
:101D10000EF094EF0EF012500E5E13500F5A145046
:101D2000105A1550115A1680D890153214321332A9
:101D300012321A2E77EF0EF016C00EF017C00FF009
:101D400018C010F019C011F012000F04D8A4ABEFA6
:101D50000EF0ADEF0EF0CFEF0EF00E50D96EDA6A46
:101D6000060ED926DF50106E010E116E102ABBEF41
:101D70000EF0D8901136102EB9EF0EF00E50D96E2D
:101D8000DA6A020ED926DECF12F0DDCF13F012C0D0
:101D9000D9FF13C0DAFF1150DF12F2EF0EF00E5030
:101DA000D96EDA6A060ED926DF50106E010E116E5A
:101DB000102ADDEF0EF0D8901136102EDBEF0EF06A
:101DC0001150FF0A126E0E50D96EDA6A020ED92631
:101DD000DECF13F0DDCF14F013C0D9FF14C0DAFF4B
:101DE0001250DF1612000F50D8A4F9EF0EF0FBEFDF
:101DF0000EF01EEF0FF00E50D96EDA6A060ED926DD
:101E0000DF50106E010E116E102A09EF0FF0D890FE
:101E10001136102E07EF0FF01150FF0A126E0E5000
:101E2000D96EDA6ADECF13F0DDCF14F013C0D9FF1C
:101E300014C0DAFF1250DF163CEF0FF00E50D96ECF
:101E4000DA6A060ED926DF50106E010E116E102AC6
:101E50002CEF0FF0D8901136102E2AEF0FF00E5005
:101E6000D96EDA6ADECF12F0DDCF13F012C0D9FFDF
:101E700013C0DAFF1150DF12120020EE15F00E50E1
:101E8000D9260F50DA2210EE14F00E50E1260F5032
:101E9000E222DE50E618D8A450EF0FF052EF0FF018
:101EA00055EF0FF0000E86EF0FF020EE15F00E50FC
:101EB000D9260F50DA22DF50116E11500E24D96E40
:101EC000000E0F20DA6E1050E16EE26ADFCFE7FFFE
:101ED00020EE15F00E50D9260F50DA22DF2A20EE20
:101EE00015F00E50D9260F50DA22140EDE18D8A4A1
:101EF0007CEF0FF07EEF0FF085EF0FF020EE15F086
:101F00000E50D9260F50DA22DF6A010E120020EEA1
:101F100015F00250D9260350DA2210EE14F00250C8
:101F2000E1260350E222DE50E618D8A49AEF0FF023
:101F30009CEF0FF09FEF0FF0000ED0EF0FF020EEB0
:101F400015F00250D9260350DA22DF50056E0550F5
:101F50000224D96E000E0320DA6E0450E16EE26AAC
:101F6000DFCFE7FF20EE15F00250D9260350DA222A
:101F7000DF2A20EE15F00250D9260350DA22140E83
:101F8000DE18D8A4C6EF0FF0C8EF0FF0CFEF0FF0B8
:101F900020EE15F00250D9260350DA22DF6A010E36
:101FA00012009EAAD6EF0FF0D8EF0FF0F7EF0FF068
:101FB000ABA2DDEF0FF0DFEF0FF0E3EF0FF0AB9828
:101FC000AB8819EF10F0ABA4E8EF0FF0EAEF0FF0D9
:101FD000EDEF0FF0AE5019EF10F0AECF07F02B0E73
:101FE000026E010E036E07C004F09CEC10F09EA878
:101FF000FCEF0FF0FEEF0FF019EF10F09DA803EFCC
:1020000010F005EF10F019EF10F0CD0E026E036A1C
:10201000080E046E87EC0FF00009D8B412EF10F030
:1020200014EF10F018EF10F008C0ADFF19EF10F02A
:102030009D9812001250131014101510D8B423EFED
:1020400010F025EF10F055EF10F0010E166E2FEF87
:1020500010F0D8901236133614361536162A15AEEF
:1020600034EF10F036EF10F029EF10F012500E5C44
:1020700013500F581450105815501158D8A043EF52
:1020800010F045EF10F04DEF10F012500E5E1350AF
:102090000F5A1450105A1550115AD8901532143244
:1020A00013321232162E36EF10F00EC00EF00FC0A3
:1020B0000FF010C010F011C011F0120020EE14F05B
:1020C0000E50D9260F50DA22DF50116E1128126EF1
:1020D000140E1218D8A46FEF10F071EF10F072EF19
:1020E00010F0126A20EE15F00E50D9260F50DA22A9
:1020F0001250DE18D8A47FEF10F081EF10F083EFBC
:1021000010F09BEF10F020EE14F00E50D9260F5077
:10211000DA22DF50116E11500E24D96E000E0F20FE
:10212000DA6E10C0DFFF20EE14F00E50D9260F50EB
:10213000DA2212C0DFFF120020EE14F00250D9267E
:102140000350DA22DF50056E0528066E140E0618BD
:10215000D8A4ADEF10F0AFEF10F0B0EF10F0066ABA
:1021600020EE15F00250D9260350DA220650DE1870
:10217000D8A4BDEF10F0BFEF10F0C1EF10F0D9EF11
:1021800010F020EE14F00250D9260350DA22DF506E
:10219000056E05500224D96E000E0320DA6E04C0CD
:1021A000DFFF20EE14F00250D9260350DA2206C0D9
:1021B000DFFF1200166A000E156EFEEF10F00A0E19
:1021C0001502F3CF12F0F4CF13F01602F3501326DA
:1021D0001050D96EDA6ADFCF14F0010EDF2614C07A
:1021E000F6FF080EF76E0800F5501226000E1322B7
:1021F000D00E1224156EFF0E1320166E1050D96EDD
:10220000DA6ADFCFF6FF080EF76E0800F55016EC1D
:1022100012F00009D8A40FEF11F011EF11F0DFEF69
:1022200010F015C010F016C011F01200C80EF66EB6
:10223000240EF76E000EF86E00EEB2F010EE1BF0FA
:102240000900F5CFEEFFE550E150FAE1220EF66EFF
:10225000250EF76E000EF86E00EE48F010EE07F057
:102260000900F5CFEEFFE550E150FAE101EE2BF069
:10227000160EEE6AE806FDE100EECDF0160EEE6AEF
:10228000E806FDE1526A516A506A4F6A0190019274
:10229000000EF86E0001E3EF0DF00E50D96EDA6A11
:1022A000040ED926DECF0FF0DDCF10F00FC0D9FF1E
:1022B00010C0DAFFDF50116E0E50D96EDA6A060ECA
:1022C000D926DF50126E010E136E122A6AEF11F03A
:1022D000D8901336122E68EF11F013501114000924
:1022E000D8B475EF11F077EF11F07AEF11F0010E1D
:1022F0007BEF11F0000E12001550D96EDA6ADF5034
:102300000E6E010E0F6EF3EC0EF01550D96EDA6AF8
:10231000010ED926DF500E6E010E0F6EF3EC0EF09B
:10232000CD0E0E6E0F6A55EC12F02B0E0E6E010ED6
:102330000F6E55EC12F0AB8EAC8AAB889E989D98D0
:102340009EAAA5EF11F0A7EF11F0A8EF11F0AE5083
:102350009D8A12000600E1CF0AF0E2CF0BF0D9CF40
:102360000CF0DACF0DF0000E9EBA010E9EB8010EF1
:10237000E8B0BDEF11F0C1EF11F0096A092AC2EF10
:1023800011F0096A0950D8B4C8EF11F0CAEF11F082
:10239000CCEF11F0D1EC0FF00DC0DAFF0CC0D9FF7B
:1023A0000BC0E2FF0AC0E1FF019211000EC011F064
:1023B000DBEF11F0112A1150D96EDA6ADF50D8B470
:1023C000E4EF11F0E6EF11F0F3EF11F00F06D8A0F3
:1023D00010060F2806E11028D8A4F1EF11F0F3EF52
:1023E00011F0DAEF11F00E50115C0E6E0F6A0EBE96
:1023F0000F061200AC9CAB9CAC980E50D96EDA6AFA
:10240000020ED926800EDE1809E1250EDE18DE1038
:10241000DE10D8A40EEF12F010EF12F015EF12F04C
:10242000AC84B896B06A810EAF6E12000F6E0E6A61
:102430002F0E0F641EEF12F020EF12F02AEF12F0B1
:102440003A0E0F6026EF12F028EF12F02AEF12F08A
:10245000010E0E6E0E501200AA0E0001AD6FE40EBA
:102460009E6F240E9F6FAC0EA06FA16BFF0EA36F2B
:10247000A269A9C0A4F0AD0EA56FA66B06EC04F08E
:1024800012001950175C1A501858D8B04AEF12F0C1
:102490004CEF12F054EF12F017501524D96E18506B
:1024A0001620DA6E14C0DFFF120020EE14F00E507A
:1024B000D9260F50DA22DF6A20EE15F00E50D92609
:1024C0000F50DA22DF6A1200940F8B0F820F0693EF
:1024D0000F8A0F810F00950F8C0F830F0048B28079
:0324E000250000D4
:1024E4001450D8B478EF12F07AEF12F07DEF12F0B6
:1024F40014507EEC12F01200136ECD0E0E6E0F6AA5
:1025040013C010F05EEC10F09D8812002B0E0E6EBE
:10251400010E0F6E13C010F03DEC0FF01200940F7B
:052524008B0F820F0780
:04252A001200120089
:020000040030CA
:08000000000C1E1EFF8181FFB0
:00000001FF
