:0400000007EF00F016
:0A0008000182D5ED0CF0B9EF09F00C
:10080000003F065B4F666D7D077F67253032753A86
:0D081000253032753A253032750D0A000092
:10081E002C0E4E6E90EC0CF0020AD8A419EF04F0D8
:10082E001BEF04F072EF04F054EF04F05450D96E45
:10083E00DA6A010ED926010EDF6E72EF04F0545003
:10084E00D96EDA6A010ED926020EDF6E72EF04F04F
:10085E005450D96EDA6A010ED926DF6A5450D96E19
:10086E00DA6ADF50D96EDA6A010ED926DF50516E80
:10087E005450D96EDA6ADF50D96EDA6A020ED92672
:10088E00DF50526E5450D96EDA6ADF50D96EDA6A82
:10089E00DF507FEC0CF072EF04F05450D96EDA6A30
:1008AE00010ED926DF50556E566A5650000AD8B43E
:1008BE0063EF04F072EF04F05550000AD8B41DEF48
:1008CE0004F0010AD8B426EF04F0030AD8B42FEFCF
:1008DE0004F072EF04F0250E4E6E90EC0CF0020A4E
:1008EE00D8A47CEF04F07EEF04F0D9EF04F054505E
:1008FE00D96EDA6A010ED926DE04D8A489EF04F087
:10090E008BEF04F0A8EF04F05450D96EDA6ADF5082
:10091E00D96EDA6ADF2A5450D96EDA6ADF50D96E90
:10092E00DA6A180EDE18D8A49FEF04F0A1EF04F0D7
:10093E00A8EF04F05450D96EDA6ADF50D96EDA6A35
:10094E00DF6A5450D96EDA6A010ED926020EDE180D
:10095E00D8A4B4EF04F0B6EF04F0D9EF04F054507D
:10096E00D96EDA6ADF50D96EDA6A010ED926DF2A1D
:10097E005450D96EDA6ADF50D96EDA6A010ED92672
:10098E003C0EDE18D8A4CEEF04F0D0EF04F0D9EF71
:10099E0004F05450D96EDA6ADF50D96EDA6A010E5D
:1009AE00D926DF6A1E0E4E6E90EC0CF0020AD8A409
:1009BE00E3EF04F0E5EF04F040EF05F05450D96E8C
:1009CE00DA6A010ED926DE04D8A4F0EF04F0F2EFB5
:1009DE0004F00FEF05F05450D96EDA6ADF50D96E7D
:1009EE00DA6ADF50D8A4FEEF04F000EF05F008EF4E
:1009FE0005F05450D96EDA6ADF50D96EDA6A180EE5
:100A0E00DF6E5450D96EDA6ADF50D96EDA6ADF06BD
:100A1E005450D96EDA6A010ED926020EDE18D8A409
:100A2E001BEF05F01DEF05F040EF05F05450D96EA9
:100A3E00DA6ADF50D96EDA6A010ED926DF50D8A4F1
:100A4E002BEF05F02DEF05F037EF05F05450D96E72
:100A5E00DA6ADF50D96EDA6A010ED9263C0EDF6EE5
:100A6E005450D96EDA6ADF50D96EDA6A010ED92681
:100A7E00DF0612001450070D1850F3245B6E5BC096
:100A8E0056F0576A000E586E000E596EFCEC09F0C7
:100A9E000001DB6BDB51070D1850F3245B6E5BC05E
:100AAE0056F0576A000E586E000E596EFCEC09F0A7
:100ABE000001DB2B030EDB6567EF05F069EF05F038
:100ACE0051EF05F00A4A0B2A38C05BF039C05CF0D2
:100ADE00D8905B365C365B500A5C5C500B58D8A0E5
:100AEE007BEF05F07DEF05F080EF05F00B6A000E51
:100AFE000A6E1B04D8A486EF05F088EF05F0B9EF57
:100B0E0005F017C056F0576A010E586E000E596E5A
:100B1E00FCEC09F016C056F0576A000E586E010E26
:100B2E00596EFCEC09F038500A5C39500B58D8B0AD
:100B3E00A3EF05F0A5EF05F0B0EF05F016C056F0E7
:100B4E00576A010E586E010E596EFCEC09F0B9EFA2
:100B5E0005F016C056F0576A000E586E010E596E0B
:100B6E00FCEC09F0142A1550145CD8A0C1EF05F066
:100B7E00C3EF05F0C4EF05F0146A0001DC6B1450EE
:100B8E00060FD96EDA6ADF505B6E5B50010F5C6E3A
:100B9E005CC0F6FF080EF76E0800F5CF5DF0DCC006
:100BAE005EF0010E5F6E5E2ADFEF05F0D8905F36C5
:100BBE005E2EDDEF05F05F505D140009D8B4EAEF4C
:100BCE0005F0ECEF05F001EF06F00001DC51070D2A
:100BDE00F3CF5BF0F4CF5CF05B500C24566E5C50A0
:100BEE000D20576E010E586E010E596EFCEC09F079
:100BFE0014EF06F00001DC51070DF3CF5BF0F4CFDC
:100C0E005CF05B500C24566E5C500D20576E000E3F
:100C1E00586E010E596EFCEC09F00001DC2B060E2D
:100C2E00DC651CEF06F01EEF06F0C6EF05F0145063
:100C3E00070D1850F3245B6E5BC056F0576A010E19
:100C4E00586E000E596EFCEC09F012005450D96E1D
:100C5E00DA6A010ED926DE04D8A438EF06F03AEF90
:100C6E0006F04EEF06F05450D96EDA6ADF504E6E33
:100C7E0042EC0BF0E806D8B447EF06F04AEF06F068
:100C8E00010E4BEF06F0000E576E60EF06F054505B
:100C9E00D96EDA6ADF504E6E42EC0BF0E806D8A43D
:100CAE005BEF06F05EEF06F0010E5FEF06F0000E52
:100CBE00576E5450D96EDA6A020ED9265750DE1886
:100CCE00D8A46CEF06F06EEF06F076EF06F05450F7
:100CDE00D96EDA6A040ED926DF6AECEF06F05450AC
:100CEE00D96EDA6A040ED926DF2A5450D96EDA6A22
:100CFE00050ED9265450E16EE26A040EE126DE504E
:100D0E00E65CD8A08DEF06F08FEF06F0ECEF06F064
:100D1E005450D96EDA6A020ED9265450E16EE26A48
:100D2E00030EE126DFCFE7FF5450D96EDA6A020ECA
:100D3E00D92657C0DFFF5450D96EDA6A030ED92672
:100D4E00DF50D8A4ADEF06F0AFEF06F0C5EF06F01A
:100D5E005450D96EDA6A020ED926DE04D8A4BAEF40
:100D6E0006F0BCEF06F0C5EF06F05450D96EDA6A05
:100D7E00060ED926010EDF6EE6EF06F05450D96E40
:100D8E00DA6A030ED926DE04D8A4D0EF06F0D2EF2D
:100D9E0006F0E6EF06F05450D96EDA6A020ED92646
:100DAE00DF50D8A4DDEF06F0DFEF06F0E6EF06F039
:100DBE005450D96EDA6A060ED926020EDF6E5450E2
:100DCE00D96EDA6A040ED926DF6A12005B50D96E2C
:100DDE00DA6A040ED926DECF0CF0DDCF0DF05B50B3
:100DEE00D96EDA6A060ED926DF50186E5B50D96EB0
:100DFE00DA6A080ED926DF50176E5B50D96EDA6AA2
:100E0E00070ED926DF50166E5B50D96EDA6ADF50A8
:100E1E001B6E5B50D96EDA6A010ED926DF501A6E40
:100E2E005B50D96EDA6A020ED926DF50196E5B500E
:100E3E00D96EDA6A030ED926DF50156E5F6A5F50DF
:100E4E00070DF3CF5CF0F4CF5DF05C500C244E6ECA
:100E5E005D500D204F6E000E506EE0EC08F05F50AE
:100E6E00070DF3CF5CF0F4CF5DF05C500C24566EA2
:100E7E005D500D20576E000E586E010E596EFCEC33
:100E8E0009F05F2A060E5F644FEF07F051EF07F08F
:100E9E0026EF07F05E6A6FEF07F05E50070D1850F1
:100EAE00F3245C6E5CC04EF04F6A000E506EE0ECA8
:100EBE0008F05E50070D1850F3245C6E5CC056F0BF
:100ECE00576A000E586E000E596EFCEC09F05E2A41
:100EDE0015505E5CD8A076EF07F078EF07F054EF70
:100EEE0007F01B04D8A47EEF07F080EF07F0A0EF09
:100EFE0007F016C04EF04F6A000E506EE0EC08F090
:100F0E0016C056F0576A000E586E010E596EFCEC64
:100F1E0009F017C04EF04F6A000E506EE0EC08F06C
:100F2E0017C056F0576A000E586E000E596EFCEC44
:100F3E0009F01200360E5B6E330E5C6E9EEC0BF0FB
:100F4E00480E4E6E31EC0CF0480E566E11EC0BF056
:100F5E00FAEC0CF013EC0DF07C0E5B6EEDEC06F083
:100F6E000FEC0DF0330E576E000E586E000E596ECC
:100F7E00000E5A6EAAEC0AF0410E4E6E4F6A000E2B
:100F8E00506EE0EC08F0F0EC0BF0360E546E0FECF9
:100F9E0004F0ADEC0CF00009D8B4D8EF07F0DAEF9E
:100FAE0007F0DEEF07F0C8EC0CF041EC05F09FEC1B
:100FBE000CF00009D8B4E6EF07F0E8EF07F004EF05
:100FCE0008F0330E4E6E2EEC09F03750D8A4F2EF27
:100FDE0007F0F4EF07F004EF08F0330E4E6E4DEC11
:100FEE000CF04EC055F04FC056F071EC0BF0010EE8
:100FFE004F6EF40E4E6E0AEC0DF03704D8A40AEFC5
:10100E0008F00CEF08F01BEF08F04F6A960E4E6ECC
:10101E000AEC0DF0330E4E6E4DEC0CF04EC055F04A
:10102E004FC056F071EC0BF0020E3718D8A422EF19
:10103E0008F024EF08F0CAEF07F04F6A960E4E6ED6
:10104E000AEC0DF0330E4E6E4DEC0CF04EC055F01A
:10105E004FC056F071EC0BF0CAEF07F007EF00F03F
:10106E00536A4FBE3FEF08F03DEF08F045EF08F032
:10107E004E6C4F1ED8B04F2A010E536E51BE4CEF20
:10108E0008F04AEF08F050EF08F0506C511ED8B03F
:10109E00512A50505110D8B457EF08F059EF08F0BC
:1010AE007DEF08F0010E526E61EF08F0D8905036C9
:1010BE005136522A51AE66EF08F068EF08F05DEF38
:1010CE0008F050504E5C51504F58D8A071EF08F0B8
:1010DE0073EF08F077EF08F050504E5E51504F5AB4
:1010EE00D89051325032522E68EF08F05350D8B487
:1010FE0083EF08F085EF08F089EF08F04E6C4F1E75
:10110E00D8B04F2A4EC04EF04FC04FF012005004D0
:10111E00D8A494EF08F096EF08F0BAEF08F020EE9E
:10112E0006F04E50D9264F50DA22DF50516E010E86
:10113E00526E512AA5EF08F0D8905236512EA3EFD9
:10114E0008F020EE02F04E50D9264F50DA22DECFB4
:10115E0053F0DDCF54F053C0D9FF54C0DAFF5250D4
:10116E00DF12DFEF08F020EE06F04E50D9264F507A
:10117E00DA22DF50516E010E526E512AC9EF08F07D
:10118E00D8905236512EC7EF08F05250FF0A536EC8
:10119E0020EE02F04E50D9264F50DA22DECF54F018
:1011AE00DDCF55F054C0D9FF55C0DAFF5350DF16CE
:1011BE0012005050D8A4E6EF08F0E8EF08F00DEF5B
:1011CE0009F020EE06F04E50D9264F50DA22DF50AD
:1011DE00516E010E526E512AF7EF08F0D89052362A
:1011EE00512EF5EF08F05250FF0A536E4EC0D9FF44
:1011FE004FC0DAFFDECF54F0DDCF55F054C0D9FF2B
:10120E0055C0DAFF5350DF162DEF09F020EE06F031
:10121E004E50D9264F50DA22DF50516E010E526ECB
:10122E00512A1CEF09F0D8905236512E1AEF09F0C0
:10123E004EC0D9FF4FC0DAFFDECF53F0DDCF54F0F2
:10124E0053C0D9FF54C0DAFF5250DF1212004E5075
:10125E00D96EDA6A020ED926DF2A4E50D96EDA6AB4
:10126E00020ED9263B0EDF643FEF09F041EF09F085
:10127E0073EF09F04E50D96EDA6A020ED926DF6A84
:10128E004E50D96EDA6A010ED926DF2A4E50D96E2B
:10129E00DA6A010ED9263B0EDF6458EF09F05AEFD9
:1012AE0009F073EF09F04E50D96EDA6A010ED926A5
:1012BE00DF6A4E50D96EDA6ADF2A4E50D96EDA6A7C
:1012CE00170EDF646DEF09F06FEF09F073EF09F0A1
:1012DE004E50D96EDA6ADF6A1200000E02EC0DF083
:1012EE00A50AD8B47DEF09F07FEF09F0A3EF09F05E
:1012FE005450D96EDA6A0C0EDF6E5550D96EDA6A1A
:10130E00DF6A5650D96EDA6ADF6A5550D96EDA6ADC
:10131E00DF50516E5650D96EDA6ADF50526E54500D
:10132E00D96EDA6ADF507FEC0CF0A50E4E6E000E11
:10133E0011EC0CF0B8EF09F05450D96EDA6A010EC8
:10134E0002EC0DF0DF6E5550D96EDA6A020E02EC29
:10135E000DF0DF6E5650D96EDA6A030E02EC0DF008
:10136E00DF6E1200CC0EF66E180EF76E000EF86ED3
:10137E0001EE00F010EE31F00900F5CFEEFFE55072
:10138E00E150FAE1900EF66E170EF76E000EF86E43
:10139E0000EE60F010EE4FF00900F5CFEEFFE550D5
:1013AE00E150FAE1DE0EF66E190EF76E000EF86ED3
:1013BE0000EE38F010EE16F00900F5CFEEFFE55016
:1013CE00E150FAE100EEAFF02C0EEE6AE806FDE118
:1013DE0000EE02F0360EEE6AE806FDE10190019293
:1013EE00000EF86E0001A1EF07F05950D8A402EFDD
:1013FE000AF004EF0AF026EF0AF01904D8A40AEF57
:10140E000AF00CEF0AF019EF0AF05804D8B412EFF4
:10141E000AF015EF0AF0010E16EF0AF0000E5A6EE2
:10142E0030EF0AF05850D8B41FEF0AF022EF0AF04E
:10143E00010E23EF0AF0000E5A6E30EF0AF01A0476
:10144E00D8A42CEF0AF02EEF0AF019EF0AF00CEFE9
:10145E000AF056C04EF057C04FF05AC050F08EEC06
:10146E0008F01200536A000E526E50505110D8B44C
:10147E0043EF0AF045EF0AF06DEF0AF0010E546EDD
:10148E004DEF0AF0D89050365136542A51AE52EFE5
:10149E000AF054EF0AF049EF0AF0D890523653365C
:1014AE0050504E5C51504F58D8A060EF0AF062EF8A
:1014BE000AF067EF0AF050504E5E51504F5A52806C
:1014CE00D89051325032542E54EF0AF052C04EF092
:1014DE0053C04FF012005650D96EDA6A57C0DFFF74
:1014EE005650D96EDA6A010ED92658C0DFFF565013
:1014FE00D96EDA6A020ED926DF6A5650D96EDA6ACA
:10150E00030ED926DF6A5650D96EDA6A040ED92632
:10151E00DF6A5650D96EDA6A050ED92659C0DFFF3A
:10152E005650D96EDA6A060ED926DF6A5650D96E33
:10153E00DA6ADF505A6E5AC04EF04F6A010E506E84
:10154E00E0EC08F012005750D96EDA6A58C04EF02F
:10155E004F6A516A180E506E37EC08F04E50DF6E1F
:10156E005750D96EDA6A010ED92659C04EF04F6A1D
:10157E00516A3C0E506E37EC08F04E50DF6E5750ED
:10158E00D96EDA6A020ED9265AC04EF04F6A516AE7
:10159E003C0E506E37EC08F04E50DF6E57C054F0D4
:1015AE005728556E5750020F566E74EC09F0120004
:1015BE0050505110D8B4E6EF0AF0E8EF0AF00CEFF5
:1015CE000BF0010E526EF0EF0AF0D89050365136F5
:1015DE00522A51AEF5EF0AF0F7EF0AF0ECEF0AF0EF
:1015EE0050504E5C51504F58D8A000EF0BF002EF08
:1015FE000BF006EF0BF050504E5E51504F5AD890F4
:10160E0051325032522EF7EF0AF04EC04EF04FC00C
:10161E004FF012005650D96EDA6ADF50576E57C02F
:10162E004EF04F6A010E506EE0EC08F05650D96E37
:10163E00DA6A010ED926DF50576E57C04EF04F6A48
:10164E00010E506EE0EC08F0C50E4E6EBBEC0CF0C9
:10165E00AF0E4E6EBBEC0CF0AB8EAC8AAB889E9888
:10166E009D989EAA3DEF0BF03FEF0BF040EF0BF075
:10167E00AE509D8A12004E50D96EDA6A040ED926EB
:10168E00DECF4FF0DDCF50F04FC0D9FF50C0DAFFA4
:10169E00DF50516E4E50D96EDA6A060ED926DF50E3
:1016AE00526E010E536E522A5FEF0BF0D8905336E6
:1016BE00522E5DEF0BF0535051140009D8B46AEF5F
:1016CE000BF06CEF0BF06FEF0BF0010E70EF0BF0F9
:1016DE00000E1200586A94EF0BF055C04EF056C033
:1016EE004FF0516A0A0E506EDFEC0AF04E50576EF4
:1016FE00585005081524D96EDA6A57C0DFFF55C059
:10170E004EF056C04FF0516A0A0E506E39EC0AF088
:10171E004EC055F04FC056F0582A1550585CD8A000
:10172E009BEF0BF09DEF0BF074EF0BF012005B5084
:10173E00D96EDA6A5CC0DFFF5B50D96EDA6A010ED1
:10174E00D926DF6A2C0E566E3A0E576E000E586E64
:10175E00190E596E72EC0AF0250E566E8C0E576EDF
:10176E00000E586E190E596E72EC0AF01E0E566E61
:10177E00850E576E000E586E190E596E72EC0AF0E9
:10178E001200930F8A0F810F04930F8A0F810F059A
:10179E00930F8A0F810F06930F8A0F810F07010097
:1017AE000004000160A8A1930F8A0F810F02930F0E
:1017BE008A0F810F01940F8B0F820F06940F8B0FE0
:1017CE00820F07960F8D0F840F00950F8C0F830FCE
:0117DE000703
:1017E00010501110D8B4F7EF0BF0F9EF0BF010EF29
:1017F0000CF01006D8A01106010E1C6E0E4A0F2A1E
:10180000E80E0E5C030E0F58D8A009EF0CF00BEF9A
:101810000CF010EF0CF00F6A000E0E6E010E1D6E34
:1018200012004F6E000EF2BE010E506E4FC0A9FFA7
:101830004EC0A8FFA69EA69CA684F29E550EA76E3B
:10184000AA0EA76EA68250B002D0F29E01D0F28EF0
:10185000A6B22DEF0CF02FEF0CF028EF0CF0A694B1
:101860001200AC9CAB9CAC984E50D96EDA6A020E5A
:10187000D926800EDE1809E1250EDE18DE10DE10F6
:10188000D8A445EF0CF047EF0CF04CEF0CF0AC8413
:10189000B896B06A810EAF6E12004E50D96EDA6AF9
:1018A000010ED926DF50506E4E50D96EDA6ADF50E5
:1018B000516E5150640DF3CF52F0F4CF53F05050AD
:1018C00052244E6E000E53204F6E1200950F8C0F57
:1018D000830F00950F8C0F830F01950F8C0F830FD3
:1018E00002950F8C0F830F03950F8C0F830F0495B8
:0D18F0000F8C0F830F05950F8C0F830F06D3
:1018FE00536E53C04EF0010E11EC0CF051C04EF071
:10190E00020E11EC0CF052C04EF0030E11EC0CF066
:10191E0012004E50D96EDA6A060ED926DF504F6E7F
:10192E004E50D96EDA6A060ED926DF6A4F50120073
:10193E001D50D8B4A5EF0CF0A7EF0CF0ABEF0CF0E8
:10194E001D6A010EACEF0CF0000E12001C50D8B444
:10195E00B3EF0CF0B5EF0CF0B9EF0CF01C6A010E02
:10196E00BAEF0CF0000E12004E50D96EDA6A140E59
:10197E00D926DF6A4E50D96EDA6A150ED926DF6A7D
:10198E0012002C0E546E2DEC06F0250E546E2DEC1E
:10199E0006F01E0E546E2DEC06F0120006009EA2EE
:1019AE00DBEF0CF0DDEF0CF0E0EF0CF09E92E2ECD2
:1019BE000CF001921100115006E11028D8B0EAEF98
:1019CE000CF0ECEF0CF0EEEF0CF0104A112A1200B6
:1019DE000100930F8A0F810F00940F8B0F820F005F
:1019EE009A9380250000060ECA6EF90ECB6E9E925B
:1019FE009D82CA8412004E6E4EC0A9FFA69EA69C62
:101A0E00A680A85012004EC038F04FC039F0120018
:0C1A1E00D09EF28CF28E1200CA841200DE
:020000040030CA
:08000000040C1E1EFF8181FFAC
:00000001FF
