:0400000007EF00F016
:0A00080001824EED15F085EF16F0B1
:10080000003F065B4F666D7D077F67253032753A86
:10081000253032753A253032750D0A00310D0A0047
:0D082000320D0A00410D0A00420D0A0000D1
:10082E000101DE6B000EDD6F0001A451A511D8A4ED
:10083E0023EF04F025EF04F09AEF0AF0700EA26F8A
:10084E00330EA36F9AEF0AF0A8C0F6FF080EF76EEC
:10085E000800F550250AD8B437EF04F039EF04F04C
:10086E005FEF04F0A8C0F6FF080EF76E0800F5CF94
:10087E0014F0A4C015F0A5C016F0DDC117F0DEC14E
:10088E0018F0A6C019F0A7C01AF002D858EF04F05D
:10089E000500FA6EA251FD6EA351FE6EFF6AFA506C
:1008AE0012000101DD4BDE2B0001A82B9AEF0AF09E
:1008BE00A82B0101E06B000EDF6F88EF04F0DF81E3
:1008CE000001A82B0101CB6B010ECA6FA4EF04F03F
:1008DE00DF830001A82B69EF04F0DF850001A82B50
:1008EE0069EF04F0DF870001A82B69EF04F0DF89C0
:1008FE000001A82B69EF04F0CB6B000ECA6FA4EFBA
:10090E0004F0A8C0F6FF080EF76E0800F550200A96
:10091E00D8B479EF04F0030AD8B47EEF04F0080AD5
:10092E00D8B474EF04F0060AD8B46FEF04F01D0AC1
:10093E00D8B466EF04F083EF04F0CA51CB11D8A4FB
:10094E00ABEF04F0ADEF04F088EF04F0DA6B000EBD
:10095E00D96FA8C0F6FF080EF76E0800F550EBEC45
:10096E0018F00009D8B4BEEF04F0C0EF04F0CAEFDF
:10097E0004F0A80E106E49EC16F010C0D9F111C09B
:10098E00DAF103EF05F0A8C0F6FF080EF76E0800C7
:10099E00F5502A0AD8A4D6EF04F0D8EF04F003EFEE
:1009AE0005F0A9C0D9FFAAC0DAFF020EDF26DF5C70
:1009BE00D96EDA6ADECFCCF1DECFCDF10101CDBF3B
:1009CE00EDEF04F0EBEF04F0FDEF04F0DF83CCC1AC
:1009DE00ABF0CDC1ACF00001AB1FAC1FAB4BAC2BE1
:1009EE00ABC0D9F1ACC0DAF101EF05F0CCC1D9F151
:1009FE00CDC1DAF10001A82B0101DC6B000EDB6F1B
:100A0E00A8C0F6FF080EF76E0800F5502E0AD8A4FF
:100A1E0013EF05F015EF05F09EEF05F0E0850001F0
:100A2E00A82BA8C0F6FF080EF76E0800F550EBECE9
:100A3E0018F00009D8B426EF05F028EF05F032EFD4
:100A4E0005F0A80E106E49EC16F010C0DBF111C0C7
:100A5E00DCF19EEF05F0A8C0F6FF080EF76E080059
:100A6E00F5502A0AD8A43EEF05F040EF05F09EEFB0
:100A7E0005F0A9C0D9FFAAC0DAFF020EDF26DF5C9F
:100A8E00D96EDA6ADECFC6F1DECFC7F10101C7BF7C
:100A9E005BEF05F0C75106E1C605D8B059EF05F07A
:100AAE005BEF05F060EF05F0DC6B000EDB6F64EFC3
:100ABE0005F0C6C1DBF1C7C1DCF10001A82B9EEF2A
:100ACE0005F00101E0810001A82BA8C0F6FF080E79
:100ADE00F76E0800F5506C0AD8A478EF05F07AEF9F
:100AEE0005F066EF0AF00101E0830001A82B66EF26
:100AFE000AF00101DF8F0001A82BA8C0F6FF080E37
:100B0E00F76E0800F550680AD8A490EF05F092EF42
:100B1E0005F066EF0AF00101DF8D0001A82B66EFEC
:100B2E000AF00101E0830001A82B66EF0AF0A8C0CD
:100B3E00F6FF080EF76E0800F550680AD8B480EF7D
:100B4E0005F0020AD8B498EF05F0060AD8B468EF9B
:100B5E0005F0160AD8B498EF05F066EF0AF0A8C0B3
:100B6E00F6FF080EF76E0800F550780AD8B4C2EFFB
:100B7E0005F0C4EF05F0D2EF05F0A8C0F6FF080EA1
:100B8E00F76E0800F550580AD8A4D0EF05F0D2EF52
:100B9E0005F0D8EF05F00101D86B100ED76F05EFF9
:100BAE0006F0A8C0F6FF080EF76E0800F5506F0AA3
:100BBE00D8A4E4EF05F0E6EF05F0ECEF05F0010147
:100BCE00D86B080ED76F05EF06F0A8C0F6FF080E1B
:100BDE00F76E0800F550620AD8A4F8EF05F0FAEFA8
:100BEE0005F000EF06F00101D86B020ED76F05EF8E
:100BFE0006F00101D86B0A0ED76FDF99A8C0F6FF79
:100C0E00080EF76E0800F550580AD8A411EF06F03A
:100C1E0013EF06F014EF06F0DF8BA8C0F6FF080EF8
:100C2E00F76E0800F550690AD8B420EF06F022EFEF
:100C3E0006F034EF06F0A8C0F6FF080EF76E0800B7
:100C4E00F550640AD8B42EEF06F030EF06F034EF0C
:100C5E0006F0F30EDF17FF0EE017E0A539EF06F0F2
:100C6E003BEF06F03CEF06F0DF91A8C0F6FF080E52
:100C7E00F76E0800F550690AD8B448EF06F04AEF4F
:100C8E0006F058EF06F0A8C0F6FF080EF76E080043
:100C9E00F550640AD8A456EF06F058EF06F073EF3D
:100CAE0007F0E0A35DEF06F05FEF06F061EF06F0F0
:100CBE005BEF04F0E0A166EF06F068EF06F0DBEF05
:100CCE0006F0A9C0D9FFAAC0DAFF040EDF26DF5C4A
:100CDE00D96EDA6ADECFD1F1DECFD2F1DECFD3F12B
:100CEE00DECFD4F1D4BF88EF06F0D451D311D21198
:100CFE0006E1D105D8B086EF06F088EF06F096EF44
:100D0E0006F0D1510008B66F000ED255B76F000E27
:100D1E00D355B86F000ED455B96F9EEF06F0D1C102
:100D2E00B6F1D2C1B7F1D3C1B8F1D4C1B9F1A2C0F5
:100D3E0062F0A3C063F0A4C064F0A5C065F0DDC18D
:100D4E0066F0DEC167F0A6C068F0A7C069F0B6C154
:100D5E006AF0B7C16BF0B8C16CF0B9C16DF0D4BF19
:100D6E00BBEF06F0BEEF06F0010EBFEF06F0000E71
:100D7E0000016E6FD7C16FF0D8C170F0716B726BDE
:100D8E00DBC173F0DCC174F0D9C175F0DAC176F055
:100D9E00DFC177F0E0C178F07BEC0FF062C0DDF1DF
:100DAE0063C0DEF15BEF04F0DFBDE0EF06F0E2EFD3
:100DBE0006F00BEF07F0DFBFE7EF06F0E9EF06F006
:100DCE00F8EF06F0A9C0D9FFAAC0DAFF020EDF269F
:100DDE00DF5CD96EDA6ADECFBAF1DECFBBF105EF9A
:100DEE0007F0A9C0D9FFAAC0DAFF020EDF26DF5C2A
:100DFE00D96EDA6ADECFBAF1DECFBBF1BAC1D5F168
:100E0E00BBC1D6F11BEF07F0A9C0D9FFAAC0DAFF0C
:100E1E00DF50DF2ADF2AD96EDA6ADF500001AB6FAE
:100E2E00AB510101D56FD66BD6BF28EF07F0D65167
:100E3E0006E1D505D8B026EF07F028EF07F032EF20
:100E4E0007F0D5510008BC6FD651D8A0E82A00088B
:100E5E00BD6F36EF07F0D5C1BCF1D6C1BDF1A2C052
:100E6E0062F0A3C063F0A4C064F0A5C065F0DDC15C
:100E7E0066F0DEC167F0A6C068F0A7C069F0BCC11D
:100E8E006AF0BDC16BF000016C6B6D6B0101D6BFDA
:100E9E0053EF07F056EF07F0010E57EF07F0000E75
:100EAE0000016E6FD7C16FF0D8C170F0716B726BAD
:100EBE00DBC173F0DCC174F0D9C175F0DAC176F024
:100ECE00DFC177F0E0C178F07BEC0FF062C0DDF1AE
:100EDE0063C0DEF15BEF04F0E0A378EF07F07AEF8A
:100EEE0007F07CEF07F05BEF04F0E0A181EF07F075
:100EFE0083EF07F0C1EF07F0A2C062F0A3C063F06A
:100F0E00A4C064F0A5C065F0DDC166F0DEC167F077
:100F1E00A6C068F0A7C069F0A9C0D9FFAAC0DAFFC1
:100F2E00040EDF26DF5CD96EDA6ADECF6AF0DECF22
:100F3E006BF0DECF6CF0DECF6DF0000E00016E6F49
:100F4E00D7C16FF0D8C170F0716B726BDBC173F0EB
:100F5E00DCC174F0D9C175F0DAC176F0DFC177F07B
:100F6E00E0C178F07BEC0FF062C0DDF163C0DEF122
:100F7E005BEF04F0DFBDC6EF07F0C8EF07F0F1EF4F
:100F8E0007F0DFBFCDEF07F0CFEF07F0DEEF07F092
:100F9E00A9C0D9FFAAC0DAFF020EDF26DF5CD96E28
:100FAE00DA6ADECFC0F1DECFC1F1EBEF07F0A9C0F8
:100FBE00D9FFAAC0DAFF020EDF26DF5CD96EDA6A2D
:100FCE00DECFC0F1DECFC1F1C0C1BEF1C1C1BFF1F4
:100FDE0001EF08F0A9C0D9FFAAC0DAFFDF50DF2A5F
:100FEE00DF2AD96EDA6ADF500001AB6FAB51010117
:100FFE00BE6FBF6BA2C062F0A3C063F0A4C064F06A
:10100E00A5C065F0DDC166F0DEC167F0A6C068F070
:10101E00A7C069F0BEC16AF0BFC16BF000016C6B76
:10102E006D6B000E6E6FD7C16FF0D8C170F0716B23
:10103E00726BDBC173F0DCC174F0D9C175F0DAC12B
:10104E0076F0DFC177F0E0C178F07BEC0FF062C094
:10105E00DDF163C0DEF15BEF04F00101C96B010E3F
:10106E00C86FDFB33DEF08F03FEF08F076EF08F002
:10107E005EEF08F0200E146EA4C015F0A5C016F099
:10108E00DDC117F0DEC118F0A6C019F0A7C01AF026
:10109E0002D85BEF08F00500FA6EA251FD6EA35167
:1010AE00FE6EFF6AFA5012000101DD4BDE2BC851B5
:1010BE000001AB6F0101C9510001AC6F0101C84BBA
:1010CE00C92BD9510001AB5D0101DA510001AC59B8
:1010DE00D8A074EF08F076EF08F041EF08F0A9C041
:1010EE00D9FFAAC0DAFFDF50DF2ADF2AD96EDA6A0B
:1010FE00DF50146EA4C015F0A5C016F0DDC117F0B8
:10110E00DEC118F0A6C019F0A7C01AF002D89AEFE7
:10111E0008F005000001FA6EA251FD6EA351FE6E9D
:10112E00FF6AFA5012000101DD4BDE2BDFA3A2EFA6
:10113E0008F0A4EF08F05BEF04F0C3EF08F0200E08
:10114E00146EA4C015F0A5C016F0DDC117F0DEC1F7
:10115E0018F0A6C019F0A7C01AF002D8C0EF08F018
:10116E000500FA6EA251FD6EA351FE6EFF6AFA5093
:10117E0012000101DD4BDE2BC8510001AB6F0101E6
:10118E00C9510001AC6F0101C84BC92BD9510001E7
:10119E00AB5D0101DA510001AC59D8A0D9EF08F0CE
:1011AE00DBEF08F0A6EF08F05BEF04F0A9C0D9FF63
:1011BE00AAC0DAFF020EDF26DF5CD96EDA6ADECF56
:1011CE00D0F10101DB51DC11D8A4F0EF08F0F2EF01
:1011DE0008F0F6EF08F0C269C369FAEF08F0DBC158
:1011EE00C2F1DCC1C3F1D0C10EF0C2C10FF0C3C158
:1011FE0010F04FEC18F00EC0CEF10FC0CFF1010180
:10120E00E0A50CEF09F00EEF09F01DEF09F0DB5130
:10121E00CE5DDC51CF59D8A017EF09F019EF09F0C8
:10122E001DEF09F0DBC1CEF1DCC1CFF1DFB322EF50
:10123E0009F024EF09F07FEF09F043EF09F0200EDB
:10124E00146EA4C015F0A5C016F0DDC117F0DEC1F6
:10125E0018F0A6C019F0A7C01AF002D840EF09F096
:10126E000500FA6EA251FD6EA351FE6EFF6AFA5092
:10127E0012000101DD4BDE2BCE510001AB6F0101DF
:10128E00CF510001AC6F0101CE4BCF2BD9510001D4
:10129E00AB5D0101DA510001AC59D8A059EF09F04C
:1012AE005BEF09F026EF09F07FEF09F0D051D96E10
:1012BE00DA6ADF50146EA4C015F0A5C016F0DDC1B9
:1012CE0017F0DEC118F0A6C019F0A7C01AF002D8A8
:1012DE007BEF09F005000001FA6EA251FD6EA351DD
:1012EE00FE6EFF6AFA5012000101DD4BDE2BD02B91
:1012FE000101D051D96EDA6ADF50D8B489EF09F006
:10130E008BEF09F09FEF09F0E0A590EF09F092EF57
:10131E0009F05DEF09F0DB07D8A0DC07DB2906E159
:10132E00DC29D8A49DEF09F09FEF09F05DEF09F0DD
:10133E00DFA3A4EF09F0A6EF09F05BEF04F0C5EF11
:10134E0009F0200E146EA4C015F0A5C016F0DDC174
:10135E0017F0DEC118F0A6C019F0A7C01AF002D817
:10136E00C2EF09F00500FA6EA251FD6EA351FE6E9A
:10137E00FF6AFA5012000101DD4BDE2BCE51000147
:10138E00AB6F0101CF510001AC6F0101CE4BCF2BE2
:10139E00D9510001AB5D0101DA510001AC59D8A061
:1013AE00DBEF09F0DDEF09F0A8EF09F05BEF04F0D9
:1013BE000101DA6B040ED96F210EDF13A2C062F0A9
:1013CE00A3C063F0A4C064F0A5C065F0DDC166F0F3
:1013DE00DEC167F0A6C068F0A7C069F0A9C0D9FF4A
:1013EE00AAC0DAFFDF50DF2ADF2AD96EDA6ADECF33
:1013FE00ABF0DDCFACF0ABC06AF0ACC06BF000016F
:10140E006C6B6D6B000E6E6F100E6F6F000E706F4B
:10141E00000E716F000E726FDBC173F0DCC174F0E1
:10142E00D9C175F0DAC176F0DFC177F0E0C178F09E
:10143E007BEC0FF062C0DDF163C0DEF15BEF04F018
:10144E00250E146EA4C015F0A5C016F0DDC117F060
:10145E00DEC118F0A6C019F0A7C01AF002D842EFEC
:10146E000AF005000001FA6EA251FD6EA351FE6E48
:10147E00FF6AFA50120058EF04F0A8C0F6FF080EEB
:10148E00F76E0800F5CF14F0A4C015F0A5C016F045
:10149E00DDC117F0DEC118F0A6C019F0A7C01AF012
:1014AE0002D864EF0AF005000001FA6EA251FD6E3B
:1014BE00A351FE6EFF6AFA50120058EF04F0A8C056
:1014CE00F6FF080EF76E0800F550250AD8B427EF80
:1014DE000AF07D0AD8B4B6EF05F03A0AD8B4B6EFE2
:1014EE0005F0010AD8B434EF08F0070AD8B4B6EF05
:1014FE0005F00D0AD8B4B6EF05F0060AD8B4B6EF6B
:10150E0005F01F0AD8B4DFEF09F0030AD8B4DDEFF7
:10151E0008F0060AD8B4B6EF05F00D0AD8B4B6EF47
:10152E0005F044EF0AF0A8C0F6FF080EF76E0800AB
:10153E00F5500009D8A4A6EF0AF0A8EF0AF02BEF99
:10154E0004F0A6510101DD5D0001A7510101DE5934
:10155E00D8A0B4EF0AF0B6EF0AF0C2EF0AF0FF0E11
:10156E000001A6250101C46FFF0E0001A721010194
:10157E00C56FC6EF0AF0DDC1C4F1DEC1C5F1000EC4
:10158E00146EA4C015F0A5C016F0C4C117F0C5C1E5
:10159E0018F0A6C019F0A7C01AF002D8E1EF0AF0B1
:1015AE0005000001FA6EA251FD6EA351FE6EFF6A98
:1015BE00FA501200DDC1A2F0DEC1A3F0120042B259
:1015CE00EBEF0AF0EDEF0AF05FEF0BF04050411039
:1015DE00D8B4F4EF0AF0F6EF0AF022EF0BF042A0C7
:1015EE00FBEF0AF0FDEF0AF022EF0BF03B50D8A410
:1015FE0003EF0BF005EF0BF015EF0BF00C0E421492
:10160E000001606F000E4314616F60516111D8B418
:10161E0013EF0BF015EF0BF022EF0BF04006D8A0F6
:10162E00410622EF0BF038503924D96EDA6A300EAB
:10163E00DF6E394A3A2A3E50395C3F503A58D8B09C
:10164E002BEF0BF02DEF0BF042EF0BF03A5009E1C0
:10165E00200E395CD8A036EF0BF038EF0BF01AEFF6
:10166E000BF042EF0BF038503924D96EDA6A300E97
:10167E00DF6E394A3A2A42A047EF0BF049EF0BF0E2
:10168E005FEF0BF04050395C41503A58D8B052EFF2
:10169E000BF054EF0BF05FEF0BF03A5009E1200E18
:1016AE00395CD8A05DEF0BF05FEF0BF03AEF0BF06B
:1016BE0042A864EF0BF066EF0BF021EF0CF043B491
:1016CE006BEF0BF06DEF0BF0A7EF0BF039503A10FC
:1016DE00D8B474EF0BF076EF0BF0A7EF0BF03E5093
:1016EE00391809E13F503A18D8B480EF0BF082EF69
:1016FE000BF08EEF0BF04050391807E141503A18BD
:10170E00D8A48CEF0BF08EEF0BF0A7EF0BF0390691
:10171E00D8A03A0639503A10D8B498EF0BF09AEF99
:10172E000BF0A7EF0BF0100E3C183D10D8A4A2EF53
:10173E000BF0A4EF0BF0A7EF0BF03906D8A03A068A
:10174E00100E3C183D10D8A4AFEF0BF0B1EF0BF01C
:10175E00CDEF0BF042BAB6EF0BF0B8EF0BF0CDEFCA
:10176E000BF03A5007E1200E395CD8B0C1EF0BF008
:10177E00C3EF0BF0CDEF0BF038503924D96EDA6A87
:10178E00780EDF6E394A3A2A0EEF0CF0100E3C1826
:10179E003D10D8A4D5EF0BF0D7EF0BF0F1EF0BF017
:1017AE0042AADCEF0BF0DEEF0BF0F1EF0BF03A504C
:1017BE0007E1200E395CD8B0E7EF0BF0E9EF0BF044
:1017CE00F1EF0BF038503924D96EDA6A580EDF6E0D
:1017DE00C9EF0BF0020E3C183D10D8A4F9EF0BF038
:1017EE00FBEF0BF00EEF0CF03A5007E1200E395CD8
:1017FE00D8B004EF0CF006EF0CF00EEF0CF03850F2
:10180E003924D96EDA6A620EDF6EC9EF0BF03A50E8
:10181E0007E1200E395CD8B017EF0CF019EF0CF081
:10182E0021EF0CF038503924D96EDA6A300EDF6EA3
:10183E00394A3A2A3A5007E1200E395CD8B02AEFDD
:10184E000CF02CEF0CF05CEF0CF03B50D8B432EFF8
:10185E000CF034EF0CF03EEF0CF038503924D96E0A
:10186E00DA6A2D0EDF6E394A3A2A5CEF0CF042A48A
:10187E0043EF0CF045EF0CF04DEF0CF038503924DF
:10188E00D96EDA6A2B0EDF6E3AEF0CF042A652EFEB
:10189E000CF054EF0CF05CEF0CF038503924D96E8C
:1018AE00DA6A200EDF6E3AEF0CF030C01BF031C05A
:1018BE001CF032C01DF033C01EF034C01FF035C016
:1018CE0020F036C021F037C022F038C023F039C0E6
:1018DE0024F03AC025F040C026F041C027F042C0A7
:1018EE0028F043C029F009EC11F01BC030F01CC0E9
:1018FE0031F012000001C24BC32BE80EC25D030E85
:10190E00C359D8A08DEF0CF08FEF0CF092EF0CF0C6
:10191E00C36B000EC26F206AA8EF0CF02050070DAB
:10192E00F3CF1BF0F4CF1CF01B504924166E1C5045
:10193E004A20176E000E186E000E196E8FEC15F001
:10194E00202A4E50205CD8A0AFEF0CF0B1EF0CF077
:10195E0095EF0CF05004D8A4B7EF0CF0B9EF0CF0E3
:10196E0011EF0DF047C016F048C017F0010E186EBB
:10197E00000E196E8FEC15F049C016F04AC017F024
:10198E00000E186E000E196E8FEC15F0070E49241E
:10199E00166E000E4A20176E000E186E000E196E8F
:1019AE008FEC15F00E0E4924166E000E4A20176E9F
:1019BE00000E186E000E196E8FEC15F045C016F065
:1019CE0046C017F0000E186E010E196E8FEC15F052
:1019DE00F40E0001C25D010EC359D8B0F9EF0CF040
:1019EE00FBEF0CF007EF0DF045C016F046C017F0F8
:1019FE00010E186E010E196E8FEC15F011EF0DF031
:101A0E0045C016F046C017F0000E186E010E196E86
:101A1E008FEC15F04D2A4E504D5CD8A019EF0DF0FD
:101A2E001BEF0DF01CEF0DF04D6A216A2150070DD2
:101A3E00F3CF1BF0F4CF1CF01B504B24166E1C5032
:101A4E004C20176E000E186E010E196E8FEC15F0ED
:101A5E004D50BE0FD96EDA6ADF501B6E1B50010F50
:101A6E001C6E1CC0F6FF080EF76E0800F5CF1DF0B9
:101A7E0021C01EF0010E1F6E1E2A48EF0DF0D890E9
:101A8E001F361E2E46EF0DF01F501D140009D8B440
:101A9E0053EF0DF055EF0DF069EF0DF02150070DDE
:101AAE00F3CF1BF0F4CF1CF01B504B24166E1C50C2
:101ABE004C20176E010E186E010E196E8FEC15F07C
:101ACE007BEF0DF02150070DF3CF1BF0F4CF1CF080
:101ADE001B504B24166E1C504C20176E000E186EA9
:101AEE00010E196E8FEC15F0212A060E216482EF7D
:101AFE000DF084EF0DF01DEF0DF04D50070DF3CFEF
:101B0E001BF0F4CF1CF01B504924166E1C504A20BB
:101B1E00176E010E186E000E196E8FEC15F0120076
:101B2E00D70E0E6E39EC19F0020AD8A4A1EF0DF003
:101B3E00A3EF0DF0DDEF0DF0BFEF0DF01050D96EED
:101B4E00DA6A010ED926010EDF6EDDEF0DF01050B0
:101B5E00D96EDA6A010ED926020EDF6EDDEF0DF0B8
:101B6E001050D96EDA6A010ED926DF6ADDEF0DF05C
:101B7E001050D96EDA6A010ED926DF50116E126A34
:101B8E001250000AD8B4CEEF0DF0DDEF0DF011506B
:101B9E00000AD8B4A5EF0DF0010AD8B4AEEF0DF0DF
:101BAE00030AD8B4B7EF0DF0DDEF0DF0CF0E0E6EC9
:101BBE0039EC19F0020AD8A4E7EF0DF0E9EF0DF0B9
:101BCE0044EF0EF01050D96EDA6A010ED926DE04FB
:101BDE00D8A4F4EF0DF0F6EF0DF013EF0EF0105059
:101BEE00D96EDA6ADF50D96EDA6ADF2A1050D96EF2
:101BFE00DA6ADF50D96EDA6A180EDE18D8A40AEF48
:101C0E000EF00CEF0EF013EF0EF01050D96EDA6AE4
:101C1E00DF50D96EDA6ADF6A1050D96EDA6A010EB9
:101C2E00D926020EDE18D8A41FEF0EF021EF0EF00B
:101C3E0044EF0EF01050D96EDA6ADF50D96EDA6AC0
:101C4E00010ED926DF2A1050D96EDA6ADF50D96E0E
:101C5E00DA6A010ED9263C0EDE18D8A439EF0EF042
:101C6E003BEF0EF044EF0EF01050D96EDA6ADF50F3
:101C7E00D96EDA6A010ED926DF6AC70E0E6E39ECFE
:101C8E0019F0020AD8A44EEF0EF050EF0EF0ABEFA3
:101C9E000EF01050D96EDA6A010ED926DE04D8A4E1
:101CAE005BEF0EF05DEF0EF07AEF0EF01050D96E86
:101CBE00DA6ADF50D96EDA6ADF50D8A469EF0EF017
:101CCE006BEF0EF073EF0EF01050D96EDA6ADF5034
:101CDE00D96EDA6A180EDF6E1050D96EDA6ADF50DE
:101CEE00D96EDA6ADF061050D96EDA6A010ED9267D
:101CFE00020EDE18D8A486EF0EF088EF0EF0ABEFD2
:101D0E000EF01050D96EDA6ADF50D96EDA6A010E13
:101D1E00D926DF50D8A496EF0EF098EF0EF0A2EF72
:101D2E000EF01050D96EDA6ADF50D96EDA6A010EF3
:101D3E00D9263C0EDF6E1050D96EDA6ADF50D96E9E
:101D4E00DA6A010ED926DF06120020EE04F01B50CF
:101D5E00D9261C50DA22DECF4BF0DDCF4CF020EE30
:101D6E0006F01B50D9261C50DA22DECF49F0DDCF0B
:101D7E004AF020EE0AF01B50D9261C50DA22DECF94
:101D8E0047F0DDCF48F020EE08F01B50D9261C504E
:101D9E00DA22DECF45F0DDCF46F01BC0D9FF1CC0E6
:101DAE00DAFFDF50506E20EE01F01B50D9261C508A
:101DBE00DA22DF504F6E20EE02F01B50D9261C5057
:101DCE00DA22DF500001C66F20EE03F01B50D92639
:101DDE001C50DA22DF504E6E206A2050070DF3CFD2
:101DEE001DF0F4CF1EF01D504B240E6E1E504C20D5
:101DFE000F6E000E106E53EC13F02050070DF3CF44
:101E0E001DF0F4CF1EF01D504B24166E1E504C20AC
:101E1E00176E000E186E010E196E8FEC15F0202A3B
:101E2E00060E20641DEF0FF01FEF0FF0F4EF0EF013
:101E3E001F6A45EF0FF01F50070DF3CF1DF0F4CFC3
:101E4E001EF01D5049240E6E1E504A200F6E000EBD
:101E5E00106E53EC13F01F50070DF3CF1DF0F4CF9F
:101E6E001EF01D504924166E1E504A20176E000E8D
:101E7E00186E000E196E8FEC15F01F2A4E501F5C57
:101E8E00D8A04CEF0FF04EEF0FF022EF0FF05004F2
:101E9E00D8A454EF0FF056EF0FF07AEF0FF045C0C5
:101EAE000EF046C00FF0000E106E53EC13F045C04E
:101EBE0016F046C017F0000E186E010E196E8FEC5C
:101ECE0015F047C00EF048C00FF0000E106E53EC28
:101EDE0013F047C016F048C017F0000E186E000E33
:101EEE00196E8FEC15F012000001A16B000EA06FA1
:101EFE006A516B116C116D11D8A488EF0FF08AEF37
:101F0E000FF08BEF0FF0779978A590EF0FF092EF1F
:101F1E000FF09DEF0FF06A516B116C116D11D8B46B
:101F2E009BEF0FF09DEF0FF016EF10F06AC00EF062
:101F3E006BC00FF06CC010F06DC011F06FC012F0DE
:101F4E0070C013F071C014F072C015F00AEC15F0E9
:101F5E000E5000019F6F090E9F65B8EF0FF0BAEF9C
:101F6E000FF0D7EF0FF077BBBFEF0FF0C1EF0FF011
:101F7E00C6EF0FF09E6B610E9D6FC9EF0FF09E6B5B
:101F8E00410E9D6F9F519D25796F000E9E217A6F98
:101F9E00F60E79259B6FFF0E7A219C6FDDEF0FF009
:101FAE00300E9F259B6F9C6B000E9C23A0517B0FC8
:101FBE00D96EDA6A9BC0DFFFA04BA12B6AC00EF070
:101FCE006BC00FF06CC010F06DC011F06FC012F04E
:101FDE0070C013F071C014F072C015F001EC13F064
:101FEE000EC06AF00FC06BF010C06CF011C06DF037
:101FFE0000016A516B116C116D11D8B409EF10F01C
:10200E000BEF10F016EF10F0A15109E1200EA05DBC
:10201E00D8A014EF10F016EF10F09DEF0FF062C085
:10202E0030F063C031F064C032F065C033F066C08A
:10203E0034F067C035F068C036F069C037F07B0EFB
:10204E00386EA0C039F0A1C03AF06EC03BF06FC040
:10205E003CF070C03DF073C03EF074C03FF075C0F0
:10206E0040F076C041F077C042F078C043F0E6EC25
:10207E000AF030C062F031C063F012001550D96E14
:10208E00DA6A020ED926DE04D8A450EF10F052EF11
:10209E0010F068EF10F01550D96EDA6ADECF0EF040
:1020AE00DDCF0FF095EC17F0E806D8B461EF10F025
:1020BE0064EF10F0010E65EF10F0000E186E7CEF5D
:1020CE0010F01550D96EDA6ADECF0EF0DDCF0FF0BC
:1020DE0095EC17F0E806D8A477EF10F07AEF10F031
:1020EE00010E7BEF10F0000E186E1550D96EDA6AE5
:1020FE00030ED9261850DE18D8A488EF10F08AEFF8
:10210E0010F092EF10F01550D96EDA6A050ED9263E
:10211E00DF6A08EF11F01550D96EDA6A050ED9266E
:10212E00DF2A1550D96EDA6A060ED9261550E16EE1
:10213E00E26A050EE126DE50E65CD8A0A9EF10F0AB
:10214E00ABEF10F008EF11F01550D96EDA6A030EEE
:10215E00D9261550E16EE26A040EE126DFCFE7FFC5
:10216E001550D96EDA6A030ED92618C0DFFF155046
:10217E00D96EDA6A040ED926DF50D8A4C9EF10F052
:10218E00CBEF10F0E1EF10F01550D96EDA6A030EB6
:10219E00D926DE04D8A4D6EF10F0D8EF10F0E1EF78
:1021AE0010F01550D96EDA6A070ED926010EDF6EC1
:1021BE0002EF11F01550D96EDA6A040ED926DE043C
:1021CE00D8A4ECEF10F0EEEF10F002EF11F0155076
:1021DE00D96EDA6A030ED926DF50D8A4F9EF10F0C3
:1021EE00FBEF10F002EF11F01550D96EDA6A070E00
:1021FE00D926020EDF6E1550D96EDA6A050ED92673
:10220E00DF6A12001FC02CF020C02DF028B212EF92
:10221E0011F014EF11F06FEF11F028B019EF11F06B
:10222E001BEF11F06FEF11F024C02EF025C02FF030
:10223E003FEF11F0200E146E1DC015F01EC016F0EB
:10224E001FC017F020C018F021C019F022C01AF0DC
:10225E0002D83BEF11F00500FA6E1B50FD6E1C50BC
:10226E00FE6EFF6AFA5012001F4A202A2E4A2F2AAB
:10227E0026502E5C27502F58D8A048EF11F04AEF69
:10228E0011F021EF11F06FEF11F02406D8A0250602
:10229E0023502424D96EDA6ADF50146E1DC015F057
:1022AE001EC016F01FC017F020C018F021C019F084
:1022BE0022C01AF002D86DEF11F00500FA6E1B5015
:1022CE00FD6E1C50FE6EFF6AFA5012001F4A202A45
:1022DE0024502510D8A476EF11F078EF11F04CEFC2
:1022EE0011F028A27DEF11F07FEF11F0AEEF11F09B
:1022FE009DEF11F0200E146E1DC015F01EC016F0CD
:10230E001FC017F020C018F021C019F022C01AF01B
:10231E0002D89BEF11F00500FA6E1B50FD6E1C509B
:10232E00FE6EFF6AFA5012001F4A202A2C501F5CC4
:10233E002A6E2D5020582B6E26502A5C27502B5873
:10234E00D8A0ACEF11F0AEEF11F081EF11F01FC07D
:10235E001BF020C01CF01200E20E1B6EDF0E1C6E76
:10236E00C6EC17F0E40E0E6EB6EC18F0E40E166E18
:10237E0030EC17F064EC19F0B5EC19F04D0E1B6E45
:10238E00010E1C6EACEC0EF0B1EC19F0DF0E146EFB
:10239E00150E156E1A0E166E370E176E23EC18F0FC
:1023AE0095EC18F0E20E106E97EC0DF056EC19F05D
:1023BE000009D8B4E5EF11F0E7EF11F0EBEF11F0F3
:1023CE0071EC19F081EC0CF048EC19F00009D8B45E
:1023DE00F3EF11F0F5EF11F010EF12F00001E351F1
:1023EE00D8A4FCEF11F0FEEF11F010EF12F0DF0E9B
:1023FE000E6E7FEC14F0DF0E0E6ED2EC18F00EC0E7
:10240E0015F00FC016F0F6EC17F0DF0E446E73ECFD
:10241E0018F00001E305D8A417EF12F019EF12F02F
:10242E001DEF12F01C0EAD6F01EC19F0020E000143
:10243E00E319D8A425EF12F027EF12F02BEF12F0CC
:10244E00200EAD6F01EC19F0B90E136E9FEC19F062
:10245E000009D8B435EF12F037EF12F0D7EF11F0C4
:10246E00410E0001B919D8A43FEF12F041EF12F05E
:10247E0047EF12F0240EAD6F01EC19F0D7EF11F00B
:10248E00420EB919D8A44EEF12F050EF12F0D7EF5A
:10249E0011F0280EAD6F01EC19F0D7EF11F007EF28
:1024AE0000F0136A0FBE60EF12F05EEF12F066EFEF
:1024BE0012F00E6C0F1ED8B00F2A010E136E11BE45
:1024CE006DEF12F06BEF12F071EF12F0106C111E37
:1024DE00D8B0112A10501110D8B478EF12F07AEF4C
:1024EE0012F09EEF12F0010E126E82EF12F0D890E3
:1024FE0010361136122A11AE87EF12F089EF12F054
:10250E007EEF12F010500E5C11500F58D8A092EFC3
:10251E0012F094EF12F098EF12F010500E5E115070
:10252E000F5AD89011321032122E89EF12F013502A
:10253E00D8B4A4EF12F0A6EF12F0AAEF12F00E6CC0
:10254E000F1ED8B00F2A0EC00EF00FC00FF01200E3
:10255E001004D8A4B5EF12F0B7EF12F0DBEF12F0C3
:10256E0020EE06F00E50D9260F50DA22DF50116EF3
:10257E00010E126E112AC6EF12F0D8901236112EDD
:10258E00C4EF12F020EE02F00E50D9260F50DA22D0
:10259E00DECF13F0DDCF14F013C0D9FF14C0DAFF75
:1025AE001250DF1200EF13F020EE06F00E50D92677
:1025BE000F50DA22DF50116E010E126E112AEAEF61
:1025CE0012F0D8901236112EE8EF12F01250FF0AC8
:1025DE00136E20EE02F00E50D9260F50DA22DECF07
:1025EE0014F0DDCF15F014C0D9FF15C0DAFF13506B
:1025FE00DF161200000E166E000E176E000E186E0D
:10260E00000E196E1250131014101510D8B412EFCC
:10261E0013F014EF13F04AEF13F0010E1A6E1EEFC3
:10262E0013F0D89012361336143615361A2A15AE04
:10263E0023EF13F025EF13F018EF13F0D8901636A2
:10264E0017361836193612500E5C13500F58145098
:10265E00105815501158D8A037EF13F039EF13F06A
:10266E0042EF13F012500E5E13500F5A1450105AC0
:10267E001550115A1680D890153214321332123268
:10268E001A2E25EF13F016C00EF017C00FF018C05B
:10269E0010F019C011F012001050D8A459EF13F019
:1026AE005BEF13F080EF13F020EE06F00E50D926FC
:1026BE000F50DA22DF50116E010E126E112A6AEFE0
:1026CE0013F0D8901236112E68EF13F01250FF0A45
:1026DE00136E0EC0D9FF0FC0DAFFDECF14F0DDCFC0
:1026EE0015F014C0D9FF15C0DAFF1350DF16A0EF96
:1026FE0013F020EE06F00E50D9260F50DA22DF50DE
:10270E00116E010E126E112A8FEF13F0D890123641
:10271E00112E8DEF13F00EC0D9FF0FC0DAFFDECFF2
:10272E0013F0DDCF14F013C0D9FF14C0DAFF12502E
:10273E00DF12120020EE15F00E50D9260F50DA22BD
:10274E0010EE14F00E50E1260F50E222DE50E61885
:10275E00D8A4B4EF13F0B6EF13F0B9EF13F0000EE8
:10276E00EAEF13F020EE15F00E50D9260F50DA22B4
:10277E00DF50116E11500E24D96E000E0F20DA6E3E
:10278E001050E16EE26ADFCFE7FF20EE15F00E503B
:10279E00D9260F50DA22DF2A20EE15F00E50D92658
:1027AE000F50DA22140EDE18D8A4E0EF13F0E2EF89
:1027BE0013F0E9EF13F020EE15F00E50D9260F505E
:1027CE00DA22DF6A010E12009EAAF0EF13F0F2EF8A
:1027DE0013F011EF14F0ABA2F7EF13F0F9EF13F0C3
:1027EE00FDEF13F0AB98AB8834EF14F0ABA402EF0F
:1027FE0014F004EF14F007EF14F0AE5034EF14F0B1
:10280E00AECF07F08A0E026E010E036E07C004F003
:10281E000BEC16F09EA816EF14F018EF14F034EF30
:10282E0014F09DA81DEF14F01FEF14F034EF14F008
:10283E00A00E026E010E036E080E046E35EC14F03F
:10284E000009D8B42DEF14F02FEF14F033EF14F07D
:10285E0008C0ADFF34EF14F09D98120020EE15F075
:10286E000250D9260350DA2210EE14F00250E1265F
:10287E000350E222DE50E618D8A448EF14F04AEFD7
:10288E0014F04DEF14F0000E7EEF14F020EE15F064
:10289E000250D9260350DA22DF50056E055002246D
:1028AE00D96E000E0320DA6E0450E16EE26ADFCFBD
:1028BE00E7FF20EE15F00250D9260350DA22DF2A68
:1028CE0020EE15F00250D9260350DA22140EDE182F
:1028DE00D8A474EF14F076EF14F07DEF14F020EE20
:1028EE0015F00250D9260350DA22DF6A010E1200CB
:1028FE000E50D96EDA6A020ED926DF2A0E50D96E24
:10290E00DA6A020ED9263B0EDF6490EF14F092EFD6
:10291E0014F0C4EF14F00E50D96EDA6A020ED926F6
:10292E00DF6A0E50D96EDA6A010ED926DF2A0E50F2
:10293E00D96EDA6A010ED9263B0EDF64A9EF14F0C8
:10294E00ABEF14F0C4EF14F00E50D96EDA6A010E2C
:10295E00D926DF6A0E50D96EDA6ADF2A0E50D96E8A
:10296E00DA6A170EDF64BEEF14F0C0EF14F0C4EF96
:10297E0014F00E50D96EDA6ADF6A1200950F8C0FC2
:10298E00830F00950F8C0F830F01950F8C0F830F04
:10299E0002950F8C0F830F03950F8C0F830F0495E9
:1029AE000F8C0F830F05950F8C0F830F06930F8AD5
:1029BE000F810F04930F8A0F810F05930F8A0F81DA
:1029CE000F06930F8A0F810F0701010004000131DA
:1029DE000183017C01930F8A0F810F02930F8A0FDF
:1029EE00810F01930F8A0F810F00940F8B0F820FAF
:1029FE0006940F8B0F820F07960F8D0F840F009585
:102A0E000F8C0F830F071250131014101510D8B41B
:102A1E0013EF15F015EF15F045EF15F0010E166ECC
:102A2E001FEF15F0D8901236133614361536162AB7
:102A3E0015AE24EF15F026EF15F019EF15F0125024
:102A4E000E5C13500F581450105815501158D8A032
:102A5E0033EF15F035EF15F03DEF15F012500E5E19
:102A6E0013500F5A1450105A1550115AD89015323F
:102A7E00143213321232162E26EF15F00EC00EF04F
:102A8E000FC00FF010C010F011C011F012000600B0
:102A9E00E1CF0AF0E2CF0BF0D9CF0CF0DACF0DF088
:102AAE00000E9EBA010E9EB8010EE8B061EF15F051
:102ABE0065EF15F0096A092A66EF15F0096A0950E3
:102ACE00D8B46CEF15F06EEF15F070EF15F0EBEC6F
:102ADE0013F0F2A475EF15F077EF15F085EF15F002
:102AEE00F2AA7CEF15F07EEF15F085EF15F0F2945B
:102AFE00FB0ED76E1E0ED66E95EC19F00DC0DAFFDA
:102B0E000CC0D9FF0BC0E2FF0AC0E1FF0192110019
:102B1E001950D8A495EF15F097EF15F0BAEF15F000
:102B2E000001C605D8A49EEF15F0A0EF15F0ADEF8D
:102B3E0015F01804D8B4A6EF15F0A9EF15F0010E94
:102B4E00AAEF15F0000E1A6EC4EF15F01850D8B497
:102B5E00B3EF15F0B6EF15F0010EB7EF15F0000E4E
:102B6E001A6EC4EF15F04F04D8A4C0EF15F0C2EFE3
:102B7E0015F0ADEF15F0A0EF15F016C00EF017C062
:102B8E000FF01AC010F0AFEC12F0120020EE14F09D
:102B9E000E50D9260F50DA22DF50116E1128126E08
:102BAE00140E1218D8A4DEEF15F0E0EF15F0E1EFD9
:102BBE0015F0126A20EE15F00E50D9260F50DA22BB
:102BCE001250DE18D8A4EEEF15F0F0EF15F0F2EF7C
:102BDE0015F00AEF16F020EE14F00E50D9260F5015
:102BEE00DA22DF50116E11500E24D96E000E0F2016
:102BFE00DA6E10C0DFFF20EE14F00E50D9260F5003
:102C0E00DA2212C0DFFF120020EE14F00250D92695
:102C1E000350DA22DF50056E0528066E140E0618D4
:102C2E00D8A41CEF16F01EEF16F01FEF16F0066A72
:102C3E0020EE15F00250D9260350DA220650DE1887
:102C4E00D8A42CEF16F02EEF16F030EF16F048EF5A
:102C5E0016F020EE14F00250D9260350DA22DF507F
:102C6E00056E05500224D96E000E0320DA6E04C0E4
:102C7E00DFFF20EE14F00250D9260350DA2206C0F0
:102C8E00DFFF1200166A000E156E6DEF16F00A0EBB
:102C9E001502F3CF12F0F4CF13F01602F3501326F1
:102CAE001050D96EDA6ADFCF14F0010EDF2614C091
:102CBE00F6FF080EF76E0800F5501226000E1322CE
:102CCE00D00E1224156EFF0E1320166E1050D96EF4
:102CDE00DA6ADFCFF6FF080EF76E0800F550EBEC60
:102CEE0018F00009D8A47EEF16F080EF16F04EEF24
:102CFE0016F015C010F016C011F012008A0EF66E06
:102D0E00290EF76E000EF86E01EE00F010EE8AF04E
:102D1E000900F5CFEEFFE550E150FAE15A0EF66EDE
:102D2E00330EF76E000EF86E00EEE4F010EE08F0C3
:102D3E000900F5CFEEFFE550E150FAE101EE8AF021
:102D4E002C0EEE6AE806FDE100EEBAF02A0EEE6AEF
:102D5E00E806FDE100EE45F00F0EEE6AE806FDE135
:102D6E0001900192000EF86E0001B3EF11F0146A9B
:102D7E00000E136E10501110D8B4C8EF16F0CAEF33
:102D8E0016F0F2EF16F0010E126ED2EF16F0D8908A
:102D9E0010361136122A11AED7EF16F0D9EF16F003
:102DAE00CEEF16F0D8901336143610500E5C11502C
:102DBE000F58D8A0E5EF16F0E7EF16F0ECEF16F08F
:102DCE0010500E5E11500F5A1380D89011321032DF
:102DDE00122ED9EF16F013C00EF014C00FF0120021
:102DEE001650D96EDA6A17C0DEFF18C0DDFF165016
:102DFE00D96EDA6A020ED92619C0DFFF1650D96EC7
:102E0E00DA6A030ED926DF6A1650D96EDA6A040E14
:102E1E00D926DF6A1650D96EDA6A050ED926DF6A10
:102E2E001650D96EDA6A060ED9261AC0DFFF165072
:102E3E00D96EDA6A070ED926DF6A1650D96EDA6AAB
:102E4E00DECF0EF0DDCF0FF0010E106E53EC13F04F
:102E5E0012001650D96EDA6ADECF0EF0DDCF0FF00B
:102E6E00010E106E53EC13F01650D96EDA6A020E84
:102E7E00D926DECF0EF0DDCF0FF0010E106E53EC23
:102E8E0013F0A00E0E6E010E0F6E2AEC19F08A0EC4
:102E9E000E6E010E0F6E2AEC19F0AB8EAC8AAB885B
:102EAE009E989D989EAA5EEF17F060EF17F061EF67
:102EBE0017F0AE509D8A120010501110D8B46AEF60
:102ECE0017F06CEF17F090EF17F0010E126E74EF13
:102EDE0017F0D89010361136122A11AE79EF17F07E
:102EEE007BEF17F070EF17F010500E5C11500F586B
:102EFE00D8A084EF17F086EF17F08AEF17F0105076
:102F0E000E5E11500F5AD89011321032122E7BEFE6
:102F1E0017F00EC00EF00FC00FF0120020EE04F0EE
:102F2E000E50D9260F50DA22DECF10F0DDCF11F081
:102F3E0010C0D9FF11C0DAFFDF50126E20EE06F07E
:102F4E000E50D9260F50DA22DF50136E010E146E7A
:102F5E00132AB4EF17F0D8901436132EB2EF17F0E1
:102F6E00145012140009D8B4BFEF17F0C1EF17F0C8
:102F7E00C4EF17F0010EC5EF17F0000E12001B5034
:102F8E00D96EDA6A1CC0DFFF1B50D96EDA6A010EE9
:102F9E00D926DF6AD70E166E670E176E010E186EE3
:102FAE00000E196E190E1A6EF7EC16F0CF0E166E85
:102FBE00600E176E010E186E000E196E190E1A6E37
:102FCE00F7EC16F0C70E166E590E176E010E186E30
:102FDE00000E196E190E1A6EF7EC16F01200186A22
:102FEE0019EF18F015C00EF016C00FF0116A0A0E88
:102FFE00106E63EC17F00E50176E1850BD084E246D
:10300E00D96EDA6A17C0DFFF15C00EF016C00FF0CA
:10301E00116A0A0E106EBEEC16F00EC015F00FC03F
:10302E0016F0182A4E50185CD8A020EF18F022EF98
:10303E0018F0F9EF17F012001450D96EDA6A15C0B5
:10304E000EF00F6A116A180E106E58EC12F00E5038
:10305E00DF6E1450D96EDA6A010ED92616C00EF044
:10306E000F6A116A3C0E106E58EC12F00E50DF6EA5
:10307E001450D96EDA6A020ED92617C00EF00F6AF6
:10308E00116A3C0E106E58EC12F00E50DF6E1200EC
:10309E000EC011F054EF18F0112A1150D96EDA6AE1
:1030AE00DF50D8B45DEF18F05FEF18F06CEF18F04A
:1030BE000F06D8A010060F2806E11028D8A46AEF34
:1030CE0018F06CEF18F053EF18F00E50115C0E6EF6
:1030DE000F6A0EBE0F0612000B0E0001AD6F4450AC
:1030EE00D96EDA6ADF50B66FB651AE6FAF6B445021
:1030FE00D96EDA6A010ED926DF50B76FB751B06FAD
:10310E00B16B4450D96EDA6A020ED926DF50B86F11
:10311E00B851B26FB36B01EC19F01200ADEF18F0AD
:10312E005306010E516E0001C44BC52BE80EC45D53
:10313E00030EC559D8A0A6EF18F0A8EF18F0ADEF02
:10314E0018F0C56B000EC46F010E526E5350D8A40A
:10315E00B3EF18F0B5EF18F097EF18F01200AC9C23
:10316E00AB9CAC980E50D96EDA6A040ED926800E3E
:10317E00DE1809E1250EDE18DE10DE10D8A4CAEF27
:10318E0018F0CCEF18F0D1EF18F0AC84B896B06A06
:10319E00810EAF6E12000E50D96EDA6A010ED9266C
:1031AE00DF50106E0E50D96EDA6ADF50116E11506C
:1031BE00640DF3CF12F0F4CF13F0105012240E6EF4
:1031CE00000E13200F6E12000F6E0E6A2F0E0F647C
:1031DE00F3EF18F0F5EF18F0FFEF18F03A0E0F605E
:1031EE00FBEF18F0FDEF18F0FFEF18F0010E0E6E6A
:1031FE000E501200AE0E0001B56FFC0EA26F320E15
:10320E00A36FB40EA46FA56BFF0EA76FA669ADC01A
:10321E00A8F0B50EA96FAA6B17EC04F012001950A6
:10322E00175C1A501858D8B01FEF19F021EF19F08B
:10323E0029EF19F017501524D96E18501620DA6E92
:10324E0014C0DFFF120020EE14F00E50D9260F50DE
:10325E00DA22DF6A20EE15F00E50D9260F50DA2250
:10326E00DF6A12000E50D96EDA6A070ED926DF50C9
:10327E000F6E0E50D96EDA6A070ED926DF6A0F501E
:10328E0012005250D8B44EEF19F050EF19F054EF1F
:10329E0019F0526A010E55EF19F0000E120051503E
:1032AE00D8B45CEF19F05EEF19F062EF19F0516AC5
:1032BE00010E63EF19F0000E1200D56AD59CD59A57
:1032CE00D596D550F80B0109D56EA8EC19F0F294ED
:1032DE00F28A1200D70E156E45EC10F0CF0E156E59
:1032EE0045EC10F0C70E156E45EC10F012001450A0
:1032FE00D8B484EF19F086EF19F089EF19F0145055
:10330E008AEC19F01200136EA00E0E6E010E0F6EE7
:10331E0013C010F0CDEC15F09D8812005328D8B4D0
:10332E009BEF19F09DEF19F09EEF19F0532A120042
:10333E008A0E0E6E010E0F6E13C010F0A1EC13F07C
:10334E001200FB0ED76E1E0ED66E120075016E01A8
:10335E0080250000D09EF28CF28E1200D58E1200C7
:04336E001200120037
:020000040030CA
:08000000000C1E1EFF8181FFB0
:00000001FF
