:04000000FEEF3FF0E0
:100800000000160E3B6E000E3C6EC2EC04F00F0EA4
:100810003B6E010E3C6EC2EC04F01D0E3B6EFBEC19
:1008200005F01D0E426ED9EC05F0160E3B6E000E63
:100830003C6E74EC04F048EC06F030EC06F00F0E61
:100840003B6E86EC05F0456E4550D8A42AEF04F0C7
:100850002CEF04F044EF04F0480E79EC06F0690E3A
:1008600079EC06F00D0E79EC06F00A0E79EC06F044
:100870000D0E446EAF0E436EB60EE82EFED7432E1D
:10088000FCD7442EFAD700D0460E3F6E81EC06F01E
:100890000009D8B44EEF04F050EF04F01BEF04F061
:1008A000410E4618D8A457EF04F059EF04F061EF59
:1008B00004F0160E3B6E010E3C6E74EC04F01BEF60
:1008C00004F0420E4618D8A468EF04F06AEF04F072
:1008D0001BEF04F0160E3B6E000E3C6E74EC04F041
:1008E0001BEF04F0FEEF3FF03C04D8A47AEF04F0D5
:1008F0007CEF04F09EEF04F03B50D96EDA6A060EEE
:10090000D926DF503D6E010E3E6E3D2A8AEF04F07F
:10091000D8903E363D2E88EF04F03B50D96EDA6A0F
:10092000020ED926DECF3FF0DDCF40F03FC0D9FF29
:1009300040C0DAFF3E50DF12C1EF04F03B50D96EE9
:10094000DA6A060ED926DF503D6E010E3E6E3D2A54
:10095000ACEF04F0D8903E363D2EAAEF04F03E50A6
:10096000FF0A3F6E3B50D96EDA6A020ED926DECFFF
:1009700040F0DDCF41F040C0D9FF41C0DAFF3F5029
:10098000DF1612003C50D8A4C8EF04F0CAEF04F000
:10099000EDEF04F03B50D96EDA6A060ED926DF502F
:1009A0003D6E010E3E6E3D2AD8EF04F0D8903E36E3
:1009B0003D2ED6EF04F03E50FF0A3F6E3B50D96EFD
:1009C000DA6ADECF40F0DDCF41F040C0D9FF41C050
:1009D000DAFF3F50DF160BEF05F03B50D96EDA6AB5
:1009E000060ED926DF503D6E010E3E6E3D2AFBEF0E
:1009F00004F0D8903E363D2EF9EF04F03B50D96E0E
:100A0000DA6ADECF3FF0DDCF40F03FC0D9FF40C013
:100A1000DAFF3E50DF1212003B50D96EDA6A0B0E3D
:100A2000D9263B50E16EE26A0A0EE126DE50E61856
:100A3000D8A41DEF05F01FEF05F022EF05F0000E22
:100A40004DEF05F03B50D96EDA6A0B0ED926DF5018
:100A50003D6E3B503D24D96EDA6A3C50E16EE26A4D
:100A6000DFCFE7FF3B50D96EDA6A0B0ED926DF2ABB
:100A70003B50D96EDA6A0B0ED9260A0EDE18D8A4BE
:100A800044EF05F046EF05F04CEF05F03B50D96E12
:100A9000DA6A0B0ED926DF6A010E12003B50D96EBE
:100AA000DA6A0A0ED926DF503D6E3D283E6E0A0EE8
:100AB0003E18D8A45EEF05F060EF05F061EF05F099
:100AC0003E6A3B50D96EDA6A0B0ED9263E50DE18CC
:100AD000D8A46DEF05F06FEF05F071EF05F085EF2D
:100AE00005F03B50D96EDA6A0A0ED926DF503D6E0A
:100AF0003B503D24D96EDA6A3CC0DFFF3B50D96ED3
:100B0000DA6A0A0ED9263EC0DFFF12003B50D96ECA
:100B1000DA6A040ED926DECF3CF0DDCF3DF03CC0D2
:100B2000D9FF3DC0DAFFDF503E6E3B50D96EDA6A26
:100B3000060ED926DF503F6E010E406E3F2AA3EF0E
:100B400005F0D89040363F2EA1EF05F040503E14FE
:100B50000009D8B4AEEF05F0B0EF05F0B3EF05F043
:100B6000010EB4EF05F0000E12009EAABAEF05F0D8
:100B7000BCEF05F0C5EF05F0ABA2C1EF05F0C3EF88
:100B800005F0C8EF05F0AB98AB88000ED8EF05F084
:100B9000ABA4CDEF05F0CFEF05F0D2EF05F0AE50EE
:100BA000C5EF05F03B50D96EDA6AAECFDFFF010E1C
:100BB00012004250D96EDA6ADF503B6E010E3C6E75
:100BC000C2EC04F04250D96EDA6A010ED926DF5029
:100BD0003B6E010E3C6EC2EC04F02F0E3B6E6CECD3
:100BE00006F0230E3B6E6CEC06F0AB8EAC8AAB8845
:100BF0009E989D881200AC9CAB9CAC983B50D96EE3
:100C0000DA6A020ED926800EDE1809E1250EDE18FA
:100C1000DE10DE10D8A40FEF06F011EF06F016EF8D
:100C200006F0AC84B896B06A810EAF6E1200B60EB4
:100C3000F66E0C0EF76E000EF86E00EE01F010EE80
:100C400022F00900F5CFEEFFE550E150FAE100EEA9
:100C500023F0180EEE6AE806FDE1000101EF04F052
:100C60009EA835EF06F037EF06F047EF06F02F0E9F
:100C70003B6E3F0E3C6E0CEC05F00009D8B443EF20
:100C800006F045EF06F047EF06F03FC0ADFF12005B
:100C90003F0E3B6EB5EC05F00009D8B452EF06F0FC
:100CA00054EF06F05AEF06F0230E3B6E3FC03CF0C7
:100CB0004EEC05F01200940F8B0F820F06940F8BF1
:100CC0000F820F07930F8A0F810F00950F8C0F83F0
:100CD0000F000801802500003B50D96EDA6A0A0E29
:100CE000D926DF6A3B50D96EDA6A0B0ED926DF6A45
:100CF00012003F6E2F0E3B6E3FC03CF04EEC05F0F5
:100D00001200230E3B6E3FC03CF00CEC05F01200CD
:047FFC0017EF06F085
:020000040030CA
:08000000000C1E1EFF8181FFB0
:00000001FF
