:04000000FEEF3FF0E0
:1008000000001004D8A407EF04F009EF04F02BEF68
:1008100004F00F50D96EDA6A060ED926DF50116E39
:10082000010E126E112A17EF04F0D8901236112E15
:1008300015EF04F00F50D96EDA6A020ED926DECF1A
:1008400013F0DDCF14F013C0D9FF14C0DAFF12503B
:10085000DF124EEF04F00F50D96EDA6A060ED92679
:10086000DF50116E010E126E112A39EF04F0D8908C
:100870001236112E37EF04F01250FF0A136E0F508C
:10088000D96EDA6A020ED926DECF14F0DDCF15F06C
:1008900014C0D9FF15C0DAFF1350DF161200105034
:1008A000D8A455EF04F057EF04F07AEF04F00F509E
:1008B000D96EDA6A060ED926DF50116E010E126E5D
:1008C000112A65EF04F0D8901236112E63EF04F070
:1008D0001250FF0A136E0F50D96EDA6ADECF14F091
:1008E000DDCF15F014C0D9FF15C0DAFF1350DF16A5
:1008F00098EF04F00F50D96EDA6A060ED926DF5051
:10090000116E010E126E112A88EF04F0D890123683
:10091000112E86EF04F00F50D96EDA6ADECF13F095
:10092000DDCF14F013C0D9FF14C0DAFF1250DF126C
:1009300012000F50D96EDA6A040ED926DECF10F0FD
:10094000DDCF11F010C0D9FF11C0DAFFDF50126EF9
:100950000F50D96EDA6A060ED926DF50136E010EDB
:10096000146E132AB6EF04F0D8901436132EB4EF99
:1009700004F0145012140009D8B4C1EF04F0C3EF0E
:1009800004F0C6EF04F0010EC7EF04F0000E1200F1
:10099000080E0F6E000E106E4FEC04F0010E0F6E7D
:1009A000010E106E4FEC04F0010E0F6E99EC04F086
:1009B000166E1604D8A4DFEF04F0E1EF04F0E7EFC1
:1009C00004F0080E0F6E010E106E01EC04F0080E1C
:1009D0000F6E000E106E01EC04F0D4EF04F0FEEF89
:1009E0003FF0080EF66E0A0EF76E000EF86E00EE7F
:1009F00001F010EE0EF00900F5CFEEFFE550E150EA
:100A0000FAE10001C8EF04F0930F8A0F810F0095FF
:060A10000F8C0F830F00A4
:047FFC00F1EF04F0AD
:020000040030CA
:08000000000C1E1EFF8181FFB0
:00000001FF
