:0400000007EF00F016
:0A00080001828AED06F017EF06F002
:100800000000170E416E000E426EC2EC04F0100E96
:10081000416E010E426EC2EC04F01E0E416E56ECAB
:1008200006F01E0E486EEDEC05F0F28EF28C170EFF
:10083000416E000E426E74EC04F072EC06F0100E85
:10084000416EBEEC05F04B6E4B50D8A42AEF04F07D
:100850002CEF04F044EF04F0480EBCEC06F0690EF7
:10086000BCEC06F00D0EBCEC06F00A0EBCEC06F07B
:100870000D0E4A6EAF0E496EB60EE82EFED7492E0B
:10088000FCD74A2EFAD700D04C0E456EC4EC06F0C9
:100890000009D8B44EEF04F050EF04F01DEF04F05F
:1008A000410E4C18D8A457EF04F059EF04F061EF53
:1008B00004F0170E416E010E426E74EC04F01DEF51
:1008C00004F0420E4C18D8A468EF04F06AEF04F06C
:1008D0001DEF04F0170E416E000E426E74EC04F032
:1008E0001DEF04F007EF00F04204D8A47AEF04F003
:1008F0007CEF04F09EEF04F04150D96EDA6A060EE8
:10090000D926DF50436E010E446E432A8AEF04F06D
:10091000D8904436432E88EF04F04150D96EDA6AFD
:10092000020ED926DECF45F0DDCF46F045C0D9FF17
:1009300046C0DAFF4450DF12C1EF04F04150D96ED7
:10094000DA6A060ED926DF50436E010E446E432A42
:10095000ACEF04F0D8904436432EAAEF04F0445094
:10096000FF0A456E4150D96EDA6A020ED926DECFF3
:1009700046F0DDCF47F046C0D9FF47C0DAFF45500B
:10098000DF1612004250D8A4C8EF04F0CAEF04F0FA
:10099000EDEF04F04150D96EDA6A060ED926DF5029
:1009A000436E010E446E432AD8EF04F0D8904436CB
:1009B000432ED6EF04F04450FF0A456E4150D96EE5
:1009C000DA6ADECF46F0DDCF47F046C0D9FF47C038
:1009D000DAFF4550DF160BEF05F04150D96EDA6AA9
:1009E000060ED926DF50436E010E446E432AFBEFFC
:1009F00004F0D8904436432EF9EF04F04150D96EFC
:100A0000DA6ADECF45F0DDCF46F045C0D9FF46C0FB
:100A1000DAFF4450DF1212004150D96EDA6A150E27
:100A2000D9264150E16EE26A140EE126DE50E61846
:100A3000D8A41DEF05F01FEF05F022EF05F0000E22
:100A40004DEF05F04150D96EDA6A150ED926DF5008
:100A5000436E41504324D96EDA6A4250E16EE26A35
:100A6000DFCFE7FF4150D96EDA6A150ED926DF2AAB
:100A70004150D96EDA6A150ED926140EDE18D8A4A4
:100A800044EF05F046EF05F04CEF05F04150D96E0C
:100A9000DA6A150ED926DF6A010E12004150D96EAE
:100AA000DA6A140ED926DF50436E4328446E140EC2
:100AB0004418D8A45EEF05F060EF05F061EF05F093
:100AC000446A4150D96EDA6A150ED9264450DE18B0
:100AD000D8A46DEF05F06FEF05F071EF05F085EF2D
:100AE00005F04150D96EDA6A140ED926DF50436EF4
:100AF00041504324D96EDA6A42C0DFFF4150D96EBB
:100B0000DA6A140ED92644C0DFFF12003A50D96EBB
:100B1000DA6A140ED926DF503C6E3C283D6E140E66
:100B20003D18D8A496EF05F098EF05F099EF05F081
:100B30003D6A3A50D96EDA6A150ED9263D50DE1854
:100B4000D8A4A5EF05F0A7EF05F0A9EF05F0BDEFDC
:100B500005F03A50D96EDA6A140ED926DF503C6E91
:100B60003A503C24D96EDA6A3BC0DFFF3A50D96E66
:100B7000DA6A140ED9263DC0DFFF12004150D96E4B
:100B8000DA6A040ED926DECF42F0DDCF43F042C050
:100B9000D9FF43C0DAFFDF50446E4150D96EDA6AA4
:100BA000060ED926DF50456E010E466E452ADBEF54
:100BB00005F0D8904636452ED9EF05F0465044143E
:100BC0000009D8B4E6EF05F0E8EF05F0EBEF05F02B
:100BD000010EECEF05F0000E12004850D96EDA6AF3
:100BE000DF50416E010E426EC2EC04F04850D96EE7
:100BF000DA6A010ED926DF50416E010E426EC2EC58
:100C000004F0240E416EAFEC06F0600E416EAFECC6
:100C100006F0AB8EAC8AAB889E989EAA12EF06F0C7
:100C200014EF06F015EF06F0AE509D8A12003C0E50
:100C3000F66E0D0EF76E000EF86E00EE02F010EE7E
:100C400022F00900F5CFEEFFE550E150FAE100EEA9
:100C500060F0160EEE6AE806FDE100EE24F0160ED6
:100C6000EE6AE806FDE101900192000101EF04F057
:100C7000ABA23DEF06F03FEF06F043EF06F0AB9876
:100C8000AB8855EF06F0ABA448EF06F04AEF06F04C
:100C90004DEF06F0AE5055EF06F0AECF3EF0600ED1
:100CA0003A6E3EC03BF086EC05F01200AC9CAB9C6B
:100CB000AC984150D96EDA6A020ED926800EDE1841
:100CC00009E1250EDE18DE10DE10D8A46AEF06F06A
:100CD0006CEF06F071EF06F0AC84B896B06A810E46
:100CE000AF6E12009EA877EF06F079EF06F089EF5D
:100CF00006F0240E416E450E426E0CEC05F0000924
:100D0000D8B485EF06F087EF06F089EF06F045C00E
:100D1000ADFF12000600D9CF3FF0DACF40F09EAA17
:100D200094EF06F096EF06F098EF06F038EC06F038
:100D300040C0DAFF3FC0D9FF01921100940F8B0F22
:100D4000820F06940F8B0F820F07930F8A0F810F6C
:100D500000950F8C0F830F00090280250000415081
:100D6000D96EDA6A140ED926DF6A4150D96EDA6A72
:100D7000150ED926DF6A1200456E240E416E45C05D
:100D800042F04EEC05F01200600E416E45C042F09C
:060D90000CEC05F012005E
:020000040030CA
:08000000000C1E1EFF8181FFB0
:00000001FF
